:020000040800F2
:10000000F84800205D020008A92D000831280008EA
:10001000992D0008B5040008953300080000000081
:100020000000000000000000000000009D0100082A
:100030007106000800000000F9010008BD2D00084D
:1000400077020008770200087702000877020008AC
:10005000770200087702000877020008770200089C
:10006000770200087702000877020008B905000847
:1000700077020008C505000877020008770200082B
:10008000D10500087702000877020008770200080F
:10009000E1040008770200087702000877020008F0
:1000A000770200087702000877020008770200084C
:1000B000912E0008770200087702000877020008F6
:1000C000770200087702000877020008770200082C
:1000D000770200087D3300088933000877020008A2
:1000E000770200087702000877020008770200080C
:1000F000770200087702000877020008DD05000893
:1001000077020008770200087702000877020008EB
:1001100077020008770200087702000877020008DB
:100120007702000877020008E90500087702000856
:1001300077020008770200087702000877020008BB
:1001400039050008770200087702000877020008E6
:10015000770200087702000877020008770200089B
:10016000770200087702000877020008770200088B
:1001700077020008770200087702000800000000FC
:100180007702000877020008DFF80CD000F0ECF8E6
:1001900000480047D5330008F84800202C4B196868
:1001A0000868B0E8F04F80F30988BFF36F8F4FF015
:1001B000000080F3118870470000000008480068C4
:1001C000006880F308884FF0000080F3148862B65E
:1001D00061B6BFF34F8FBFF36F8F00DF00BF00BF6B
:1001E00008ED00E0DFF80C00016841F470010160E7
:1001F000704700BF88ED00E0EFF30980BFF36F8F19
:10020000134B1A681EF0100F08BF20ED108A20E96A
:10021000F04F106009B44FF0500080F31188BFF325
:100220004F8FBFF36F8F03F08BFC4FF0000080F314
:10023000118809BC19680868B0E8F04F1EF0100F6B
:1002400008BFB0EC108A80F30988BFF36F8F704746
:100250001C000020EFF3058070470000064880472F
:1002600006480047FEE7FEE7FEE7FEE7FEE7FEE79B
:10027000FEE7FEE7FEE7FEE7812E000889010008A1
:100280002DE9F05F0546002092469B4688460646CB
:10029000814640241BE0284641464746224600F05E
:1002A00053F853465A46C01A914110D31146184686
:1002B000224600F03AF82D1A67EB01084F46224615
:1002C0000120002100F031F817EB00094E41201EFB
:1002D000A4F10104DFDC484631462A464346BDE826
:1002E000F09F40EA01039B0703D009E008C9121FF1
:1002F00008C0042AFAD203E011F8013B00F8013BE0
:10030000521EF9D27047D2B201E000F8012B491E0B
:10031000FBD270470022F6E710B513460A460446A2
:100320001946FFF7F0FF204610BD202A04DB203AD3
:1003300000FA02F1002070479140C2F1200320FA38
:1003400003F3194390407047202A04DB203A21FA36
:1003500002F00021704721FA02F3D040C2F12002DE
:100360009140084319467047064C074D06E0E06887
:1003700040F0010394E8070098471034AC42F6D3EC
:10038000FFF706FF403F0008603F0008464910B5F0
:100390004A6822F440324A604A6843681A434A6015
:1003A00001684A6822F480724A6001684A680369F9
:1003B00042EA03224A6001684A6822F040724A60B9
:1003C00001684A6883681A434A6001688A6822F4AF
:1003D00000628A6001688A68C3681A438A60816A19
:1003E0006FF07062D14201688A6822F070628A60A0
:1003F00001688A680CD0836A1A438A6001688A6837
:1004000022F040528A6001688A68C36A1A4301E098
:1004100022F040528A6001688A6822F002028A60F3
:1004200001688A68037E42EA43028A6090F82010DD
:10043000002901684A680FD042F400624A600168EE
:100440004A6822F460424A6001684A68174C436A6D
:1004500004EB43331A4301E022F400624A6001686E
:10046000CA6A22F47002CA620168CA6A838B104C9D
:1004700004EB03531A43CA6201688A6822F40072CB
:100480008A6001688A6890F8303042EA43228A60C4
:1004900001688A6822F480628A6001688A6840691B
:1004A00042EA8020886010BD0023014000E0FFFF89
:1004B0000000F0FFFEE7000000B58BB0684600F0DA
:1004C00042F86946054800F0F3F90221034800F0BC
:1004D000DDF9024800F004FD0BB000BDA8030020C8
:1004E000014800F0E0BA0000A8030020A0F5007366
:1004F00040F20622053B05D0904206D1034800BFDA
:1005000000F0B9B801481838FAE77047DC44002019
:1005100000B58BB0684600F016F86946054800F053
:10052000C7F90221034800F0B1F9024800F0D8FCF5
:100530000BB000BDD0030020014800F0B4BA0000A9
:10054000D003002070470021016041608160C160DC
:10055000016101224161C0E90612C0E9082170472A
:1005600010B5124A016891420DD1114B00211C4671
:10057000A3F11C0200F023FA0D4821461C38006844
:10058000FFF7B4FF10BD0B4A9142FBD1084B00218D
:1005900024331C46A3F11C0200F011FA0448214642
:1005A00008300068FFF7CEFF10BD00000064004077
:1005B000A000002000680040014800F087BD000056
:1005C0000C060020014800F081BD0000AC050020B1
:1005D000014800F07BBD00002C070020014800F01E
:1005E00075BD00006C060020014800F06FBD0000E2
:1005F000CC06002001681823CAB2103AB2FBF3F20D
:10060000054B6FF30901032A9B5CC36500D9091DE3
:100610008165084670470000083F000810B5014694
:1006200000208B698A6A4FF0C07453B1B3F5005F44
:1006300015D072B1012A0CD0022A0AD0032A09D19E
:1006400004E01AB1012A06D0022A03D1C96AC901FD
:1006500000D5012010BDC96AA142FAD010BD002A00
:10066000F7D0012AF2D0022AF3D0032AF3D010BD2A
:10067000704772B6FEE70A8852BA42804A8852BA78
:100680008280898849BAC1807047000078B500240B
:10069000009490F83C20012A19D0012280F83C20D7
:1006A0000A6807230568092A13D9EE680A3A02EB9B
:1006B000420293409E43EE600B788A680A3B03EB4C
:1006C00043039A400368DD682A43DA6010E00220A1
:1006D00078BD2E6902EB420293409E432E610B7857
:1006E0008A6803EB43039A4003681D692A431A6131
:1006F0004A681F23072A13D205686E6B521E02EB4D
:10070000820293409E436E630B790A885B1E92B20D
:1007100003EB83039A4003685D6B2A435A6327E027
:1007200005680D2A12D22E6BD21F02EB8202934073
:100730009E432E630B790A88DB1F92B203EB83037F
:100740009A4003681D6B2A431A6311E0EE6A0D3A62
:1007500002EB820293409E43EE620B790A880D3BC6
:1007600092B203EB83039A400368DD6A2A43DA629C
:10077000164B0568144A9D4206D10D68122D03D10F
:10078000556845F48005556005689D4218D10B6891
:10079000102B01D0112B13D1536843F40003536085
:1007A000096810290CD10A490A4A0968B1FBF2F11B
:1007B00001EB8101490000E0491E00910029FBD1B5
:1007C00080F83C40002078BD00230140002001401B
:1007D0001800002040420F0070B504004FF00005E3
:1007E00003D0206C002610B107E0012070BD204628
:1007F00000F01CF8666484F83C60206CC00610D4DD
:10080000206C20F4885040F0020020642046FFF75E
:10081000BDFD6664206C20F0020040F00100206401
:1008200000E0012584F83C60284670BD10B586B014
:10083000044614216846FFF76DFD1149206888427F
:100840001CD110480021026842F4807202600068E6
:1008500000F4807005900B481438026842F00402DE
:100860000260006800F00400059001200090032061
:10087000CDE901016946044800F062FD06B010BDF3
:1008800000200140443802400008024090F8202037
:10089000012A07D0022A05D0416A41F48021416231
:1008A00001207047006842690A4342610020704796
:1008B00010B590F82020012A07D0022A05D0416AFD
:1008C00041F480214162012010BD3B48D0F8002254
:1008D00042F00102C0F80022D0F8002222F47C523B
:1008E000C0F80022D0F800224B6A42EA0322C0F886
:1008F00000220A7D02F01F0301229A40D0F81C3228
:100900009343C0F81C32CB69B3B9D0F80C3293438F
:10091000C0F80C328C894B6864F31F434C6900EBC0
:10092000C404C4F840320C890B6864F31F434C695B
:1009300000EBC404C4F84432CB69012B16D1D0F8C3
:100940000C321343C0F80C320C884B6864F31F431D
:100950004C6900EBC404C4F840320C89CB6864F3E2
:100960001F434C6900EBC404C4F844328B69002B6C
:10097000D0F804320ED01343C0F804320B69002BB8
:10098000D0F8143208D01343C0F81432096A012990
:1009900004D008E09343EFE79343F5E7D0F81C1247
:1009A0001143C0F81C12D0F8001221F00101C0F868
:1009B0000012002010BD000000640040704730B5F8
:1009C00090F82040012C05D0022C03D0416A41F45C
:1009D00080215DE00468002955D02469A40754D023
:1009E0004FF4D874056804EB01142D5915F0040573
:1009F000956005682D594ED0ED08556005682C5955
:100A000004F00204D4604FF4DA74056804EB0114B6
:100A10002D5905F00F05156105682D59C5F30725FA
:100A2000956105682C59240C54614FF4DC720468FC
:100A300002EB0112A4581C700468A458240A5C70CC
:100A40000468A458240C9C700468A258120EDA7032
:100A50004FF4DE72046802EB0112A4581C710468A2
:100A6000A458240A5C710468A458240C9C7104687E
:100A7000A258120EDA71006881B1016941F02001BB
:100A80000161002030BDE468A8E7416A41F400112B
:100A90004162012030BD6D0D1560AFE7C16841F0C6
:100AA0002001C160EDE72DE9F05F054600680024F4
:100AB0004669D0F804908768D0F80CB0D0F810A040
:100AC000D0F81880F10748D0F90714D001218160CF
:100AD000B80703D5284600F030FA0CE0780702D5B5
:100AE0004FF4006407E0380702D54FF4805402E069
:100AF000284600F021FAF80516D529684FF48070D1
:100B00008860B80503D5284600F019FA0CE078058E
:100B100002D544F4005407E0380502D544F480447B
:100B200002E0284600F00AFAF80316D529684FF4C7
:100B300080308860B80303D5284600F002FA0CE044
:100B4000780302D544F4004407E0380302D544F4A6
:100B5000803402E0284600F0F3F9300707D55FEA59
:100B6000CB6004D52968102044F40074C860700775
:100B70004FF0080707D55FEA0B7004D52868C760F7
:100B8000284600F099F9B00706D52868C0688007A4
:100B900002D0284600F092F9700607D55FEACA60D5
:100BA00004D52968102044F480640861B00607D594
:100BB0005FEA0A7004D528680761284600F08CF9BE
:100BC000F00606D528680069800702D0284600F0A4
:100BD00084F9B00308D55FEAC96005D529681020FB
:100BE0004860284600F07AF9F00307D55FEA0970FB
:100BF00004D528684760284600F0A4F9300446D59B
:100C00005FEA497040D5F00504D55FEAC87001D0AD
:100C100044F00104B00504D55FEA887001D544F0C2
:100C20000204700504D55FEA487001D544F004045D
:100C3000300529D518F0700F26D008F07000402834
:100C400015D006DC102809D020280AD0302816D16B
:100C50000AE050280ED0602811D10EE044F00804BC
:100C60000DE044F010040AE044F0200407E044F0F2
:100C7000400404E044F0800401E044F480742868F7
:100C8000816921F070018161296804204860002C8D
:100C900005D0686A204368622846FFF78FFEBDE8EA
:100CA000F09F70B5040003D094F8200010B104E068
:100CB000012070BD204600F081F82068016841F0F5
:100CC0000101016000F03AFC0546052604E000F051
:100CD00035FC401B0A2811D820684068C007F6D0B0
:100CE0002068016821F00201016000F027FC054640
:100CF0000BE000F023FC401B0A2806D9606A40F490
:100D00000030606284F82060D2E720684068800785
:100D1000EFD4207E0128206801683DD021F08001B9
:100D20000160607E01282068016838D021F0400110
:100D30000160A07E01282068016833D021F02001E5
:100D40000160E07E0128206801682ED041F010018A
:100D50000160207F01282068016829D021F0080166
:100D60000160607F01282068016824D021F004011F
:100D70000160D4E902010843D4E904121143084395
:100D80006168491E08432168C86100206062012033
:100D900084F82000002070BD41F08001C0E741F0E0
:100DA0004001C5E741F02001CAE721F01001CFE77B
:100DB00041F00801D4E741F00401D9E7F0B587B06C
:100DC000044614216846FFF7A5FA364B3648DFF88B
:100DD000D0E01968D4F800C0334A03250226092759
:100DE00010300024491CF44522D11960012907D193
:100DF000016841F000710160006800F0007005902A
:100E0000106840F0080010601068CDE9005600F04E
:100E10000800CDE9047069462448CDE9024500F098
:100E20008FFA00220521142000F014FC142032E077
:100E3000DFF87CE0F44530D1D0F800C04CF0806C95
:100E4000C0F800C0D0F800C001290CF0806CCDF8CB
:100E500014C0196007D1016841F000710160006899
:100E600000F000700590106840F0020010601068FB
:100E700002AB00F0020005906020CDE9000683E897
:100E8000B00069460B4800F05BFA002205214020C3
:100E900000F0E0FB402000F0CFFB07B0F0BD000009
:100EA000006400400800002030380240000C02407E
:100EB000006800400004024070470000044A0168D6
:100EC000914202D0034A914201D1FFF749BB7047DA
:100ED00000640040006800407047704770470000A1
:100EE00070B5044690F82000012804D0606A40F4F0
:100EF0000020606218E0022084F820002068016869
:100F000021F00101016000F019FB05460EE000BF71
:100F100000F014FB401B0A2808D9606A40F4003036
:100F20006062052084F82000012070BD20684068C0
:100F3000C007EDD1606270BD704770477047704761
:100F400070477047704770B54379012B1CD001265C
:100F500046710223037105682B6802F0100440F605
:100F6000FE72A2409343D1E900210A43A2401A43F2
:100F70002A6001680A68C023A3409A430A60067188
:100F800000214171084670BD022070BD70B504009B
:100F900003D02079002510B105E0012070BD6571F6
:100FA000204600F007F80220207125610120207101
:100FB000002070BD10B586B0044614216846FFF7C6
:100FC000A9F91149206888421CD110480021026803
:100FD00042F000520260006800F0005005900B489B
:100FE0001038026842F001020260006800F001005F
:100FF0000590102000900320CDE9010169460448C6
:1010000000F09EF906B010BD007400404038024068
:10101000000002402DE9F0410446876D00F08EFA91
:10102000064694F835000025022806D08020606529
:1010300084F834500120BDE8F0812068016821F077
:10104000160101602068416921F080014161206C36
:1010500008B9A06C20B12068016821F00801016086
:101060002068016821F0010101600CE000F066FADF
:10107000801B052807D920206065032084F83500EF
:1010800084F83450D7E720680068C007EED194F8A0
:101090005C103F208840B860012084F8350084F857
:1010A00034500020C7E790F83510022903D0802182
:1010B000416501207047052180F8351000680168FE
:1010C00021F0010101600020704700002DE9F84384
:1010D00004464FF00009CDF8009063484FF41651D4
:1010E000A56D0068B0FBF1F72E6894F85C1008203D
:1010F00000FA01F131420FD021680A6852070BD57E
:101100000A6822F004020A6094F85C108840A86023
:10111000606D40F00100606594F85C104FF00108CC
:1011200008FA01F0304208D021684969090604D55F
:10113000A860606D40F00200606594F85C100420C7
:101140008840304208D021680968890704D5A86022
:10115000606D40F00400606594F85C1010208840D9
:10116000304218D021680968090714D5A8602068A2
:101170000168490304D50068000308D5A16C07E0A5
:101180000168C90503D4016821F008010160216CE0
:1011900009B12046884794F85C10202088403042EE
:1011A00031D021680968C9062DD5A86094F83500AA
:1011B00005282068016806D0490347D50068000368
:1011C0001DD4616C1CE021F01601016020684169AA
:1011D00021F080014161206C08B9A06C20B1206829
:1011E000016821F00801016094F85C103F208840FC
:1011F000A86084F8358084F83490216D1FE0E16B9D
:1012000009B120468847606D00282BD0606DC0076B
:1012100014D0052084F835002068016821F0010110
:1012200001600098401C0090B84203D82068006814
:10123000C007F6D184F8358084F83490E16C002939
:1012400010D001B02046BDE8F04308470168C90549
:10125000D5D4016821F01001016084F8358084F84C
:101260003490CCE7BDE8F883180000202DE9F04168
:10127000044600F063F906465CB1022084F83500AC
:10128000002584F834502068016821F001010160D4
:101290000DE00120BDE8F08100F050F9801B052829
:1012A00005D920206065032084F83500F2E7206826
:1012B0000068C007F0D12268116820480140D4E9D5
:1012C00001031843D4E903363343184363691843D1
:1012D000A3691843E3691843236A18430843616A02
:1012E000042903D1D4E90B13194308431060206883
:1012F0004069666A20F0070130460E430127042842
:101300000CD1A06A0643E06A40B12046FFF786F997
:1013100020B14020606584F83570BAE720684661E6
:101320002046FFF767F994F85C203F2191408160E7
:10133000656584F835700020ACE700003F8010F050
:101340002DE9F84FDFF8BCA1002201250AF1040BBA
:1013500003264FF00F090BF1040E00BF0B6805FACE
:1013600002F42340A34270D10F7907F00307012F45
:1013700001D0022F16D187684FEA420806FA08FC0E
:1013800027EA0C07D1F80CC00CFA08FC4CEA070C51
:10139000C0F808C04768A7430C79C4F30014944010
:1013A0003C4344600C79E443A4070AD0C4684FEA84
:1013B000420C06FA0CF7BC438F6807FA0CF7274378
:1013C000C7600C7904F00304022C12D1D40800EB9E
:1013D000840CDCF820405707FF0E09FA07F824EACE
:1013E0000804D1F8108008FA07F848EA0408CCF895
:1013F000208004684FEA420C06FA0CF7BC430F79D0
:1014000007F0030707FA0CF7274307604C6814F44A
:10141000403F70D03C4C276847F4804727602468E1
:1014200022F0030704F480440094384C07EB040CCA
:10143000DCF8084897074FEA177809FA08F7BC4321
:10144000334FB84202D1002724E054E0314FB84274
:1014500001D101271EE0304FB84201D1022719E027
:101460002E4FB84201D1032714E02D4FB84201D1CD
:1014700004270FE02B4FB84201D105270AE02A4F7D
:10148000B84201D1062705E0284FB84201D107270D
:1014900000E0082707FA08F72743CCF80878DAF8BD
:1014A00000405746D1F804C09C435FEACC3C00D5CD
:1014B0001C433C60DBF800405F46D1F804C09C430D
:1014C0005FEA8C3C00D51C433C60DEF80040774668
:1014D000D1F804C09C435FEACC2C00D51C433C608F
:1014E000084F0C373C68D1F804C09C435FEA8C2C51
:1014F00000D51C433C60521C102AFFF42FAFBDE8FE
:10150000F88F0000003C01404438024000300140A8
:10151000000002400004024000080240000C0240AB
:10152000001002400014024000180240001C02405B
:101530000AB1816170470904FBE700000148806837
:10154000704700000C0000200248816802781144B6
:10155000816070470C0000200B4810B5016841F411
:1015600000710160016841F480610160016841F42B
:1015700080710160032000F08DF80F2000F006F864
:1015800000F03EF8002010BD003C024010B50146BE
:1015900088B000221C2000F05DF81C2000F04CF800
:1015A00014480024016841F001010160006805A9A8
:1015B00000F001000690684600F018F900F036F9D6
:1015C0000D494000B0FBF1F10C484FF08042491E3C
:1015D000026040F2E732C0E90324C0E9011400F0E0
:1015E000A1FB10B1012008B010BD044800F0EAFBD7
:1015F000F9E700004038024040420F008C0700200D
:101600000C4882B0016841F480410160006800F438
:10161000804000900748001F016841F08051016040
:101620000068002200F0805000900F21901E02B050
:1016300000F010B844380240002809DB00F01F0217
:10164000012191404009800000F1E020C0F8001124
:1016500070470000F0B40E4B1B680C46C3F3022326
:10166000C3F10705042D00D90425191D072901D24E
:10167000002300E0DB1E012606FA05F1491E214089
:1016800099409E40761E16403143F0BC01F083BE67
:101690000CED00E0064900F0070208684FF6FF0372
:1016A000184040EA0220034A1043086070470000D7
:1016B0000CED00E00000FA052DE9F0470E460500AC
:1016C00065D0DFF81481D8F80000F7B200F0070009
:1016D000B04207D288F80070D8F8000000F0070088
:1016E000B04254D128683D4C810712D5400703D53C
:1016F000206840F4E05020602878000703D5206877
:1017000040F4604020602068A96820F0F0000843A1
:1017100020602878C0072DD0304968680839012832
:1017200012D0022813D0032811D009688907002994
:101730002DDA216821F0030101432160FFF7FEFE4D
:10174000814641F2883A0EE009688903EFE70968AB
:101750008901ECE7FFF7F2FEA0EB0901514502D940
:101760000320BDE8F0872068696800F00C00B0EB4A
:10177000810FEFD1D8F80010404601F00701B142C7
:1017800007D90770006800F00700B04201D00120BF
:10179000E7E72878400705D52068E96820F4E0509D
:1017A000084320602878000706D52068296920F4BE
:1017B000604040EAC100206000F058F82168084A03
:1017C000C1F30311515CC84006490860064800682F
:1017D000FFF7DCFE0020C4E7003C0240083802406E
:1017E000103F000818000020100000200F220260A7
:1017F0000C4A136803F003034360136803F0F0031B
:101800008360136803F4E053C36012684FF4E0533D
:1018100003EAD20202610448006800F00700086091
:101820007047000008380240003C02400448054967
:1018300000680968044AC1F38221515CC8407047BE
:101840001800002008380240203F000804480549DD
:1018500000680968044AC1F34231515CC8407047CE
:101860001800002008380240203F0008154810B535
:10187000006810F00C02144813D01449042A0FD049
:10188000082A0ED10F4C241F2268236802F03F0261
:101890005B0207D52068C0F38810A0FB010106E0B9
:1018A000084610BD2168C1F38811A1FB0001002387
:1018B000FEF7E6FC2168C1F30141491C4900B0FB79
:1018C000F1F010BD083802400024F40040787D019A
:1018D0002DE9F84F04006ED02078DFF84C93C00754
:1018E000A9F104054AD009F104000168C1F381019E
:1018F000012908D00068C0F3810002280AD1D9F874
:101900000000400206D52868800337D560680028AB
:10191000E1D033E06068B0F5803F10D0B0F5A02F83
:10192000286810D020F480302860286820F48020B7
:1019300028606068A8B1FFF701FE06460DE0286840
:1019400040F48030F4E740F480202860F7E700BFDF
:10195000FFF7F4FD801B642873D828688003F7D54F
:101960000CE0FFF7EBFD064605E000BFFFF7E6FDE4
:10197000801B6428F0D828688003F7D42078DFF82B
:10198000AC8280074FF0000A3ED5A748001D0168D1
:1019900011F00C0F08D00068C0F3810002280BD1B1
:1019A000D9F80000400207D42868800716D5E068FF
:1019B000012800D112E033E1E068B8B10120C8F895
:1019C0000000FFF7BBFD064605E000BFFFF7B6FDD0
:1019D000801B0228C0D828688007F7D528682169AD
:1019E00020F0F80040EAC10028600DE0C8F800A02F
:1019F000FFF7A4FD064604E0FFF7A0FD801B0228C8
:101A00001FD828688007F7D42078000722D5864F92
:101A100087486169703771B101210160FFF78EFD60
:101A2000064604E0FFF78AFD801B022809D83868C3
:101A30008007F7D50EE0C0F800A0FFF77FFD06464F
:101A400005E082E0FFF77AFD801B02287DD8386828
:101A50008007F7D42078400768D5DFF8CCB100279D
:101A60000BF13C0BDBF80000C0000BD4DBF80010DE
:101A700041F08051CBF80010DBF80000012700F0A6
:101A8000805000906B4E3068C00510D4306840F430
:101A900080703060FFF752FD009005E0FFF74EFDCB
:101AA0000099401A022850D83068C005F6D55E4E1D
:101AB000A0686C3601280FD00528306810D020F0BF
:101AC00001003060306820F004003060A068B8B1D8
:101AD000FFF734FD00900FE0306840F00100F4E7BC
:101AE00040F004003060F7E7FFF728FD0099411A45
:101AF00041F28830814266D830688007F4D50EE024
:101B0000FFF71CFD009007E0FFF718FD0099411A50
:101B100041F28830814256D830688007F4D42FB122
:101B2000DBF8001021F08051CBF80010A069C8B399
:101B30003D49091D0968C1F3810102294AD00228E3
:101B4000504607D0C8F8600000E03CE0FFF7F6FC24
:101B500004463BE04746C8F86000FFF7EFFC064646
:101B600005E000BFFFF7EAFC801B02282BD828689D
:101B70008001F7D4D4E907010843A16A2E4A490835
:101B800002EB0141626A41EA8211084394F82C1089
:101B900040EA0161C9F8001001203866FFF7CEFC69
:101BA000044606E03EE000BFFFF7C8FC001B022829
:101BB00009D828688001F7D534E000BFFFF7BEFCE4
:101BC000001B022802D90320BDE8F88F2868800195
:101BD000F4D427E00128F7D0D9F80000E26900F436
:101BE000800191421CD1226A00F03F01914217D13D
:101BF00047F6C071626A0140B1EB821F10D1A26A40
:101C00004FF0FF3300F4403103EB5202B1EB024FCF
:101C100006D194F82C1000F07060B0EB016F01D089
:101C20000120D1E70020CFE70438024000004742FE
:101C3000800E4742007000400000FFFF7047704771
:101C400010B590F83C20012A22D0012280F83C20D7
:101C5000CA688C6822F4407222434C6822F4806285
:101C600022430C6822F4006222430C6922F4805261
:101C700022434C6922F400522243C969002322F412
:101C800080420A4301684A6480F83C30002010BD5D
:101C9000022010BD70B590F83C20012A32D00124FA
:101CA00080F83C40022280F83D2003685A689D6815
:101CB00022F070060A6832435A60134B02689A4257
:101CC00014D0B2F1804F11D0104B9A420ED0104B6D
:101CD0009A420BD00F4B9A4208D00F4B9A4205D034
:101CE0000E4B9A4202D00E4B9A4204D1496825F01D
:101CF00080031943916080F83D40002180F83C103A
:101D0000084670BD022070BD000001400004004084
:101D100000080040000C0040000401400040014069
:101D20000018004010B5040003D094F83D0010B135
:101D300007E0012010BD002084F83C00204600F0A0
:101D40001FF8022084F83D00211D206801F0A6F84C
:101D5000012084F8460084F83E0084F83F0084F8AF
:101D6000400084F8410084F8420084F8430084F87D
:101D7000440084F8450084F83D00002010BD0000B8
:101D800008B500680C49884208D10C48016841F048
:101D900001010160006800F001000BE00849884281
:101DA00009D10648001F016841F002010160006886
:101DB00000F00200009008BD0000014044380240DD
:101DC0000004004090F83D10012901D00120704727
:101DD000022180F83D100168CA6842F00102CA6021
:101DE00000681149884214D0B0F1804F11D00F49DA
:101DF00088420ED00E4988420BD00E49884208D046
:101E00000D49884205D00D49884202D00C498842CC
:101E100004D1816801F00701062903D0016841F06F
:101E200001010160002070470000014000040040F3
:101E300000080040000C0040000401400040014048
:101E40000018004070B5044690F83C0000250128B9
:101E500017D0012684F83C60022084F83D002068F9
:101E6000826822F0770222F47F428260086850285C
:101E700038D00DDC20284FD005DC90B3102811D1CC
:101E80004AE0022070BD302846D040280AD13BE00D
:101E900060282FD070280DD0B0F5805F03D0B0F54A
:101EA000005F12D0012584F83D60002084F83C00DA
:101EB000284670BDCB68D1E90121206801F052F8B5
:101EC0002068816841F0770109E0CB68D1E9012100
:101ED000206801F047F82068816841F48041816002
:101EE000E1E719E0CA684968206801F00FF950215C
:101EF000206806E0CA684968206801F018F9602186
:101F0000206801F039F8CEE7CA684968206801F016
:101F1000FDF840212068F4E7226801461046F0E70A
:101F2000704770B50446006801694FF00005C94369
:101F3000890715D4C168C943890711D4E91E016115
:101F400001202077206880698007204602D0FFF7B3
:101F5000E7FF04E000F0DAF8204600F06CF925779E
:101F600020680169C943490717D4C168C9434907B3
:101F700013D46FF00401016102202077206880698A
:101F800010F4407F204602D0FFF7CAFF04E000F0C3
:101F9000BDF8204600F04FF9257720680169C94354
:101FA000090716D4C168C943090712D46FF00801A4
:101FB0000161042020772068C0698007204602D094
:101FC000FFF7AEFF04E000F0A1F8204600F033F97F
:101FD000257720680169C943C90617D4C168C94378
:101FE000C90613D46FF01001016108202077206822
:101FF000C06910F4407F204602D0FFF791FF04E053
:1020000000F084F8204600F016F925772068016971
:10201000C943C90708D1C168C943C90704D1891E8A
:102020000161204600F008F920680169C9430906EA
:1020300009D4C168C943090605D46FF08001016164
:102040002046FFF7FBFD20680169C943490609D412
:10205000C168C943490605D46FF0400101612046BB
:1020600000F0F1F820680169C94389060BD4C16802
:10207000C943890607D46FF0200101612046BDE8FD
:102080007040FFF7DCBD70BD10B586B0044614216A
:102090006846FEF73FF92368174C002117480222D3
:1020A000A34211D1036843F010030360006800F0FD
:1020B0001000059090020090CDE901210120CDE9AA
:1020C000031069460E4812E00E4CA34211D103687A
:1020D00043F001030360006800F001000590C02098
:1020E0000090CDE90121CDE9031269460648FFF7CA
:1020F00027F906B010BD0000000001403038024052
:10210000001002400004004000000240704770B51B
:10211000044690F83C0000260D4601280FD001200F
:1021200084F83C006AB1042A1DD0082A2FD00C2A5A
:102130003FD00126002084F83C00304670BD0220CC
:1021400070BD206800F020FF2068816941F008011F
:1021500081612068816921F00401816120688169C1
:102160002A69114311E0206800F03EFF2068816970
:1021700041F4006181612068816921F4806181619D
:10218000206881692A6941EA02218161D2E72068D9
:1021900000F060FF2068C16941F00801C16120685A
:1021A000C16921F00401C1612068C1692A69114334
:1021B00011E0206800F082FF2068C16941F40061ED
:1021C000C1612068C16921F48061C1612068C16971
:1021D0002A6941EA0221C161ACE710B5040003D0CD
:1021E00094F83D0010B107E0012010BD002084F8F4
:1021F0003C00204600F01EF8022084F83D00211D1E
:10220000206800F04BFE012084F8460084F83E0070
:1022100084F83F0084F8400084F8410084F84200CC
:1022200084F8430084F8440084F8450084F83D00B5
:10223000002010BD704770470068B0F1804F01D199
:10224000FFF782B97047704770477047F8B501686B
:1022500004460868CA684B6910F00F0F4FF000057C
:1022600059D003F0010602F49077374365D0C107D7
:1022700005D0D10503D5216C41F00101216441074E
:1022800005D5D90703D0216C41F0020121648107F3
:1022900005D5D90703D0216C41F004012164010761
:1022A00007D502F02001314303D0216C41F0080131
:1022B0002164216C00293AD0800604D5900602D50D
:1022C000204600F075FF20684069216CC0F3801043
:1022D000090700D460B3204600F043FF206840693E
:1022E000400621D52068143050E8001F21F040013D
:1022F00040E80012002AF5D1A06BA8B16C49016535
:10230000A06BFEF7D0FE002811D0A06B016D01B0CC
:10231000BDE8F040084783060FD593060DD520464B
:10232000BDE8F84000F044BF2046FFF78EFFF8BD3F
:102330002046FFF78AFF2564F8BD266B2023012E77
:1023400079D1C60677D5D60675D508684868009055
:102350004869400640D5A16B086840680004000C3D
:10236000EAD0A28D8242E7D9E085C869B0F5807FC6
:102370002DD020680C3050E8001F21F4807140E817
:102380000012002AF5D12068143050E8001F21F017
:10239000010140E80012002AF5D12068143050E80D
:1023A000001F21F0400140E80012002AF5D184F816
:1023B0003E30256320680C3050E8001F21F01001EA
:1023C00040E80012002AF5D1A06BFEF723FEA08D95
:1023D000E18D401A81B229E0A08DE18D401A81B2D1
:1023E000E08D0028A8D00029A6D020680C3050E845
:1023F000002F22F4907240E80026002EF5D12068CC
:10240000143050E8002F22F0010240E80026002E90
:10241000F5D184F83E30256320680C3050E8002F59
:1024200022F0100240E80023002BF5D12046FFF7F0
:102430000BFFF8BDFFE705062BD5150629D594F847
:102440003D002128F5D1A068B0F5805F01D1206959
:10245000B0B1206A411C2162216800784860E08C9C
:10246000401E0004000CE084E3D12068C16821F024
:102470008001C1602068C16841F04001C160D8E7B7
:10248000206A0088C0F308004860206A801C20622F
:10249000E5E74006CDD55006CBD5CA68204622F0E8
:1024A0004002CA6084F83D3000F0C1F9C1E7000085
:1024B0005331000870B5040004D094F83D000025A5
:1024C00010B106E0012070BD84F83C50204600F0B9
:1024D00023F8242084F83D002068C16821F40051CD
:1024E000C160204600F0C4FE2068016921F49041DB
:1024F00001612068416921F02A0141612068C168B9
:1025000041F40051C1602564202084F83D0084F826
:102510003E00002070BD00002DE9F04F87B0054659
:1025200014216846FDF7F6FEB548DFF8D082103872
:102530000222D5F800C0B24B0321DFF8C8A2002464
:10254000960607154FF0010E4FF00809C44539D122
:10255000D3F800C04CF4002CC3F800C01B6803F48F
:1025600000230593036843F001030360006800F053
:10257000010005908DE80640CDE9031969465046F3
:10258000FEF7DEFEDFF884829F494046C8F800105F
:10259000C0E90164C0E90347C8F81440C8F818400E
:1025A000C8F81C40C8F82040C8F82440FEF75EFE7A
:1025B00008B1FEF75EF8C5F83880C8F8385007B0A3
:1025C000BDE8F08FDFF84882C4456FD1D3F800C072
:1025D0004CF4801CC3F800C01B6803F480130593FF
:1025E000036843F004030360036803F004030593E6
:1025F000036843F00803036000688A4600F008009F
:1026000005904FF48050CDE90002CDE902EA9346EF
:10261000F0466946CDF810907E48FEF791FE042002
:10262000CDE9000BCDE9028A6946CDF810907A48D1
:10263000FEF786FEDFF8D4A173490AF1600A30394B
:102640005046CAF80010C0E90164C0E90347B0462B
:10265000CAF814404FF44036CAF81840CAE9074691
:10266000B946CAF82440FEF701FE08B1FEF701F8AA
:10267000664F6548C5F838A0C0377830CAF838507A
:10268000E7E802084020A7E81102604847F814492B
:10269000C030BC61C7E907467C62FEF7E7FD08B1C0
:1026A000FDF7E7FF6F63BD6389E7FFE7DFF86C8144
:1026B0004FF0070BC44543D1514B1B1DD3F800C04D
:1026C0004CF0100CC3F800C01B6803F01003059316
:1026D000036843F0010303600068CDE9024100F0A4
:1026E000010005904FF4C060CDE90002CDF810B0B4
:1026F00069465046FEF724FEDFF8288148494046E7
:10270000C8F80010C0E90164C0E90347C8F81440E4
:102710004FF40031C8F81840C8E90741C8F8244010
:10272000FEF7A4FD08B1FDF7A4FFC5F8388000222C
:1027300005212520C8F83850FEF78CFF25205AE0E7
:10274000DFF8E480C445AFD1D3F800C04CF4003CBE
:10275000C3F800C01B6803F400330593036843F01B
:1027600001030360036803F001030593036843F06A
:10277000080303600068CDF8009000F00800884668
:10278000CDE904B0CDE90248914669460192504630
:10279000FEF7D6FD2020CDE900090DF1080C6946B1
:1027A0008CE810091C48FEF7CBFDDFF8788016494D
:1027B00008F1600848314046C8F80010C0E90164DB
:1027C000C0E90347C8F814404FF44031C8F8184036
:1027D000C8E90741C8F82440FEF748FD08B1FDF7F5
:1027E00048FFC5F83880002205212620C8F8385057
:1027F000FEF730FF2620FEF71FFFE0E6004C00400A
:10280000403802400000024040600240AC05002019
:102810000050004000080240000C0240001001403F
:1028200040640240CC0600200044004070477047DE
:10283000FEE700007FB5002415480094019402943F
:102840001249039401604FF48031C0E9011404611E
:10285000047680F820400F49C0E90A140125C561BB
:10286000C46080F830404561FDF7B6FF08B1FDF760
:1028700000FF0A20CDE90005694602940448FDF7EF
:1028800005FF002801D0FDF7F4FE7FBD00200140C8
:10289000600300200100000F104810B50E490160D0
:1028A0000321416000214FF400228160C0E903123E
:1028B0004FF440124261017641768176C17601770C
:1028C00001214177FEF7EDF9002803D0BDE8104063
:1028D000FDF7CFBE10BD000000640040A80300203B
:1028E000104810B50E4901600321416000214FF4EA
:1028F00000228160C0E903124FF440124261017668
:1029000041768176C176017701214177FEF7C9F9D9
:10291000002803D0BDE81040FDF7ABBE10BD00009D
:1029200000680040D00300201CB500240C4900942E
:102930000A48019408600846FEF728FB08B1FDF735
:1029400098FE0220CDE90040002269460448FEF7C7
:10295000FAFA002801D0FDF78CFE1CBD007400407F
:10296000F80300201D4808B5016841F4001101601A
:10297000016801F400110091016841F480010160D7
:102980000068002200F48000009005210B20FEF773
:1029900061FE0B20FEF750FE002205210D20FEF700
:1029A00059FE0D20FEF748FE002205211020FEF7FB
:1029B00051FE1020FEF740FE002205212F20FEF7D9
:1029C00049FE2F20FEF738FE002205213A20FEF7AF
:1029D00041FEBDE808403A20FEF72EBE30380240E6
:1029E00010B58EB01C220B496846FDF77AFC002119
:1029F000684600F024FD084C06491C2220601C316A
:102A000007A8FDF76EFC002107A800F018FD606024
:102A10000EB010BDD03E0008000000202DE9F04FA0
:102A200087B014216846FDF775FC40480024016812
:102A300041F004010160016801F0040105910168A1
:102A400041F080010160016801F080010591016899
:102A500041F001010160016801F001010591016887
:102A600041F010010160016801F010010591016859
:102A700041F002010160016801F002010591016865
:102A800041F0080101600068DFF8A48000F0080050
:102A9000059001224FF4C0414046FEF749FDDFF8A2
:102AA0009490002224214846FEF742FDDFF888A0DA
:102AB0004FF42046012231465046FEF739FDDFF83B
:102AC0007CB04FF40077002239465846FEF730FDBF
:102AD00000224FF440614046FEF72AFD4FF4D840F3
:102AE00000900125CDE90154694640460394FEF764
:102AF00027FC24200090CDE9015469464846039400
:102B0000FEF71EFC0320CDE90240CDE900656946D1
:102B10005046FEF715FC0097CDE90154694658462A
:102B20000394FEF70DFC07B0BDE8F08F303802408B
:102B3000000802400000024000040240000C024075
:102B400010B596B000240F9410941194129413941D
:102B50001C2108A81494FDF7DDFB20216846FDF731
:102B6000D9FB29482749016040F61F51C0E90114EB
:102B700040F2E731C0E9031444618461FFF7D2F801
:102B800008B1FDF776FD4FF480500F900FA91E4855
:102B9000FFF758F908B1FDF76CFD1B48FFF71DFB67
:102BA00008B1FDF766FD139413A917481494FFF7B5
:102BB00071F808B1FDF75DFD6020CDE908040A94C5
:102BC0000B940C940D94042208A90F480E94FFF75F
:102BD0009EFA08B1FDF74DFD00944FF40050CDE989
:102BE0000440029401940394694607480794FFF750
:102BF00027F808B1FDF73DFD0348FFF745FA16B089
:102C000010BD0000000001400C04002010B58EB083
:102C100000240794089409940A940B941C21684694
:102C20000C94FDF777FB2248204901605321C0E94D
:102C3000011440F6C311C0E903148461FFF772F870
:102C400008B1FDF716FD4FF48050079007A918480A
:102C5000FFF7F8F808B1FDF70CFD1548FFF7BDFACE
:102C600008B1FDF706FD0B940BA911480C94FFF772
:102C700011F808B1FDF7FDFC6020CDE900040294D5
:102C8000002269460A480494FFF741FA08B1FDF7AB
:102C9000F0FC042269460648FFF739FA08B1FDF74F
:102CA000E8FC0348FFF7F0F90EB010BD0004004047
:102CB000540400200C4810B50A4901604FF4E1317A
:102CC0004160002181600C22C160C0E90412816171
:102CD000C161FFF7EFFB002803D0BDE81040FDF70E
:102CE000C8BC10BD004C00409C0400200C4810B52E
:102CF0000A4901604FF4E1314160002181600C22FA
:102D0000C160C0E904128161C161FFF7D3FB0028F3
:102D100003D0BDE81040FDF7ACBC10BD0050004032
:102D2000E00400200C4810B50A4901604FF4E1317D
:102D30004160002181600C22C160C0E90412816100
:102D4000C161FFF7B7FB002803D0BDE81040FDF7D5
:102D500090BC10BD00100140240500200C4810B5A7
:102D60000A4901600B494160002181600C22C16069
:102D7000C0E904128161C161FFF79CFB002803D008
:102D8000BDE81040FDF775BC10BD000000440040D8
:102D900068050020A0860100FEE710B5FDF78CFB5A
:102DA000BDE81040FDF7B4BBFEE7012000F03BFB9F
:102DB000FBE7012000F037FBFBE7000010B55020D7
:102DC00080F31188BFF34F8FBFF36F8F00F0B8FF10
:102DD00018B104494FF080500860002080F311883A
:102DE00010BD000004ED00E030B593B0302168461E
:102DF000FDF790FA14210CA8FDF78CFA1E48002567
:102E0000016841F080510160006800F0805011902D
:102E10001A48016841F4804101600068022400F40E
:102E20008040119001200090000401908001CDE9C4
:102E30000640192008904FF4A870CDE90904042039
:102E40000B906846FEF744FD08B172B6FEE70CA988
:102E50000F2081E831004FF4A0500F904FF48050C4
:102E6000109005210CA8FEF727FC002801D072B6AF
:102E7000FEE713B030BD0000403802400070004053
:102E80000248016841F470010160704788ED00E07C
:102E90000148FFF746B800008C070020F0B5026833
:102EA000254C264D264E274F274B4FF0804CA042F5
:102EB00009D0604507D0A84205D0B04203D0B8423F
:102EC00001D0984204D122F0700E4A6842EA0E0204
:102ED000A0421BD0604519D0A84217D0B04215D0EF
:102EE000B84213D0984211D0184DA8420ED0184DB8
:102EF000A8420BD0174DA84208D0174DA84205D0C4
:102F0000164DA84202D0164DA84203D122F44075B6
:102F1000CA682A434D6922F080022A4302608A6807
:102F2000C2620A688262A04201D0984201D1096956
:102F3000016301214161F0BD000001400004004037
:102F400000080040000C0040000401400040014027
:102F5000004401400048014000180040001C0040AF
:102F60000020004010B5846842EA032224F47F4424
:102F70000A432243826010BD826822F070020A4335
:102F800042F0070181607047F0B5026A22F0010249
:102F90000262036A42688469124E24F073050C6869
:102FA0002C4323F002058B682B430D4DA84201D022
:102FB000B04205D123F00807CB683B4323F004035C
:102FC000A84201D0B04205D14D6922F440721543A8
:102FD0008A692A4342608461496841630362F0BDA3
:102FE0000000014000040140F0B5026A22F0100226
:102FF0000262026A436884690D6824F4E64444EA84
:1030000005248D6822F0200242EA05120F4D104E71
:10301000A84201D0B04206D1CF6822F0800242EA35
:10302000071222F04002A84201D0B04207D14D69F8
:1030300023F4406343EA85038D6943EA85034360D3
:103040008461496881630262F0BD000000000140B4
:1030500000040140F0B5026A22F480720262026A42
:103060004368C46922F4007224F073050C68124EA0
:103070002C438D6842EA05220E4DA84201D0B04291
:1030800006D1CF6822F4006242EA072222F480626D
:10309000A84201D0B04207D14D6923F4405343EA1E
:1030A00005138D6943EA05134360C4614968C16330
:1030B0000262F0BD000001400004014030B5026A28
:1030C00022F480520262046A4268C3690D6823F4E4
:1030D000E64343EA05238D6824F4005444EA0534AA
:1030E000084DA84202D0084DA84204D14D6922F4EF
:1030F000804242EA85124260C36149680164046209
:1031000030BD0000000001400004014010B5036A1A
:10311000046A24F001040462846924F0F00444EA9F
:10312000021423F00A020A438461026210BD10B542
:10313000036A23F0100303628369046A23F4704373
:1031400043EA023224F0A00343EA011182610162E2
:1031500010BD10B5806B0021C185C184FFF775F8E3
:1031600010BD01680C3151E8002F22F4907241E843
:103170000023002BF5D10168143151E8002F22F013
:10318000010241E80023002BF5D1016B012909D18F
:1031900001680C3151E8002F22F0100241E80023B1
:1031A000002BF5D1202180F83E10002101637047EB
:1031B00008B590F83E10222901D0022008BD82688F
:1031C0004FF480539A4201D1016921B1816A9A4238
:1031D0001BD04AB10AE00268816A5268C2F3080251
:1031E0000A80816A891C08E0026972B1026852682B
:1031F00002F07F020A70816A491C8162C18D491EFA
:103200000904090CC18503D019E002685268F1E78E
:103210000168CA6822F02002CA600168CA6822F404
:103220008072CA6001684A6922F001024A61202165
:1032300080F83E10016B012903D0FFF7F7FA002058
:1032400008BD0021016301680C3151E8002F22F014
:10325000100241E80023002BF5D101680A68D2066C
:1032600002D50A6849680091818DFEF7EDFFE6E717
:1032700070B5044600680169E26821F440511143C9
:1032800001612169A068E26908436169114308434B
:103290002168CA6849F20C639A430243CA602068F5
:1032A0004169A26921F440711143416131492068AB
:1032B000884202D03049884202D1FEF7C7FA01E0C5
:1032C000FEF7B4FAE2690023192164253226B2F52B
:1032D000004F626828D0A0FB0101930F9200FCF719
:1032E000CFFF0146B0FBF5F06FF01802504301EB41
:1032F000800006EB0010B0FBF5F000F0F002B1FB2F
:10330000F5F002EB0012B1FBF5F06FF01803584333
:1033100001EB800006EB0010B0FBF5F000F00F00B1
:1033200021681044886070BDA0FB010192185B41C8
:10333000FCF7A6FF0146B0FBF5F00201B1FBF5F08A
:103340006FF01803584301EB800006EBC000B0FBA0
:10335000F5F000F0F80002EB4002B1FBF5F0584345
:1033600001EB800006EBC000B0FBF5F000F00700B9
:10337000D6E7000000100140001401400148FEF7AC
:1033800065BF0000240500200148FEF75FBF000074
:1033900068050020FEE70907090E002804DB00F19C
:1033A000E02080F80014704700F00F0000F1E020EA
:1033B00080F8141D704702E008C8121F08C1002AD7
:1033C000FAD170477047002001E001C1121F002AA6
:1033D000FBD17047FEF7C0F8FFF706FDFFF71EFBB5
:1033E000FFF7C0FAFFF726FAFFF756FAFFF778FA69
:1033F000FFF79AFAFFF7A4FBFFF708FCFFF75AFC68
:10340000FFF774FCFFF78EFCFFF7A8FCFFF7C5FC85
:10341000FFF7E6FA00F00EF8FEE7014600208429E7
:1034200000D0C81C704710B500B9012000F024FB83
:10343000002010BD10B500F045FB002010BD7FB589
:103440000D4604464169B0F9080081B1A16971B126
:10345000FFF7E3FFD4E905128DE80700D4E9001077
:103460002B46226900F041FC039004B070BDFFF7C9
:10347000D4FF03A9CDE90001208A2B4682B2D4E90A
:10348000001000F005FC012801D00020EDE70398B2
:10349000EBE700002DE9F041184C0F460546E668C1
:1034A0002068001D00F020FA38B9206890F82C1030
:1034B00001208840216981432161681C07D137B10F
:1034C0002168BDE8F0410E48091D00F051BA20689E
:1034D0003544B5424560216805D2A06BBDE8F04196
:1034E000091D00F02DBA606B091D00F029FAA06AD1
:1034F000854200D2A562BDE8F08100001C000020DA
:10350000B00800202DE9F041054600F03DFA2E4CB0
:10351000A068401CA06020682C4F10B1606940B3C7
:103520002DE02560A068012829D1002606EB860041
:1035300007EB800000F0F6F9761C072EF6D323483F
:103540008C3000F0EFF92148A03000F0EBF91F4873
:10355000B43000F0E7F91D48C83000F0E3F91B482B
:10356000DC3000F0DFF919488C3060631430A06360
:1035700005E02068E96AC06A884200D82560606A70
:10358000401C6062E96A0120226988401043206182
:1035900001EB810007EB8000291D00F0E9F900F044
:1035A00013FA606900280CD02068E96AC06A884272
:1035B00007D207494FF080500860BFF34F8FBFF329
:1035C0006F8FBDE8F08100001C000020D4070020B0
:1035D00004ED00E010B5044690F8510058B1012800
:1035E0000CD002280FD0502080F31188BFF34F8FEA
:1035F000BFF36F8FFEE7206B00F0FAF92046BDE8BD
:10360000104000F0F5B910BD10484FF4705142075A
:1036100006D0C01D0D4920F00700411AC1F57051B8
:103620000B4A00230144C2E900030839183A21F08B
:10363000070111604B600B600B1AC0E90013936027
:103640004FF000405360506170470000C4080020F4
:1036500070000020144E154CA6F1C8074FF080589A
:10366000DFF84C9012E000BF00F08EF9F068C568FA
:10367000281D00F039F9A068401EA0606068401E57
:10368000606000F0A1F92846FFF7A4FF60680028F9
:10369000EAD138680128F9D9C9F80080BFF34F8F03
:1036A000BFF36F8FF2E700009C0800201C00002091
:1036B00004ED00E02DE9F0479A46DDE909848146F2
:1036C0006FF00303206B03EB82021044089E20F08E
:1036D0000707780707D0502080F31188BFF34F8F7A
:1036E000BFF36F8FFEE7002561B1002023180A5C4D
:1036F00083F834200A5C12B1401C1028F6D384F8F9
:10370000435001E084F83450072E00D30626E662C9
:10371000C4E91165201D00F010F904F1180000F053
:103720000CF92461C6F107006462A061E56484F8C5
:10373000505052464946384600F0C0F82060B8F173
:10374000000F01D0C8F80040BDE8F08730B511493E
:1037500000E011460A688242FBD34B685C18844241
:1037600003D1406818444860084643681C189442D6
:1037700009D1084C183C2468A24209D052681A4466
:1037800042600A6812680260814200D0086030BD61
:103790000460F9E7700000200648416B096829B110
:1037A000416BC968C9684968816270474FF0FF3151
:1037B000FAE700001C00002008484068401C4FF059
:1037C000500080F3118804D0BFF34F8FBFF36F8F89
:1037D000FEE7BFF34F8FBFF36F8FFEE77800002047
:1037E0002DE9F0410546002700F0A2F9324E30687D
:1037F00008B9FFF709FF706905424ED1C5B3083516
:1038000068070ED005F00700C0F1080005446807FE
:1038100007D0502080F31188BFF34F8FBFF36F8F15
:10382000FEE72DB37068854237D82348183001462B
:103830000C6801E020460C466168A94202D221686A
:103840000029F7D131688C4227D0076821680160D0
:1038500060680837411B10290FD96019420708D04A
:10386000502080F31188BFF34F8FBFF36F8FFEE7B7
:1038700013E041606560FFF769FF61687068401A96
:103880007060B268904200D2B0607069014300205D
:10389000C4E90001F068401CF06000F0B7FA780756
:1038A00007D0502080F31188BFF34F8FBFF36F8F85
:1038B000FEE73846BDE8F0815800002010B5031F30
:1038C0004FF080741C601B1F21F001011960191F4B
:1038D000044B0B6014390A60091F6FF00202443870
:1038E0000A6010BDB9370008D0E9013201699A6059
:1038F000D0E901235A604A68824201D182684A6055
:10390000002202610868401E0860086870470000D5
:10391000034B036003F1540008608020106070477F
:103920000C01002000F108014FF0FF32C0E9011244
:10393000C160016100210160704700210161704791
:1039400030B50B685A1C02D000F1080202E002698F
:1039500004E02246546825689D42FAD953684B60BA
:1039600099608A60516008610168491C016030BD3E
:1039700042684A6093688B609368596091600861FF
:103980000168491C01607047502080F31188BFF323
:103990004F8FBFF36F8F0A494868401C4860012869
:1039A0000CD10848006810F0FF0F07D0502080F3BA
:1039B0001188BFF34F8FBFF36F8FFEE77047000092
:1039C0007800002004ED00E00849486828B1401E56
:1039D000486001D180F311887047502080F311882E
:1039E000BFF34F8FBFF36F8FFEE70000780000201A
:1039F00070B500282AD0164DA0F1080460686969E6
:103A0000084207D1502080F31188BFF34F8FBFF3D6
:103A10006F8FFEE722683AB1502080F31188BFF320
:103A20004F8FBFF36F8FFEE78843606000F080F830
:103A300060686968084468602046FFF787FE286967
:103A4000401C2861BDE8704000F0E0B970BD000086
:103A5000580000204FF0E0200021016181610549FC
:103A60004FF47A720968B1FBF2F1491E41610721F6
:103A7000016170471800002010B5020014D00F48F3
:103A8000006B38B1502080F31188BFF34F8FBFF324
:103A90006F8FFEE700F04CF800211046FFF7FAFCAC
:103AA00000F0B4F9002807D105494FF080500860B4
:103AB000BFF34F8FBFF36F8F10BD00001C000020BD
:103AC00004ED00E010B586B00024039405AA04A913
:103AD00003A80494FFF71CFFDDE903010094CDE97E
:103AE000011000230EA11048059A00F0FEF80F49BE
:103AF0000028C86211D0502080F31188BFF34F8F87
:103B0000BFF36F8F4FF0FF30886201204861CC60B7
:103B100006B0BDE8104000F041B806B010BD00008E
:103B200049444C4500000000553600081C000020A8
:103B30000248016B491C0163704700001C00002013
:103B40001448016B11B10121C16170470021C161AD
:103B50000169B1FA81F1C1F11F0101EB81020E4946
:103B600051F822306BB101EB820101F108034A6880
:103B700052684A609A4201D152684A60D168016035
:103B80007047502080F31188BFF34F8FBFF36F8FC2
:103B9000FEE700001C000020D40700201CB53748B9
:103BA0000168374A914207D1502080F31188BFF352
:103BB0004F8FBFF36F8FFEE700683149491E88427F
:103BC00007D1502080F31188BFF34F8FBFF36F8F61
:103BD000FEE72C4908780190FF20087008788DF8DE
:103BE00000009DF800009DF8002000F0F0009042D9
:103BF00007D0502080F31188BFF34F8FBFF36F8F32
:103C0000FEE79DF80000204C00F0500020700720D7
:103C1000A06005E09DF8002052008DF80020401EB5
:103C20009DF800201206F5D4A060032807D050208C
:103C300080F31188BFF34F8FBFF36F8FFEE74FF410
:103C40004070A060019808700C482030016841F471
:103C500070010160016841F070410160FFF7FAFEF8
:103C600000206060FCF7BEFA0848016841F040415E
:103C70000160FCF7A3FA00201CBD000000ED00E08D
:103C800071C20F4100E400E07800002034EF00E052
:103C90002DE9FF5F8346DDE90E87994616468A4681
:103CA0009000FFF79DFD05001CD05420FFF798FD04
:103CB000040014D00020256384F85100CDE90240AF
:103CC000CDE900874B46324651465846FFF7F2FC95
:103CD0002046FFF717FC012004B0BDE8F09F2846FE
:103CE000FFF786FE4FF0FF30F6E7F0B585B0DDE96F
:103CF0000B640A9DA6B1DCB1542700972663022607
:103D000084F85160002604AFCDE90246CDE90057A2
:103D1000FFF7D0FC2046FFF7F5FB049805B0F0BD97
:103D2000502080F31188BFF34F8FBFF36F8FFEE7F2
:103D3000502080F31188BFF34F8FBFF36F8FFEE7E2
:103D40002DE9F0412F4C0026206B28B1A069401CC2
:103D5000A0613046BDE8F081E5686D1CE56013D1D7
:103D6000606B006838B1502080F31188BFF34F8F2B
:103D7000BFF36F8FFEE7606BA16B6163A063206A86
:103D8000401C2062FFF708FDA06ADFF87C808542B6
:103D900009D3606B0068A0B1606BC068C7687868C1
:103DA000854211D2A0622068C06A00EB800158F8F9
:103DB0002100012800D90126E0690028C9D0012688
:103DC000C7E74FF0FF30EDE7381DFFF78DFDB86A0C
:103DD00018B107F11800FFF787FDF96A0120226981
:103DE00088401043206101EB810108EB8100391DFF
:103DF000FFF7BEFDF86A2168C96A8842C9D3012667
:103E0000C7E700001C000020D40700202DE9F04780
:103E10002C4D00242746286B38B1FFF7B5FD286BE1
:103E2000401E2863286B40B146E0502080F3118883
:103E3000BFF34F8FBFF36F8FFEE7A968224E0120BB
:103E4000D1B3A6F1B40980463068E8B1F068C4681F
:103E500004F11800FFF748FD201DFFF745FDE06A5B
:103E60002A6908FA00F11143296100EB800109EB8E
:103E70008100211DFFF77CFDE06A2968C96A88423C
:103E8000E2D3C5F81C80DFE70CB1FFF785FCAC6915
:103E900044B14646FFF754FF00B1EE61641EF9D10C
:103EA0000020A861E86938B108490127380708608F
:103EB000BFF34F8FBFF36F8FFFF786FD3846BDE826
:103EC000F08700001C0000208808002004ED00E0BE
:103ED000343F0008AB2D0008000000000000000087
:103EE000800000000000000000000000283F0008E3
:103EF000B32D0008010000000000000000010000D8
:103F00000000000000000000000610160006101659
:103F10000000000000000000010203040607080979
:103F200000000000010203044D6F6E69746F72544B
:103F300061736B0064656661756C745461736B00CA
:103F4000603F00080000002084000000B633000835
:103F5000E43F00088400002074480000C6330008D5
:103F60000000000000000000000000000100000050
:103F700010000000000000000024F4000000000019
:103F80000000000000000000000000000000000031
:103F90000000000000000000000000000000000021
:103FA0000000000000000000000000000000000011
:103FB0000000000000000000000000000000000001
:103FC00000000000000000000000000000000000F1
:103FD000000000000000000000000000AAAAAAAA39
:043FE00000000000DD
:040000050800018965
:00000001FF
