:020000040800F2
:10000000705A00205D020008394800083D3A000897
:100010007142000879100008335500080000000004
:100020000000000000000000000000009D0100082A
:10003000C916000800000000F9010008394E000848
:1000400077020008770200087702000877020008AC
:10005000770200087702000877020008770200089C
:1000600077020008770200087702000839130008B9
:10007000770200084513000877020008770200089D
:100080005113000877020008770200087702000881
:10009000A510000877020008770200087702000820
:1000A000770200087702000877020008770200084C
:1000B0000D4F000877020008770200087702000859
:1000C000770200087702000877020008770200082C
:1000D00077020008F95300084D5400087702000821
:1000E000770200087702000877020008770200080C
:1000F0007702000877020008770200085D13000805
:1001000077020008770200087702000877020008EB
:1001100077020008770200087702000877020008DB
:1001200077020008770200086913000877020008C8
:1001300077020008770200087702000877020008BB
:1001400055110008770200087702000877020008BE
:10015000770200087702000877020008770200089B
:10016000770200087702000877020008770200088B
:1001700077020008770200087702000800000000FC
:100180007702000877020008DFF80CD000F04AFB85
:1001900000480047B18E0008705A00202C4B1968A7
:1001A0000868B0E8F04F80F30988BFF36F8F4FF015
:1001B000000080F3118870470000000008480068C4
:1001C000006880F308884FF0000080F3148862B65E
:1001D00061B6BFF34F8FBFF36F8F00DF00BF00BF6B
:1001E00008ED00E0DFF80C00016841F470010160E7
:1001F000704700BF88ED00E0EFF30980BFF36F8F19
:10020000134B1A681EF0100F08BF20ED108A20E96A
:10021000F04F106009B44FF0500080F31188BFF325
:100220004F8FBFF36F8F0BF051FC4FF0000080F346
:10023000118809BC19680868B0E8F04F1EF0100F6B
:1002400008BFB0EC108A80F30988BFF36F8F704746
:1002500090000020EFF305807047000006488047BB
:1002600006480047FEE7FEE7FEE7FEE7FEE7FEE79B
:10027000FEE7FEE7FEE7FEE7FD4E00088901000805
:100280002DE9F05F0546002092469B4688460646CB
:10029000814640241BE0284641464746224600F05E
:1002A0009BF953465A46C01A914110D3114618463D
:1002B000224600F082F92D1A67EB01084F462246CC
:1002C0000120002100F079F917EB00094E41201EB2
:1002D000A4F10104DFDC484631462A464346BDE826
:1002E000F09F40EA01039B0703D009E008C9121FF1
:1002F00008C0042AFAD203E011F8013B00F8013BE0
:10030000521EF9D27047D2B201E000F8012B491E0B
:10031000FBD270470022F6E710B513460A460446A2
:100320001946FFF7F0FF204610BD2DE9FE4F80462D
:1003300081EA0300C00F0C46009021F0004123F039
:100340000045B8EB0200A94105D24046214690463F
:100350001C460B46024623F00040104347D0270DB1
:10036000C7F30A00C3F30A510290401A01904028D3
:100370006BDAC3F3130040F4801B0098924620B15F
:100380000023D2EB030A63EB0B0B01985946C0F133
:100390004002504600F011F906460D4650465946B7
:1003A000019A00F029F910EB08006141002487EA66
:1003B000115284EAE7731A4340D0009A62B3019A5B
:1003C000012A4FEA075215DC001B61EB02014FF0D6
:1003D000004202EA0752CDE90042001C41F58011BB
:1003E00032462B4600F060F903B0BDE8F08F40467E
:1003F0002146F9E7001B61EB0201001C41F5801367
:1004000000185B412018A2F5001747EB030140EAF2
:10041000D570B6196D4111E06D084FEA360645EA10
:10042000C0754FEA0752001B61EB0201001C41F549
:10043000801149084FEA30000019514132462B46DD
:1004400003B0BDE8F04F00F020B900980122400051
:100450000023D0EB020263EBE073009821464FEAE1
:10046000E074B8EB000061EB0401E9E783F00043BE
:100470005BE781F0004158E72DE9FE4F81EA030474
:1004800004F0004421F0004100944FF0000B23F0F1
:10049000004350EA01045ED052EA03045BD0C3F388
:1004A0000A54C1F30A552C44A4F2F3340194A0FB7E
:1004B0000254C1F3130141F48011C3F3130343F455
:1004C000801301FB024400FB034E840A970A44EAAE
:1004D000815447EA8357A4FB076802958D0A05FB00
:1004E00007854FEA932C04FB0C542705029D4FEA25
:1004F000065847EA1637B5EB08056EEB070C870E72
:10050000920E47EA811742EA8312A7FB0201B6EB7B
:100510000B0164EB00042B0D43EA0C335E1844EB33
:100520001C50DA465146E7FB0201C5F313044FEABB
:100530000B3343EA14534FEA0432019C43EA0603A7
:10054000A4F10C040294009CCDE900B400F0ACF8D6
:1005500003B0BDE8F08F00200146F9E700F000424B
:1005600030F000400AD0C10D01F56071C0F31600F3
:1005700042EA0151C208400711437047002001467A
:10058000704701F0004330B421F0004150EA01020D
:1005900006D00A0DA2F56072C1F31301002A02DC35
:1005A00030BC00207047440F44EAC104C100E01889
:1005B00030BC00EBC25000F031B8202A04DB203AF6
:1005C00000FA02F1002070479140C2F1200320FAA6
:1005D00003F3194390407047202A04DB203A21FAA4
:1005E00002F00021704721FA02F3D040C2F120024C
:1005F0009140084319467047202A06DBCB17203A62
:1006000041FA02F043EAE07306E041FA02F3D04017
:10061000C2F1200291400843194670470029A8BF43
:100620007047401C490008BF20F00100704710B41B
:10063000B0FA80FC00FA0CF050EA010404BF10BCD0
:10064000704749B1CCF1200421FA04F411FA0CF1FD
:1006500018BF012121430843A3EB0C01CB1D4FEA36
:1006600000614FEA102042BF002010BC704700EB31
:10067000C35010440029A4BF10BC7047401C49005F
:1006800008BF20F0010010BC704710B5141E73F1B4
:10069000000408DA401C41F1000192185B411A4342
:1006A00001D120F0010010BD2DE9F04D92469B468E
:1006B00011B1B1FA81F202E0B0FA80F22032904634
:1006C000FFF77BFF04460F4640EA0A0041EA0B01B0
:1006D00053465A46084313D0114653EA010019D035
:1006E000C8F140025046FFF777FF05460E465046D8
:1006F00059464246FFF761FF084305D0012004E058
:1007000020463946BDE8F08D0020054346EAE076F4
:100710002C4337430A986305E40AA0EB0800002243
:10072000FD0A44EA47540A3002D500200146E9E7B1
:10073000010510196941DDE9084500196941BDE865
:10074000F04DA2E72DE9F04D81EA030404F0004BDF
:1007500021F0004514464FF0000A23F0004150EA12
:10076000050220D054EA01021DD0C5F30A57024603
:10077000C5F31303C1F31300C1F30A5640F4801507
:1007800043F48013A7EB0608101BD64608F2FD3889
:1007900073EB050002D308F1010801E092185B41F8
:1007A000B8F1000F03DA00200146BDE8F08D00200B
:1007B0004FF48011064684460EE0171B73EB0507C5
:1007C00005D3121B63EB050306434CEA010C4908F1
:1007D0004FEA300092185B4150EA0107EDD152EA2E
:1007E000030012D082EA040083EA0501084305D021
:1007F000101BAB4106D20122002306E000224FF07D
:10080000004302E06FF0010253101AEB06004CEBBC
:10081000085110EB0A0041EB0B01BDE8F04DFFF76A
:1008200034BF0000064C074D06E0E06840F00103CD
:1008300094E8070098471034AC42F6D3FFF7A8FCC1
:1008400010E2000830E200082DE9F04D00231A46BE
:100850001B1A8A4103DB00200146BDE8F08DC1F37D
:100860000A52C1F3130141F480154FF0000BD10778
:1008700002D100186D41521E0027044640F2FF11BC
:10088000384601EB620A3E468046024600204FF49D
:100890008011FFF7A1FEC2197141BB1846EB0100A0
:1008A000B4EB030C75EB000C04D3E41A65EB000504
:1008B00017460E46241908F101006D418046342880
:1008C000E3DDF91946EB0600091BA84103D24FF0FE
:1008D000FF32134601E0002213461BEB070046EBF4
:1008E0000A51BDE8F04DFFF7D0BE0EB5C10F80EA4A
:1008F000E0700844CA07002140F233438DE80E003F
:100900000A460B46FFF7D0FE03B000BD0EB540F21D
:10091000334102910021CDE900110A460B46FFF751
:10092000C3FE03B000BD70B5C1F30A5201F000452B
:100930000024C1F3130140F2FF3341F480119A42C5
:1009400001DA002070BD40F233439A42A2F23342F2
:1009500003DC5242FFF740FE00E090402C43F1D010
:10096000404270BD70B58C1810F8015B15F007039C
:1009700001D110F8013B2A1106D110F8012B03E038
:1009800010F8016B01F8016B5B1EF9D12B0705D440
:100990000023521E0DD401F8013BFAE710F8013B89
:1009A000CB1A921C03E013F8015B01F8015B521EA5
:1009B000F9D5A142D8D3002070BD0000464910B53A
:1009C0004A6822F440324A604A6843681A434A60DF
:1009D00001684A6822F480724A6001684A680369C3
:1009E00042EA03224A6001684A6822F040724A6083
:1009F00001684A6883681A434A6001688A6822F479
:100A000000628A6001688A68C3681A438A60816AE2
:100A10006FF07062D14201688A6822F070628A6069
:100A200001688A680CD0836A1A438A6001688A6800
:100A300022F040528A6001688A68C36A1A4301E062
:100A400022F040528A6001688A6822F002028A60BD
:100A500001688A68037E42EA43028A6090F82010A7
:100A6000002901684A680FD042F400624A600168B8
:100A70004A6822F460424A6001684A68174C436A37
:100A800004EB43331A4301E022F400624A60016838
:100A9000CA6A22F47002CA620168CA6A838B104C67
:100AA00004EB03531A43CA6201688A6822F4007295
:100AB0008A6001688A6890F8303042EA43228A608E
:100AC00001688A6822F480628A6001688A684069E5
:100AD00042EA8020886010BD0023014000E0FFFF53
:100AE0000000F0FF00B500F005FC5DF804EB00F03D
:100AF0000DBE0000064840F6FF720168054801F28D
:100B0000FF71914201D2002100E001214171704743
:100B1000F4010020000200202DE9F04116462DEDE1
:100B20000A8B0F468046B3F90030DDE9131000EE62
:100B3000103ADDE91152F8EEC00AFE4CDDF840C073
:100B4000C4ED0E0ABCF9003000EE103AB8EEC00A4F
:100B500084ED0F0AB5F90030032593FBF5F31BB2C2
:100B600003EB430300EE103AB8EEC00A84ED100A1E
:100B7000B2F9002000EE102AB8EEC01A84ED111A66
:100B8000B1F9001000EE101AB8EEC00A84ED120A96
:100B9000B0F9000021EE000A01EE900AF8EEE11A29
:100BA000C4ED131A20EE210AB5EEC00AF1EE10FAD8
:100BB0007DD0E14D297B9FEDE18AFDEEE00AB0EEAC
:100BC000480A10EE900A00B208F044F984ED0E0ACB
:100BD000D4ED0F0A297BB0EE480AFDEEE00A10EED4
:100BE000900A00B208F036F984ED0F0AD4ED100A2D
:100BF000297BB0EE480AFDEEE00A10EE900A00B242
:100C000008F028F994ED0E1ADFEDCD0A21EE201A36
:100C100020EE200A84ED0E1A94ED0F1A21EE201A10
:100C200084ED0F1A84ED100AD4ED110A297BB0EE81
:100C3000000AFDEEE00A10EE900A00B208F01EF97C
:100C400084ED110AD4ED120A297BB0EE000AFDEE04
:100C5000E00A10EE900A00B208F010F984ED120AD2
:100C6000D4ED130A297BB0EE000AFDEEE00A10EE87
:100C7000900A00B208F002F9F0EE400AC4ED130A3F
:100C800094ED110A94ED121A20EE000A01EE010A09
:100C900000EEA00A08F0C8F884ED070AD4ED110AA6
:100CA00060EE802AC4ED112AD4ED120A00E05CE166
:100CB00060EE804AB0EE008AC4ED124AD4ED130A09
:100CC00020EE803A84ED133A94ED040AD4ED060A3E
:100CD000D4ED031A94ED051A20EE202A01EEC12A64
:100CE00022EE084A21EE802A84ED084A01EE202AED
:100CF00022EE085A21EEA12A84ED095A00EE402A7C
:100D000001EE412A00EEA02A84ED0A2A64EE823A1E
:100D100043EE453A23EE043A02EEC23A62EE852AE9
:100D2000C4ED0B3A44EEC42A84ED0C3AC4ED0D2A0E
:100D300094ED142A94ED015A03EE852A84ED142AC9
:100D400094ED154A03EE054A84ED154AD4ED164A92
:100D500042EE854AC4ED164AD4ED0E5A94ED005A7F
:100D600045EE235A35EE822A84ED0E2AD4ED0F3A51
:100D700045EE033A33EE843A20EE424A84ED0F3AD0
:100D8000D4ED103A01EE434A61EE835A45EE223A21
:100D9000B0EE615A73EEA42A61EE824AC4ED102AC5
:100DA000C4ED171A41EE224A84ED180A00EEE24A19
:100DB00084ED191AC4ED1A0AD4ED023A40EEC34A82
:100DC00040EE625A04EE235AB0EE404A04EEA34AC3
:100DD00040EE825A84ED035A84ED044A61EEA21A71
:100DE000F0EE414A45EEA34A40EE031A25EE050A0D
:100DF000C4ED054A04EE040A41EE421A04EEA40AC8
:100E000041EEA30AC4ED060A00EEA00A08F00CF8B1
:100E100084ED070AD4ED030A20EE80BA84ED03BA0C
:100E2000D4ED040A60EE808AC4ED048AD4ED050A8C
:100E300020EE809A84ED059AD4ED060A60EE809A41
:100E40002BEE0B0AC4ED069A08EEE80A09EE490AF1
:100E500009EEA90A10EE100AFFF780FB29EE080A36
:100E60006BEE080A41EC1A0B20EE290A00EEA80AE4
:100E700010EE100AFFF772FB41EC100BB0EE4A1AAD
:100E8000F0EE6A1A04F09CFE9FED2EBB51EC100BA5
:100E900053EC1B2BFFF7F0FAFFF773FB386094ED70
:100EA000040AD4ED060A94ED051A20EE080A20EE95
:100EB000200AD4ED030A60EE880A00EEC10A10EEA3
:100EC000100AFFF74BFB41EC100B04F05DFB9FEDAC
:100ED0001F1B51EC100B53EC112BFFF7CDFAFFF752
:100EE00050FBC8F8000094ED03CAD4ED048AD4ED99
:100EF00005AA2CEE0C0A94ED06AA08EEA80A0AEE42
:100F0000EA0A0AEE4A0A10EE100AFFF727FB28EE5B
:100F1000AA0A41EC190B0CEE0A0A20EE080A10EEA0
:100F2000100AFFF71BFB41EC100BB0EE491AF0EE74
:100F3000691A0FE000000020280200200000FA4497
:100F4000728A8E3C0000006066A64C400000006083
:100F500066A64CC004F034FE53EC1B2B51EC100B76
:100F6000FFF78AFAFFF70DFB30600020BDEC0A8B1B
:100F7000BDE8F0812DE9F047804691460F461220EA
:100F800002F06EFE0446132002F06AFE44EA0026D8
:100F9000142002F065FE0446152002F061FE44EACA
:100FA0000025162002F05CFE0446172002F058FED1
:100FB000A8F8006044EA00203D80A9F80000BDE8E0
:100FC000F0872DE9FE4F1546DDE90C9A0E460746DF
:100FD0000C221C466946104602F068FEBDF80080EF
:100FE000BDF802C0BDF80430BDF80620BDF80810F9
:100FF000BDF80A00A4F80080A9F800C0AAF80030E3
:101000003A8031802880BDE8FE8F000038B519484D
:1010100005F098FF05F00AFC164805F0CBFB0446E6
:1010200005F004FC24BB01208DF800000146114AA4
:10103000684606F015F805F0F9FB0E4803F0A8FD28
:1010400000208DF800000B4A0121684606F008F8E0
:1010500005F0ECFB074803F071FD02208DF800005D
:10106000044A0121684605F0FBFF044605F0DEFB5B
:10107000204638BD28020020FEE7000000B58BB0F6
:10108000684600F09FF86946054800F017FD022108
:10109000034800F09DFC024801F028F80BB000BDA9
:1010A0008C080020014800F004BE00008C080020DD
:1010B00070B50E46034640F20624211F481C851CCD
:1010C000A3F50072013A06D08B4208D1314614488C
:1010D00000F002F90BE012483146EC3812E083428E
:1010E00005D10F483146EC3000F0F6F80EE0B3F5CC
:1010F000017F04D0AB4209D131460A480AE00948D1
:101100003146EC38BDE8704000F0E6B8A34205D1A6
:1011100005483146BDE8704000F0EABA70BD0000F5
:10112000DC4A0020A04D00205C4F002000B58BB0B1
:10113000684600F047F86946054800F0BFFC022108
:10114000034800F045FC024800F0D0FF0BB000BDA2
:10115000B4080020014800F0ACBD0000B408002035
:1011600070B5044613480E4640F203218460881E81
:10117000451CA4F58072233A06D08C420AD1314630
:101180000D4803F031FD0AE03146BDE870400B48E0
:1011900003F07ABB844202D13146094804E0AC42F4
:1011A00006D107483146EC30BDE8704003F076BD0B
:1011B00070BD00006001002028510020185100205F
:1011C000105200200021016041608160C160016116
:1011D00001224161C0E90612C0E908217047008878
:1011E00040BA7047808840BA00B27047408840BA21
:1011F00000B2704710B5124A016891420DD1114BEF
:1012000000211C46A3F11C0200F0DFFC0D48214622
:101210001C380068FFF74CFF10BD0B4A9142FBD110
:10122000084B002124331C46A3F11C0200F0CDFC26
:101230000448214608300068FFF792FF10BD000007
:1012400000640040AC0200200068004038B50B4646
:10125000164C0168A14201D1154904E0154CA14288
:1012600022D1134920310B6000238B60CB6008230F
:101270000B6113881B0A0B7613784B7653881B0A75
:101280008B769378CB7693881B0A0B7713794B7701
:10129000D3881B0A8B779279CA776B4601F11802C3
:1012A00000F0A8FB002800D0012038BD00640040F9
:1012B000D80200200068004000200649024600BF16
:1012C00000EB8003C3EB8013401C21F8232004288B
:1012D000F6DB7047F04900200A8852BA42804A88FB
:1012E00052BA8280898849BAC1800021417601764C
:1012F000704700009FED080A0849002000EB8002BB
:10130000C2EB801201EB8202401C82ED100A82EDDA
:101310000E0A0428F2DB704700000000F0490020AC
:1013200010B5044C20688168884760688168BDE812
:1013300010400847BC010020014800F0CDBF00006C
:10134000380B0020014800F0C7BF0000D80A002079
:10135000014800F0C1BF0000580C0020014800F017
:10136000BBBF0000980B0020014800F0B5BF000093
:10137000F80B00202DE9F04F85680024099E802D90
:1013800018D0894DC563894D456490F83450012DBE
:1013900015D0012580F8345090F83550012D10D02B
:1013A000002180F834100224002180F834102046F7
:1013B000BDE8F08F4FF4807141650120F8E702200D
:1013C000F6E7022580F835500025456505682F6849
:1013D00047F480272F6005682B6103685E6083688F
:1013E000402B03682AD099600168CA60714D704E25
:1013F000704FDFF8BC81DFF8B891DFF8B8A1DFF8F3
:10140000B4B1EA14DFF8A8E1016818363037930266
:10141000A9F148090AF1600A0BF1180BAEF1300E80
:101420004FF0006C41452DD9A94205D0494503D064
:10143000514501D0B14205D1202220E09A600268D6
:10144000D160D3E759451AD0714518D0594D783538
:10145000A94214D0564D3035A94210D0B9420BD014
:10146000534A183A914207D0524A9032914203D0DF
:101470004F4A4832914201D11A4600E062464C4937
:101480004C392EE0DFF82C8108F1A80841452AD913
:10149000A94205D0494503D0514501D0B14201D1FF
:1014A00020221CE059451AD0714518D0414D78359D
:1014B000A94214D03E4D3035A94210D0B9420BD0CC
:1014C0003B4A183A914207D03A4A9032914203D0AF
:1014D000374A4832914201D11A4600E06246344907
:1014E00050390A605AE0DFF8CC8008F148084145DD
:1014F0002AD9A94205D0494503D0514501D0B1426E
:1015000001D120221CE059451AD0714518D0294D2F
:101510007835A94214D0264D3035A94210D0B942B1
:101520000BD0234A183A914207D0224A9032914276
:1015300003D01F4A4832914201D11A4600E0624668
:101540001C491039CA6029E0A94205D0494503D099
:10155000514501D0B14201D120221CE059451AD099
:10156000714518D0134D7835A94214D0104D30353F
:10157000A94210D0B9420BD00D4A183A914207D077
:101580000C4A9032914203D0094A4832914201D12B
:101590001A4600E06246074910398A6001680A6805
:1015A00042F001020A60FFE6CD790008E579000803
:1015B000586402401060024001681823CAB2103A11
:1015C000B2FBF3F2054B6FF30901032A9B5CC36581
:1015D00000D9091D8165084670470000C4DF000876
:1015E00010B5014600208B698A6A4FF0C07453B170
:1015F000B3F5005F15D072B1012A0CD0022A0AD0CF
:10160000032A09D104E01AB1012A06D0022A03D123
:10161000C96AC90100D5012010BDC96AA142FAD02A
:1016200010BD002AF7D0012AF2D0022AF3D0032AF3
:10163000F3D010BD70B590F834500024012D0CD0BB
:10164000012580F8345090F835600025012E06D031
:1016500080F834500224204670BD022070BD02265E
:1016600080F83560456505682E6826F480262E6072
:1016700005686B608368402B036808D09960016837
:10168000CA600068016841F001010160E3E79A6007
:101690000268D160F5E710B503F0BAFE03F0E2FE90
:1016A00003F00CFF03F028FFFFF7E8FCBDE8104053
:1016B000FFF73CBD01680A68D20604D5C968C906AF
:1016C00001D50AF017B87047704772B6FEE7000000
:1016D00000200649024600BF00EB0013C3EBC01315
:1016E000401C21F823200228F6DB7047A04D002083
:1016F0000A8852BA42804A8852BA8280898849BA96
:10170000C180002141760176704700009FED0E0AEE
:101710000E4A002101EB0110C0EBC11002EB80006A
:10172000491C80ED100A80ED0E0A80ED2A0A80ED3A
:10173000280A80ED440A80ED420A80ED5E0A80EDC1
:101740005C0A0229E6DB704700000000A04D002083
:10175000B5EEC00AF1EE10FA01DD01207047B5EEDA
:10176000C00AF1EE10FA02D24FF0FF307047B5EE2A
:10177000C00AF1EE10FAF9D10020704707489FED3A
:10178000060A074980ED040A096891ED000A80ED18
:101790000A0AFFF7BBBF000000000000D4010020D0
:1017A0004001002008489FED070A084980ED040A1F
:1017B00080ED050A096891ED000A80ED0A0AFFF73D
:1017C000A5BF000000000000D4010020400100205F
:1017D00078B50024009490F83C20012A19D0012209
:1017E00080F83C200A6807230568092A13D9EE68A7
:1017F0000A3A02EB420293409E43EE600B788A68FD
:101800000A3B03EB43039A400368DD682A43DA602E
:1018100010E0022078BD2E6902EB420293409E4305
:101820002E610B788A6803EB43039A4003681D69B5
:101830002A431A614A681F23072A13D205686E6B70
:10184000521E02EB820293409E436E630B790A881C
:101850005B1E92B203EB83039A4003685D6B2A43DD
:101860005A6327E005680D2A12D22E6BD21F02EBB5
:10187000820293409E432E630B790A88DB1F92B24B
:1018800003EB83039A4003681D6B2A431A6311E03C
:10189000EE6A0D3A02EB820293409E43EE620B79B0
:1018A0000A880D3B92B203EB83039A400368DD6A1A
:1018B0002A43DA62164B0568144A9D4206D10D6828
:1018C000122D03D1556845F48005556005689D4289
:1018D00018D10B68102B01D0112B13D1536843F48E
:1018E00000035360096810290CD10A490A4A0968A3
:1018F000B1FBF2F101EB8101490000E0491E0091CA
:101900000029FBD180F83C40002078BD0023014035
:10191000002001408C00002040420F0070B5040000
:101920004FF0000503D0206C002610B107E0012025
:1019300070BD204600F01CF8666484F83C60206CA2
:10194000C00610D4206C20F4885040F002002064BF
:101950002046FFF733F86664206C20F0020040F068
:101960000100206400E0012584F83C60284670BD39
:1019700010B586B0044614216846FEF7CBFC114929
:10198000206888421CD110480021026842F480720D
:101990000260006800F4807005900B4814380268FB
:1019A00042F004020260006800F00400059001208B
:1019B00000900320CDE901016946044800F0C6FD0E
:1019C00006B010BD0020014044380240000802402B
:1019D00090F82020012A07D0022A05D0416A41F45C
:1019E0008021416201207047006842690A434261D8
:1019F00000207047F0B590F820500468A468012DCD
:101A000005D0022D03D0416A41F4802153E014F047
:101A1000406F01D1E5004BD5C4F30164022C03D91A
:101A2000416A41F4000146E00125A5401D608D6832
:101A30004FF4C0739DB1CE6835434E6845EAC60584
:101A4000066803EB0417F5514FF4C275076805EB00
:101A500004150E697E51097D012905D009E00E8823
:101A6000CD6845EA4655EBE701684E5946F4807665
:101A70004E511179D2F805504FF4C67641EA05254A
:101A8000016806EB04168D511178D2F801204FF44D
:101A9000C47541EA0221026805EB04155151006842
:101AA00003EB0411425842F0010242500020F0BD05
:101AB000416A41F4001141620120F0BD10B590F877
:101AC0002020012A07D0022A05D0416A41F4802152
:101AD0004162012010BD3B48D0F8002242F00102D3
:101AE000C0F80022D0F8002222F47C52C0F8002274
:101AF000D0F800224B6A42EA0322C0F800220A7D95
:101B000002F01F0301229A40D0F81C329343C0F820
:101B10001C32CB69B3B9D0F80C329343C0F80C3205
:101B20008C894B6864F31F434C6900EBC404C4F810
:101B300040320C890B6864F31F434C6900EBC4040A
:101B4000C4F84432CB69012B16D1D0F80C321343C0
:101B5000C0F80C320C884B6864F31F434C6900EBEF
:101B6000C404C4F840320C89CB6864F31F434C6949
:101B700000EBC404C4F844328B69002BD0F8043263
:101B80000ED01343C0F804320B69002BD0F8143286
:101B900008D01343C0F81432096A012904D008E0C0
:101BA0009343EFE79343F5E7D0F81C121143C0F8D5
:101BB0001C12D0F8001221F00101C0F80012002020
:101BC00010BD000000640040704730B590F8204020
:101BD000012C05D0022C03D0416A41F480215DE044
:101BE0000468002955D02469A40754D04FF4D87450
:101BF000056804EB01142D5915F00405956005687E
:101C00002D594ED0ED08556005682C5904F002049A
:101C1000D4604FF4DA74056804EB01142D5905F013
:101C20000F05156105682D59C5F3072595610568F0
:101C30002C59240C54614FF4DC72046802EB01123D
:101C4000A4581C700468A458240A5C700468A45842
:101C5000240C9C700468A258120EDA704FF4DE72E5
:101C6000046802EB0112A4581C710468A458240AE9
:101C70005C710468A458240C9C710468A258120E6C
:101C8000DA71006881B1016941F020010161002031
:101C900030BDE468A8E7416A41F4001141620120C7
:101CA00030BD6D0D1560AFE7C16841F02001C16026
:101CB000EDE72DE9F05F0546006800244669D0F89D
:101CC00004908768D0F80CB0D0F810A0D0F8188035
:101CD000F10748D0F90714D001218160B80703D576
:101CE000284600F030FA0CE0780702D54FF4006483
:101CF00007E0380702D54FF4805402E0284600F090
:101D000021FAF80516D529684FF480708860B80567
:101D100003D5284600F019FA0CE0780502D544F402
:101D2000005407E0380502D544F4804402E0284618
:101D300000F00AFAF80316D529684FF4803088605D
:101D4000B80303D5284600F002FA0CE0780302D568
:101D500044F4004407E0380302D544F4803402E040
:101D6000284600F0F3F9300707D55FEACB6004D5C9
:101D70002968102044F40074C86070074FF0080709
:101D800007D55FEA0B7004D52868C760284600F0C5
:101D900099F9B00706D52868C068800702D02846A0
:101DA00000F092F9700607D55FEACA6004D5296889
:101DB000102044F480640861B00607D55FEA0A7019
:101DC00004D528680761284600F08CF9F00606D58E
:101DD00028680069800702D0284600F084F9B00323
:101DE00008D55FEAC96005D52968102048602846F3
:101DF00000F07AF9F00307D55FEA097004D5286886
:101E00004760284600F0A4F9300446D55FEA4970DF
:101E100040D5F00504D55FEAC87001D044F0010454
:101E2000B00504D55FEA887001D544F0020470055E
:101E300004D55FEA487001D544F00404300529D583
:101E400018F0700F26D008F07000402815D006DC7E
:101E5000102809D020280AD0302816D10AE05028AE
:101E60000ED0602811D10EE044F008040DE044F0DB
:101E700010040AE044F0200407E044F0400404E0C9
:101E800044F0800401E044F480742868816921F002
:101E900070018161296804204860002C05D0686ABF
:101EA000204368622846FFF78FFEBDE8F09F70B5BB
:101EB000040003D094F8200010B104E0012070BDAC
:101EC000204600F081F82068016841F001010160BE
:101ED00000F03AFC0546052604E000F035FC401B06
:101EE0000A2811D820684068C007F6D02068016829
:101EF00021F00201016000F027FC05460BE000F034
:101F000023FC401B0A2806D9606A40F40030606256
:101F100084F82060D2E7206840688007EFD4207EF4
:101F20000128206801683DD021F080010160607EB9
:101F300001282068016838D021F040010160A07EAE
:101F400001282068016833D021F020010160E07E83
:101F50000128206801682ED041F010010160207F27
:101F600001282068016829D021F008010160607F04
:101F700001282068016824D021F004010160D4E91F
:101F800002010843D4E90412114308436168491E61
:101F900008432168C86100206062012084F82000A5
:101FA000002070BD41F08001C0E741F04001C5E76D
:101FB00041F02001CAE721F01001CFE741F008010C
:101FC000D4E741F00401D9E7F0B587B00446142105
:101FD0006846FEF79FF9364B3648DFF8D0E01968BF
:101FE000D4F800C0334A0325022609271030002404
:101FF000491CF44522D11960012907D1016841F03B
:1020000000710160006800F000700590106840F0F9
:10201000080010601068CDE9005600F00800CDE916
:10202000047069462448CDE9024500F08FFA002289
:102030000521142000F014FC142032E0DFF87CE0CD
:10204000F44530D1D0F800C04CF0806CC0F800C02E
:10205000D0F800C001290CF0806CCDF814C01960D4
:1020600007D1016841F000710160006800F0007064
:102070000590106840F002001060106802AB00F09C
:10208000020005906020CDE9000683E8B0006946B3
:102090000B4800F05BFA00220521402000F0E0FB35
:1020A000402000F0CFFB07B0F0BD0000006400400E
:1020B0007C00002030380240000C024000680040E4
:1020C0000004024070470000044A0168914202D0B7
:1020D000034A914201D1FFF78DB870470064004078
:1020E00000680040704770477047000070B50446B4
:1020F00090F82000012804D0606A40F4002060625B
:1021000018E0022084F820002068016821F0010115
:10211000016000F019FB05460EE000BF00F014FB63
:10212000401B0A2808D9606A40F40030606205202C
:1021300084F82000012070BD20684068C007EDD100
:10214000606270BD70477047704770477047704756
:10215000704770B54379012B1CD0012646710223CC
:10216000037105682B6802F0100440F6FE72A2406D
:102170009343D1E900210A43A2401A432A6001682F
:102180000A68C023A3409A430A6006710021417186
:10219000084670BD022070BD70B5040003D02079E0
:1021A000002510B105E0012070BD6571204600F0EA
:1021B00007F802202071256101202071002070BDE8
:1021C00010B586B0044614216846FEF7A3F81149FD
:1021D000206888421CD110480021026842F0005259
:1021E0000260006800F0005005900B48103802684B
:1021F00042F001020260006800F00100059010202A
:1022000000900320CDE901016946044800F09EF9E1
:1022100006B010BD0074004040380240000002408B
:102220002DE9F0410446876D00F08EFA064694F8D9
:1022300035000025022806D08020606584F83450DF
:102240000120BDE8F0812068016821F016010160DD
:102250002068416921F080014161206C08B9A06CBF
:1022600020B12068016821F0080101602068016840
:1022700021F0010101600CE000F066FA801B0528E6
:1022800007D920206065032084F8350084F8345095
:10229000D7E720680068C007EED194F85C103F20B3
:1022A0008840B860012084F8350084F8345000205C
:1022B000C7E790F83510022903D08021416501203D
:1022C0007047052180F835100068016821F0010190
:1022D00001600020704700002DE9F84304464FF0EC
:1022E0000009CDF8009063484FF41651A56D0068C1
:1022F000B0FBF1F72E6894F85C10082000FA01F1A9
:1023000031420FD021680A6852070BD50A6822F0C3
:1023100004020A6094F85C108840A860606D40F088
:102320000100606594F85C104FF0010808FA01F0B4
:10233000304208D021684969090604D5A860606D5B
:1023400040F00200606594F85C1004208840304240
:1023500008D021680968890704D5A860606D40F03D
:102360000400606594F85C1010208840304218D05A
:1023700021680968090714D5A86020680168490325
:1023800004D50068000308D5A16C07E00168C90501
:1023900003D4016821F008010160216C09B12046D5
:1023A000884794F85C1020208840304231D0216862
:1023B0000968C9062DD5A86094F83500052820685D
:1023C000016806D0490347D5006800031DD4616C3D
:1023D0001CE021F0160101602068416921F08001B4
:1023E0004161206C08B9A06C20B12068016821F01F
:1023F0000801016094F85C103F208840A86084F8D0
:10240000358084F83490216D1FE0E16B09B12046DE
:102410008847606D00282BD0606DC00714D0052060
:1024200084F835002068016821F0010101600098FE
:10243000401C0090B84203D820680068C007F6D15D
:1024400084F8358084F83490E16C002910D001B014
:102450002046BDE8F04308470168C905D5D40168A6
:1024600021F01001016084F8358084F83490CCE7C5
:10247000BDE8F8838C0000202DE9F041044600F00F
:1024800063F906465CB1022084F83500002584F823
:1024900034502068016821F0010101600DE0012045
:1024A000BDE8F08100F050F9801B052805D92020F7
:1024B0006065032084F83500F2E720680068C007F3
:1024C000F0D12268116820480140D4E90103184383
:1024D000D4E903363343184363691843A3691843A7
:1024E000E3691843236A18430843616A042903D146
:1024F000D4E90B1319430843106020684069666AE9
:1025000020F0070130460E43012704280CD1A06AB1
:102510000643E06A40B12046FFF762F820B1402050
:10252000606584F83570BAE7206846612046FFF799
:1025300043F894F85C203F2191408160656584F800
:1025400035700020ACE700003F8010F02DE9F84F17
:10255000DFF8BCA1002201250AF1040B03264FF08D
:102560000F090BF1040E00BF0B6805FA02F42340BB
:10257000A34270D10F7907F00307012F01D0022F7A
:1025800016D187684FEA420806FA08FC27EA0C07CA
:10259000D1F80CC00CFA08FC4CEA070CC0F808C0D3
:1025A0004768A7430C79C4F3001494403C4344604B
:1025B0000C79E443A4070AD0C4684FEA420C06FA37
:1025C0000CF7BC438F6807FA0CF72743C7600C79F8
:1025D00004F00304022C12D1D40800EB840CDCF8C4
:1025E00020405707FF0E09FA07F824EA0804D1F83B
:1025F000108008FA07F848EA0408CCF8208004683C
:102600004FEA420C06FA0CF7BC430F7907F00307B8
:1026100007FA0CF7274307604C6814F4403F70D06A
:102620003C4C276847F480472760246822F0030762
:1026300004F480440094384C07EB040CDCF80848A0
:1026400097074FEA177809FA08F7BC43334FB842A7
:1026500002D1002724E054E0314FB84201D10127D4
:102660001EE0304FB84201D1022719E02E4FB84288
:1026700001D1032714E02D4FB84201D104270FE008
:102680002B4FB84201D105270AE02A4FB84201D1A9
:10269000062705E0284FB84201D1072700E00827A8
:1026A00007FA08F72743CCF80878DAF800405746CD
:1026B000D1F804C09C435FEACC3C00D51C433C608D
:1026C000DBF800405F46D1F804C09C435FEA8C3CD5
:1026D00000D51C433C60DEF800407746D1F804C0CA
:1026E0009C435FEACC2C00D51C433C60084F0C3760
:1026F0003C68D1F804C09C435FEA8C2C00D51C4395
:102700003C60521C102AFFF42FAFBDE8F88F000088
:10271000003C0140443802400030014000000240CB
:102720000004024000080240000C02400010024079
:102730000014024000180240001C02400AB18161EE
:1027400070470904FBE700000148806870470000FB
:10275000800000200248816802781144816070473F
:10276000800000200B4810B5016841F40071016041
:10277000016841F480610160016841F48071016089
:10278000032000F08DF80F2000F006F800F03EF86E
:10279000002010BD003C024010B5014688B0002268
:1027A0001C2000F05DF81C2000F04CF814480024B8
:1027B000016841F001010160006805A900F0010015
:1027C0000690684600F018F900F036F90D4940000F
:1027D000B0FBF1F10C484FF08042491E026040F21C
:1027E000E732C0E90324C0E9011400F0A1FB10B1F5
:1027F000012008B010BD044800F0EAFBF9E7000032
:102800004038024040420F00B80C00200C4882B013
:10281000016841F480410160006800F4804000904C
:102820000748001F016841F08051016000680022E4
:1028300000F0805000900F21901E02B000F010B800
:1028400044380240002809DB00F01F0201219140BA
:102850004009800000F1E020C0F80011704700003E
:10286000F0B40E4B1B680C46C3F30223C3F10705FB
:10287000042D00D90425191D072901D2002300E0E9
:10288000DB1E012606FA05F1491E214099409E40B3
:10289000761E16403143F0BC02F064BE0CED00E041
:1028A000064900F0070208684FF6FF03184040EAA7
:1028B0000220034A10430860704700000CED00E05E
:1028C0000000FA052DE9F0470E46050065D0DFF857
:1028D0001481D8F80000F7B200F00700B04207D228
:1028E00088F80070D8F8000000F00700B04254D11A
:1028F00028683D4C810712D5400703D5206840F475
:10290000E05020602878000703D5206840F460403C
:1029100020602068A96820F0F00008432060287833
:10292000C0072DD0304968680839012812D0022824
:1029300013D0032811D00968890700292DDA2168EE
:1029400021F0030101432160FFF7FEFE814641F2C1
:10295000883A0EE009688903EFE709688901ECE726
:10296000FFF7F2FEA0EB0901514502D90320BDE8B3
:10297000F0872068696800F00C00B0EB810FEFD1A0
:10298000D8F80010404601F00701B14207D907709E
:10299000006800F00700B04201D00120E7E7287886
:1029A000400705D52068E96820F4E050084320601E
:1029B0002878000706D52068296920F4604040EA9D
:1029C000C100206000F058F82168084AC1F30311E3
:1029D000515CC8400649086006480068FFF7DCFE05
:1029E0000020C4E7003C024008380240CCDF000869
:1029F0008C000020840000200F2202600C4A136823
:102A000003F003034360136803F0F003836013686B
:102A100003F4E053C36012684FF4E05303EAD202B8
:102A200002610448006800F0070008607047000079
:102A300008380240003C0240044805490068096823
:102A4000044AC1F38221515CC84070478C000020C9
:102A500008380240DCDF00080448054900680968BE
:102A6000044AC1F34231515CC84070478C000020D9
:102A700008380240DCDF0008154810B5006810F087
:102A80000C02144813D01449042A0FD0082A0ED17E
:102A90000F4C241F2268236802F03F025B0207D517
:102AA0002068C0F38810A0FB010106E0084610BDB5
:102AB0002168C1F38811A1FB00010023FDF7E0FBB1
:102AC0002168C1F30141491C4900B0FBF1F010BD80
:102AD000083802400024F40040787D012DE9F84FC9
:102AE00004006ED02078DFF84C93C007A9F10405EC
:102AF0004AD009F104000168C1F38101012908D01D
:102B00000068C0F3810002280AD1D9F80000400211
:102B100006D52868800337D560680028E1D033E007
:102B20006068B0F5803F10D0B0F5A02F286810D0B5
:102B300020F480302860286820F4802028606068B5
:102B4000A8B1FFF701FE06460DE0286840F480308A
:102B5000F4E740F480202860F7E700BFFFF7F4FDBA
:102B6000801B642873D828688003F7D50CE0FFF732
:102B7000EBFD064605E000BFFFF7E6FD801B64287D
:102B8000F0D828688003F7D42078DFF8AC8280077B
:102B90004FF0000A3ED5A748001D016811F00C0F48
:102BA00008D00068C0F3810002280BD1D9F80000DA
:102BB000400207D42868800716D5E068012800D1B4
:102BC00012E033E1E068B8B10120C8F80000FFF777
:102BD000BBFD064605E000BFFFF7B6FD801B0228DF
:102BE000C0D828688007F7D52868216920F0F80048
:102BF00040EAC10028600DE0C8F800A0FFF7A4FD7E
:102C0000064604E0FFF7A0FD801B02281FD82868B5
:102C10008007F7D42078000722D5864F874861695E
:102C2000703771B101210160FFF78EFD064604E0A7
:102C3000FFF78AFD801B022809D838688007F7D57E
:102C40000EE0C0F800A0FFF77FFD064605E082E039
:102C5000FFF77AFD801B02287DD838688007F7D4FB
:102C60002078400768D5DFF8CCB100270BF13C0B8A
:102C7000DBF80000C0000BD4DBF8001041F08051FD
:102C8000CBF80010DBF80000012700F08050009026
:102C90006B4E3068C00510D4306840F480703060EE
:102CA000FFF752FD009005E0FFF74EFD0099401A36
:102CB000022850D83068C005F6D55E4EA0686C3644
:102CC00001280FD00528306810D020F001003060B6
:102CD000306820F004003060A068B8B1FFF734FD20
:102CE00000900FE0306840F00100F4E740F004008D
:102CF0003060F7E7FFF728FD0099411A41F288306C
:102D0000814266D830688007F4D50EE0FFF71CFDDD
:102D1000009007E0FFF718FD0099411A41F2883052
:102D2000814256D830688007F4D42FB1DBF8001008
:102D300021F08051CBF80010A069C8B33D49091DAE
:102D40000968C1F3810102294AD00228504607D000
:102D5000C8F8600000E03CE0FFF7F6FC04463BE00A
:102D60004746C8F86000FFF7EFFC064605E000BFE5
:102D7000FFF7EAFC801B02282BD828688001F7D4D3
:102D8000D4E907010843A16A2E4A490802EB014130
:102D9000626A41EA8211084394F82C1040EA01610A
:102DA000C9F8001001203866FFF7CEFC044606E0A3
:102DB0003EE000BFFFF7C8FC001B022809D82868C6
:102DC0008001F7D534E000BFFFF7BEFC001B0228EE
:102DD00002D90320BDE8F88F28688001F4D427E0E9
:102DE0000128F7D0D9F80000E26900F4800191428F
:102DF0001CD1226A00F03F01914217D147F6C07101
:102E0000626A0140B1EB821F10D1A26A4FF0FF331A
:102E100000F4403103EB5202B1EB024F06D194F8BB
:102E20002C1000F07060B0EB016F01D00120D1E7F1
:102E30000020CFE70438024000004742800E47429E
:102E4000007000400000FFFF7047704710B590F819
:102E50003C20012A22D0012280F83C20CA688C68DC
:102E600022F4407222434C6822F4806222430C68B0
:102E700022F4006222430C6922F4805222434C69FE
:102E800022F400522243C969002322F480420A43FB
:102E900001684A6480F83C30002010BD022010BD5B
:102EA00070B590F83C20012A32D0012480F83C40D3
:102EB000022280F83D2003685A689D6822F070065F
:102EC0000A6832435A60134B02689A4214D0B2F136
:102ED000804F11D0104B9A420ED0104B9A420BD01B
:102EE0000F4B9A4208D00F4B9A4205D00E4B9A4294
:102EF00002D00E4B9A4204D1496825F08003194351
:102F0000916080F83D40002180F83C10084670BD7B
:102F1000022070BD00000140000400400008004095
:102F2000000C004000040140004001400018004037
:102F300010B5040003D094F83D0010B107E0012063
:102F400010BD002084F83C00204600F01FF802204D
:102F500084F83D00211D206801F0DEFF012084F887
:102F6000460084F83E0084F83F0084F8400084F86E
:102F7000410084F8420084F8430084F8440084F857
:102F8000450084F83D00002010BD000008B5006831
:102F90000C49884208D10C48016841F001010160E8
:102FA000006800F001000BE00849884209D106489A
:102FB000001F016841F002010160006800F002009A
:102FC000009008BD00000140443802400004004069
:102FD00090F83D10012901D001207047022180F8AE
:102FE0003D100168CA6842F00102CA6000681149D8
:102FF000884214D0B0F1804F11D00F4988420ED0D2
:103000000E4988420BD00E49884208D00D498842AB
:1030100005D00D49884202D00C49884204D181680C
:1030200001F00701062903D0016841F001010160A8
:1030300000207047000001400004004000080040EC
:10304000000C004000040140004001400018004016
:1030500070B5044690F83C000025012817D00126E1
:1030600084F83C60022084F83D002068826822F0E9
:10307000770222F47F4282600868502838D00DDC45
:1030800020284FD005DC90B3102811D14AE002204F
:1030900070BD302846D040280AD13BE060282FD0B0
:1030A00070280DD0B0F5805F03D0B0F5005F12D06E
:1030B000012584F83D60002084F83C00284670BD5E
:1030C000CB68D1E90121206801F08AFF206881687E
:1030D00041F0770109E0CB68D1E90121206801F0D6
:1030E0007FFF2068816841F480418160E1E719E059
:1030F000CA684968206802F047F85021206806E055
:10310000CA684968206802F050F86021206801F020
:1031100071FFCEE7CA684968206802F035F840219F
:103120002068F4E7226801461046F0E7704770B562
:103130000446006801694FF00005C943890715D4AA
:10314000C168C943890711D4E91E016101202077B4
:10315000206880698007204602D0FFF7E7FF04E07F
:1031600000F0DAF8204600F06CF925772068016954
:10317000C943490717D4C168C943490713D46FF03D
:1031800004010161022020772068806910F4407FEB
:10319000204602D0FFF7CAFF04E000F0BDF8204649
:1031A00000F04FF9257720680169C943090716D453
:1031B000C168C943090712D46FF0080101610420F6
:1031C00020772068C0698007204602D0FFF7AEFF55
:1031D00004E000F0A1F8204600F033F925772068DC
:1031E0000169C943C90617D4C168C943C90613D4C4
:1031F0006FF010010161082020772068C06910F489
:10320000407F204602D0FFF791FF04E000F084F8F1
:10321000204600F016F9257720680169C943C907DF
:1032200008D1C168C943C90704D1891E016120467C
:1032300000F008F920680169C943090609D4C1688A
:10324000C943090605D46FF0800101612046FFF7EC
:10325000FBFD20680169C943490609D4C168C94317
:10326000490605D46FF040010161204600F0F1F8F5
:1032700020680169C94389060BD4C168C94389061E
:1032800007D46FF0200101612046BDE87040FFF7D0
:10329000DCBD70BD10B586B0044614216846FDF74C
:1032A00039F82368174C002117480222A34211D194
:1032B000036843F010030360006800F010000590FD
:1032C00090020090CDE901210120CDE9031069466B
:1032D0000E4812E00E4CA34211D1036843F00103E3
:1032E0000360006800F001000590C0200090CDE967
:1032F0000121CDE9031269460648FFF727F906B018
:1033000010BD0000000001403038024000100240B3
:103310000004004000000240704770B5044690F879
:103320003C0000260D4601280FD0012084F83C0007
:103330006AB1042A1DD0082A2FD00C2A3FD00126BA
:10334000002084F83C00304670BD022070BD20682B
:1033500001F058FE2068816941F008018161206810
:10336000816921F004018161206881692A69114322
:1033700011E0206801F076FE2068816941F4006167
:1033800081612068816921F480618161206881699F
:103390002A6941EA02218161D2E7206801F098FEA2
:1033A0002068C16941F00801C1612068C16921F04C
:1033B0000401C1612068C1692A69114311E02068D4
:1033C00001F0BAFE2068C16941F40061C161206862
:1033D000C16921F48061C1612068C1692A6941EA3B
:1033E0000221C161ACE710B5040003D094F83D00A0
:1033F00010B107E0012010BD002084F83C002046F9
:1034000000F01EF8022084F83D00211D206801F024
:1034100083FD012084F8460084F83E0084F83F00D4
:1034200084F8400084F8410084F8420084F84300A6
:1034300084F8440084F8450084F83D00002010BD65
:10344000704770470068B0F1804F01D1FFF782B933
:103450007047704770477047F8B5016804460868C0
:10346000CA684B6910F00F0F4FF0000559D003F0F8
:10347000010602F49077374365D0C10705D0D10526
:1034800003D5216C41F001012164410705D5D9071D
:1034900003D0216C41F002012164810705D5D907D1
:1034A00003D0216C41F004012164010707D502F02B
:1034B0002001314303D0216C41F008012164216CCB
:1034C00000293AD0800604D5900602D5204601F0A6
:1034D000ADFE20684069216CC0F38010090700D45C
:1034E00060B3204601F07BFE20684069400621D58C
:1034F0002068143050E8001F21F0400140E800121D
:10350000002AF5D1A06BA8B16C490165A06BFEF74C
:10351000D0FE002811D0A06B016D01B0BDE8F040D5
:10352000084783060FD593060DD52046BDE8F84021
:1035300001F07CBE2046FFF78EFFF8BD2046FFF766
:103540008AFF2564F8BD266B2023012E79D1C6069B
:1035500077D5D60675D50868486800904869400652
:1035600040D5A16B086840680004000CEAD0A28D29
:103570008242E7D9E085C869B0F5807F2DD0206808
:103580000C3050E8001F21F4807140E80012002A3E
:10359000F5D12068143050E8001F21F0010140E807
:1035A0000012002AF5D12068143050E8001F21F0E5
:1035B000400140E80012002AF5D184F83E3025632E
:1035C00020680C3050E8001F21F0100140E8001284
:1035D000002AF5D1A06BFEF723FEA08DE18D401AE5
:1035E00081B229E0A08DE18D401A81B2E08D0028E2
:1035F000A8D00029A6D020680C3050E8002F22F473
:10360000907240E80026002EF5D12068143050E872
:10361000002F22F0010240E80026002EF5D184F8A8
:103620003E30256320680C3050E8002F22F0100255
:1036300040E80023002BF5D12046FFF70BFFF8BD33
:10364000FFE705062BD5150629D594F83D0021285E
:10365000F5D1A068B0F5805F01D12069B0B1206AD2
:10366000411C2162216800784860E08C401E000403
:10367000000CE084E3D12068C16821F08001C160C2
:103680002068C16841F04001C160D8E7206A008825
:10369000C0F308004860206A801C2062E5E740060D
:1036A000CDD55006CBD5CA68204622F04002CA606C
:1036B00084F83D3000F0C1F9C1E70000CF510008A7
:1036C00070B5040004D094F83D00002510B106E068
:1036D000012070BD84F83C50204600F023F82420DF
:1036E00084F83D002068C16821F40051C160204683
:1036F00001F0FCFD2068016921F49041016120681E
:10370000416921F02A0141612068C16841F40051FA
:10371000C1602564202084F83D0084F83E0000202C
:1037200070BD00002DE9F04F87B0054614216846B2
:10373000FCF7F0FDB548DFF8D08210380222D5F84A
:1037400000C0B24B0321DFF8C8A20024960607157B
:103750004FF0010E4FF00809C44539D1D3F800C02D
:103760004CF4002CC3F800C01B6803F4002305933D
:10377000036843F001030360006800F00100059056
:103780008DE80640CDE9031969465046FEF7DEFE96
:10379000DFF884829F494046C8F80010C0E9016400
:1037A000C0E90347C8F81440C8F81840C8F81C40DE
:1037B000C8F82040C8F82440FEF75EFE08B1FDF7C7
:1037C00084FFC5F83880C8F8385007B0BDE8F08FDE
:1037D000DFF84882C4456FD1D3F800C04CF4801C98
:1037E000C3F800C01B6803F480130593036843F01B
:1037F00004030360036803F004030593036843F0C4
:103800000803036000688A4600F0080005904FF442
:103810008050CDE90002CDE902EA9346F0466946C0
:10382000CDF810907E48FEF791FE0420CDE9000B04
:10383000CDE9028A6946CDF810907A48FEF786FEF7
:10384000DFF8D4A173490AF1600A30395046CAF84A
:103850000010C0E90164C0E90347B046CAF814404B
:103860004FF44036CAF81840CAE90746B946CAF8C4
:103870002440FEF701FE08B1FDF727FF664F6548BB
:10388000C5F838A0C0377830CAF83850E7E80208E1
:103890004020A7E81102604847F81449C030BC61D5
:1038A000C7E907467C62FEF7E7FD08B1FDF70DFFAB
:1038B0006F63BD6389E7FFE7DFF86C814FF0070BAB
:1038C000C44543D1514B1B1DD3F800C04CF0100C24
:1038D000C3F800C01B6803F010030593036843F0AE
:1038E000010303600068CDE9024100F0010005908A
:1038F0004FF4C060CDE90002CDF810B069465046E3
:10390000FEF724FEDFF8288148494046C8F8001039
:10391000C0E90164C0E90347C8F814404FF400311E
:10392000C8F81840C8E90741C8F82440FEF7A4FDCC
:1039300008B1FDF7CAFEC5F8388000220521252010
:10394000C8F83850FEF78CFF25205AE0DFF8E480F5
:10395000C445AFD1D3F800C04CF4003CC3F800C05C
:103960001B6803F400330593036843F0010303600D
:10397000036803F001030593036843F00803036041
:103980000068CDF8009000F008008846CDE904B04A
:10399000CDE902489146694601925046FEF7D6FDB0
:1039A0002020CDE900090DF1080C69468CE81009CA
:1039B0001C48FEF7CBFDDFF87880164908F1600857
:1039C00048314046C8F80010C0E90164C0E9034727
:1039D000C8F814404FF44031C8F81840C8E907410E
:1039E000C8F82440FEF748FD08B1FDF76EFEC5F8A3
:1039F0003880002205212620C8F83850FEF730FF15
:103A00002620FEF71FFFE0E6004C00404038024051
:103A10000000024040600240D80A002000500040F0
:103A200000080240000C02400010014040640240C7
:103A3000F80B00200044004070477047FEE700008C
:103A400070B50D4C0025C4F8B4520C48016821F043
:103A500040410160016841F080410160C4F8BC52FE
:103A6000022004F52D7403F0A5FF01202060022040
:103A700003F0A0FF256070BD0080404200040240BA
:103A800070B50D4C0025C4F8B4520C48016821F003
:103A900040410160016841F0804101600126C4F8A5
:103AA000BC62022004F52D7403F084FF266002201E
:103AB00003F080FF256070BD00804042000402409A
:103AC0002DE9F047814616480024016821F0404165
:103AD000016001680160134E254627464FF001083A
:103AE000C6F8B472022003F065FFC6F8B48260061F
:103AF000040ED6F83C0208B1641CE4B2012003F0C5
:103B000059FF6D1CEDB2082DEAD3B9F1000F04D0B6
:103B1000FFF796FF2046BDE8F087FFF7B1FFF9E712
:103B200000040240008040422DE9F041064614485E
:103B3000016821F040410160016841F0804101606D
:103B4000104C0027C4F8B4723D464FF00108F0094C
:103B5000C4F8BC027006060E022003F02BFFC4F866
:103B6000B482022003F026FFC4F8B472022003F0EE
:103B700021FF6D1CEDB2082DE9D3BDE8F0810000F6
:103B8000000402400080404270B50D48016821F0F9
:103B900040410160016841F080410160094C012011
:103BA000C4F8BC02C4F8B402042004F52D7403F078
:103BB00001FF0025A560042003F0FCFE256070BD18
:103BC00000040240008040420E4810B5016821F018
:103BD00040410160016841F0804101600A4C0020D1
:103BE000C4F8B402C4F8BC02042004F52D7403F038
:103BF000E1FE01202060A060BDE81040042003F039
:103C0000D9BE0000000402400080404270B5124856
:103C10000024016821F040410160016801600F4DFE
:103C20000126C5F8BC62304603F0C4FEC5F8B46294
:103C3000012003F0BFFE07E0641CE4B2FA2C03D9B4
:103C4000FFF7C2FF012070BDD5F83C020028F3D178
:103C5000C5F8B40270BD000000040240008040427C
:103C600070B50546FFF790FF0F4C20784006000E18
:103C7000FFF75AFFFFF7CAFF2846FFF755FFFFF788
:103C8000C5FFFFF781FF2078012101EB4000C0B2A2
:103C9000FFF74AFFFFF7BAFF0020FFF711FF0446C6
:103CA000FFF792FF204670BD6C0000202DE9F04127
:103CB00016460D460746FFF767FF134C207840066F
:103CC000000EFFF731FFFFF7A1FF3846FFF72CFF8B
:103CD000FFF79CFFFFF758FF2078012101EB400020
:103CE000C0B2FFF721FFFFF791FF002406E001209B
:103CF000FFF7E6FE641C05F8010BE4B2B442F6D30C
:103D0000BDE8F041FFF760BF6C0000207FB50024E4
:103D100015480094019402941249039401604FF4F1
:103D20008031C0E901140461047680F820400F4915
:103D3000C0E90A140125C561C46080F830404561BE
:103D4000FDF7ECFD08B1FDF7C0FC0A20CDE9000548
:103D5000694602940448FDF73BFD002801D0FDF7B9
:103D6000B4FC7FBD00200140DC0800200100000FF2
:103D7000104810B50E4901600321416000214FF445
:103D800000228160C0E903124FF4401242610176C3
:103D900041768176C176017701214177FEF787F878
:103DA000002803D0BDE81040FDF78FBC10BD000017
:103DB000006400408C080020104810B50E490160D6
:103DC0000321416000214FF400228160C0E9031209
:103DD0004FF440124261017641768176C1760177D7
:103DE00001214177FEF763F8002803D0BDE81040B9
:103DF000FDF76BBC10BD000000680040B408002057
:103E00001CB500240C4900940A4801940860084637
:103E1000FEF7C2F908B1FDF758FC0220CDE90040D9
:103E2000002269460448FEF794F9002801D0FDF706
:103E30004CFC1CBD00740040240900201D4808B53E
:103E4000016841F400110160016801F40011009162
:103E5000016841F4800101600068002200F48000E4
:103E6000009005210B20FEF7FBFC0B20FEF7EAFC7F
:103E7000002205210D20FEF7F3FC0D20FEF7E2FCE9
:103E8000002205211020FEF7EBFC1020FEF7DAFCE3
:103E9000002205212F20FEF7E3FC2F20FEF7D2FCA5
:103EA000002205213A20FEF7DBFCBDE808403A205D
:103EB000FEF7C8BC3038024010B58EB01C220B494A
:103EC0006846FCF70EFA0021684605F07FF8084CBA
:103ED00006491C2220601C3107A8FCF702FA0021C9
:103EE00007A805F073F860600EB010BD8CDF000805
:103EF000740000202DE9F04F87B014216846FCF7CC
:103F000009FA40480024016841F004010160016899
:103F100001F004010591016841F080010160016830
:103F200001F080010591016841F001010160016823
:103F300001F001010591016841F010010160016883
:103F400001F010010591016841F002010160016872
:103F500001F002010591016841F00801016000686B
:103F6000DFF8A48000F00800059001224FF4C04162
:103F70004046FEF7E3FBDFF89490002224214846F8
:103F8000FEF7DCFBDFF888A04FF420460122314623
:103F90005046FEF7D3FBDFF87CB04FF400770022E9
:103FA00039465846FEF7CAFB00224FF440614046AE
:103FB000FEF7C4FB4FF4D84000900125CDE9015431
:103FC000694640460394FEF7C1FA24200090CDE9EB
:103FD0000154694648460394FEF7B8FA0320CDE938
:103FE0000240CDE9006569465046FEF7AFFA0097FA
:103FF000CDE90154694658460394FEF7A7FA07B085
:10400000BDE8F08F30380240000802400000024056
:1040100000040240000C024010B596B000240F943A
:1040200010941194129413941C2108A81494FCF772
:1040300071F920216846FCF76DF92948274901608C
:1040400040F61F51C0E9011440F2E731C0E9031402
:1040500044618461FEF76CFF08B1FDF736FB4FF455
:1040600080500F900FA91E48FEF7F2FF08B1FDF730
:104070002CFB1B48FFF7B7F908B1FDF726FB13949B
:1040800013A917481494FEF70BFF08B1FDF71DFBA9
:104090006020CDE908040A940B940C940D9404223A
:1040A00008A90F480E94FFF738F908B1FDF70DFB8A
:1040B00000944FF40050CDE904400294019403941D
:1040C000694607480794FEF7C1FE08B1FDF7FDFAFF
:1040D0000348FFF7DFF816B010BD000000000140F4
:1040E0003809002010B58EB0002407940894099474
:1040F0000A940B941C2168460C94FCF70BF9224897
:10410000204901605321C0E9011440F6C311C0E900
:1041100003148461FEF70CFF08B1FDF7D6FA4FF4E3
:104120008050079007A91848FEF792FF08B1FDF7E5
:10413000CCFA1548FFF757F908B1FDF7C6FA0B940A
:104140000BA911480C94FEF7ABFE08B1FDF7BDFAC0
:104150006020CDE900040294002269460A480494D4
:10416000FFF7DBF808B1FDF7B0FA0422694606480C
:10417000FFF7D3F808B1FDF7A8FA0348FFF78AF86C
:104180000EB010BD00040040800900200C4810B59E
:104190000A4901604FF4E1314160002181600C2245
:1041A000C160C0E904128161C161FFF789FA00288A
:1041B00003D0BDE81040FDF788BA10BD004C0040A8
:1041C000C80900200C4810B50A4901604FF4E131DC
:1041D0004160002181600C22C160C0E9041281614C
:1041E000C161FFF76DFA002803D0BDE81040FDF76C
:1041F0006CBA10BD005000400C0A00200C4810B5ED
:104200000A4901604FF4E1314160002181600C22D4
:10421000C160C0E904128161C161FFF751FA002851
:1042200003D0BDE81040FDF750BA10BD00100140AA
:10423000500A00200C4810B50A4901600B49416042
:10424000002181600C22C160C0E904128161C1615A
:10425000FFF736FA002803D0BDE81040FDF735BA65
:1042600010BD000000440040940A0020A086010018
:10427000FEE7000070B51848184C194D0168002081
:104280000A7A022A02D16070687068710B7A012282
:10429000032B00D16270B1F91410B1F5A57F03DDD5
:1042A0006378012B00D16A7011F5A57F00DA687080
:1042B000A8786978884301D0FCF71CFC6878A8705E
:1042C00060782979884203D0FDF720FAFDF756FA85
:1042D0006078287170BD0000A001002060540020AB
:1042E0000002002010B5FCF7C9FEFCF71FFF03F029
:1042F000C1F800F07BF900F0E5FC024901200870EC
:1043000010BD0000040200202DE9F04100F03AF950
:1043100000F056FB4B4C002000EB8001C1EB8012FB
:1043200004EB8201401C91ED140A0428BDEEC00A82
:1043300010EE101A24F82210EEDB434D002000BFCF
:1043400000EB8001C1EB801205EB8201401C91ED76
:10435000140ABDEEC00A10EE103A25F822304A7E4B
:10436000521C4A760228EBDB384F97ED0F0ABDEE60
:10437000C00A10EE100A388097F8E500401C87F854
:10438000E50000F0E9FA00F0C9F800F013FD00269E
:1043900006EB8600C0EB861004EB8000B0F9041039
:1043A000D0F8802000EE101A00F11C010846B8EE8B
:1043B000C00A9047761C042EEADB254B002000BF84
:1043C00000EB8001C1EB801134F8212004EB810166
:1043D00023F810204A7E401C521C4A760428EFDB4A
:1043E0001B4C00201B49083400EB0012C2EBC0122A
:1043F00031F8223001EB820224F81030537E401C49
:104400005B1C53760228EFDB1148298810304FF4EB
:1044100000740180B5F8EC104180398881800C4A25
:1044200021460D48FCF712FF094A611E08320A486E
:10443000FCF70CFF2146BDE8F041054A0748103261
:10444000FCF704BFF0490020105200202851002042
:104450006C010020A04D00208C080020B408002032
:1044600070B54388848A01691A1BB2F5805F01DD4B
:10447000491E03E012F5805F01DA491C0161C58A1B
:1044800003EB41314D1BC560A34202D202F500513E
:1044900001E0A2F50051002901DD0C4600E04C428C
:1044A000002A01DD164600E05642B44200DB114608
:1044B0002944C160838270BD70B54388B0F8E04084
:1044C000D0F8DC101A1BB2F5805F01DD491E03E055
:1044D00012F5805F02DA491CC0F8DC10B0F8E25037
:1044E00003EB41314D1BC0F8D850A34202D202F574
:1044F000005101E0A2F50051002901DD0C4600E069
:104500004C42002A01DD164600E05642B44200DB70
:104510001146294440F8D81F038170BD70B50020B2
:10452000164901234FEA000200EB8004C4EB80151A
:1045300001EB8504667E322E01D3237602E0247ED1
:10454000012C01D121F82520401C0428ECDB0C496A
:10455000002000BF00EB0014C4EBC01501EB850484
:10456000667E322E01D3237602E0247E012C01D117
:1045700021F82520401C0228ECDB70BDF04900200A
:10458000A04D002070B5154D002400BF04EB0410B1
:10459000C0EBC41005EB8000FFF762FF641C022C27
:1045A000F4DB04F0FFF902F085FF0D4A0D4900200D
:1045B00052F8203000EE103A00EB8003C3EB80137A
:1045C000B8EEC00A01EB8303401C83ED080A0428FF
:1045D000EEDBBDE870400448FFF76EBFA04D002041
:1045E00050540020F0490020285100202DE9F04FC0
:1045F00000262DED048B83B03446DFF810B24FF463
:10460000FA5A9FED838A9FED839ADFED838A00BF7C
:1046100006EB8600C0EB8611804800EB810505F1B2
:104620001C00804604F07EFD05F18400814604F004
:1046300079FDCDE9004A0294BBF80000D5F878C0B6
:1046400082B257464046F0EE481AB0EE491AF1EEF3
:10465000080AB0EE080A40F6B8330121E047CDE978
:1046600000470294D5F8E05064234846F2EE041A5D
:10467000B0EE481AF0EE680AB2EE040A3A4600219B
:10468000A847761C042EC3DB654D002606EB0610FA
:10469000C0EBC61005EB800707F11C0004F042FDDB
:1046A00007F1840004F03EFD07F1EC0004F03AFD50
:1046B00007F5AA7004F036FD761C022EE6DBCDE984
:1046C000004A0294BBF8040056465F4682B2F0EE00
:1046D000481A9FED549A524840F6B8380121D5F84F
:1046E00078C0B0EE491AF3EE040AB0EE080A434669
:1046F0001C30E047CDE9004602944948642300217C
:10470000D5F8E0C0F3EE0E1AB0EE481AF2EE0E0A3B
:10471000B0EE480A32468430E047CDE900460294C4
:10472000B888D5F834C282B2F0EE481AB0EE491A11
:10473000F3EE040AB0EE080A434601213A48E04786
:10474000CDE900460294384864230021D5F89CC284
:10475000F0EE481AB0EE481AF2EE0E0AB0EE480A31
:1047600032466830E047CDE900460294B88801211E
:1047700082B22B48D5F848C1F0EE481AB0EE491A7B
:10478000F3EE040AB0EE080A4346EC30E047CDE908
:1047900000460294244864230021D5F8B0C1F0EE0D
:1047A000481AB0EE481ADFED210AB0EE480A324648
:1047B0008438E047CDE900460294B888012182B2EE
:1047C0001948D5F80473F0EE481AB0EE681AF3EE03
:1047D000040AB0EE080A4346D030B847CDE9004697
:1047E00002946423D5F86C43F0EE481AB0EE481AF0
:1047F000DFED0F0AB0EE480A324600210D48A0470F
:1048000003B0BDEC048BBDE8F08F00006001002018
:10481000000000000AD7233C9A99993EF0490020F5
:10482000A04D0020CDCC4C3E784F002000007A43B4
:1048300000008243B0500020FEE700000F4841F224
:104840002B72B0F8BE110E48914208D2B5EEC00AE4
:10485000F1EE10FA03D8DFED0B0AC0ED050A41F6C0
:104860005B42914208D9B5EEC00AF1EE10FA03DBC3
:10487000B3EE040A80ED050A70470000A04D002049
:10488000D4010020D7A317C20A780270D1F8012002
:10489000097912BA22F0FF020A4300EE102AF2EE62
:1048A000040AB8EEC00A80EE201A80ED011A7047A3
:1048B00008480021026811800268518002689180D6
:1048C0000268D180036803221A7203685A72006872
:1048D00081827047A001002010B5FFF7E9FF1B4B54
:1048E0001B491A786AB99FED1B0A002000EB80046F
:1048F000C4EB801401EB8404401C84ED080A0428F6
:10490000F4DBB1F904001D303A2811D8B1F9F000F8
:104910001D303A280CD8B1F9DC011D303A2807D8EF
:10492000B1F9C8021D303A2802D80120187000E001
:104930001AB1FCF7C1FCFCF7D5F8FCF7C9FE00F092
:10494000A3F9BDE81040FCF72DBF000000020020D5
:10495000F04900200000000070B50A4C207E0128BC
:1049600001D1FFF7B9FF084DE878012807D1207E73
:1049700028B900202870FCF7BDF8FCF713FF207E53
:10498000E87070BDA0010020000200200949012844
:1049900007D0002804D19FED080A00BF81ED030A6B
:1049A00070470648C068404200EE100AB8EEC00AE0
:1049B000F4E7000028510020000000000802002059
:1049C0002DE9F041504AF7EE080A504C936800EE8A
:1049D000103AB4F90400B8EEC00A4142002880EE53
:1049E000201A01DD054600E00D4600EE105A464D46
:1049F0000127B8EEC00AAD784FF0000CB4EEC01A33
:104A0000F1EE10FA13D800EE103A0028B8EEC00A02
:104A100080EE201A00DC084600EE100AB8EEC00A4C
:104A2000B4EEC01AF1EE10FA01D8012D01D015B183
:104A300003E0177001E082F800C0354E32499FED67
:104A4000350A3068497890F809E0BEF1020F1AD1B2
:104A5000032918D115B1012D0FD014E05D4200EEED
:104A6000905AF8EEE00AC4ED080A00EE903AF8EE2B
:104A7000E00AC4ED430A977005E084ED080A84ED6E
:104A8000430A82F802C0037A032B02D0022B03D020
:104A900003E082F803C000E0D7701379D478A34212
:104AA0000ED01D4B83ED230A83ED250A83ED090A01
:104AB00083ED0B0A93ED360AB8EEC00A83ED1D0AAA
:104AC0001378ABB114B1012C09D011E0407A012860
:104AD00002D003280CD10020FFF758FF08E0407AED
:104AE000012801D103290CD05FF0000000F016F876
:104AF0003068407A5070D0781071BDE8F04100F015
:104B000089B80120F2E700000802002010520020BE
:104B1000A00100200000000028510020012808D139
:104B20000448DFED050A90ED1D0A30EE600A80EDC5
:104B30001D0A7047285100200000104770B58EB044
:104B40000646002502468DF800500121684601F016
:104B500059FF01F06BFE32460121042002F012FAE7
:104B6000044601F063FE84B90C208DF80200022097
:104B70008DF8030001208DF805508DF804000146E2
:104B80003246684602F008FB04460EB0204670BD6F
:104B900070B58EB00124064602468DF800402146CD
:104BA000684601F02FFF01F041FE32460221042049
:104BB00002F0E8F9054601F039FE95B90C208DF8B0
:104BC000020000208DF8060002208DF803008DF809
:104BD00007408DF8044032460121684602F0DCFAB5
:104BE00005460EB0284670BD70B504460D46084611
:104BF000FCF7F5FA60802846FCF7F8FAA080284612
:104C0000FCF7F0FAE080002084F8E50084F8E40086
:104C100070BD000070B51B4C0646B4F90400D4F812
:104C2000801000EE100A04F11C00B8EEC00A88479C
:104C3000B4F9F000D4F86C1100EE100A04F5847099
:104C4000B8EEC00A8847E83C04F1080576B1012EA9
:104C500017D194ED360AD4F8D41004F17000B8EEF0
:104C6000C00A884794ED290A84ED030AB4F90400C8
:104C7000E16E00EE100A2846BDE87040B8EEC00AAA
:104C8000084770BD10520020034900200880A1F899
:104C9000EC00E839088070471052002070B50446D7
:104CA0000D460846FCF79BFA60802846FCF79EFA02
:104CB000A0802846FCF796FAE080002060762076F7
:104CC00070BD00002DE9F04F34482DED028B83B00C
:104CD000824604F027FA31486830834604F022FA0D
:104CE00000254FF4FA54CDE90054DFF8B4802B4F7F
:104CF0000295B8F80000083F9FED2A8ADFED2A8A66
:104D000082B24FF4FA797E6EF0EE481AB0EE681A6D
:104D1000F2EE040AB0EE080A4B4601215046B047B5
:104D2000CDE9005402957E6EDFED201AB0EE481AF0
:104D3000DFED1F0AB0EE080A4B4622460021584616
:104D4000B047CB460026A24607F1E80906EB8600ED
:104D5000C0EB861109EB810404F11C00074604F046
:104D6000E1F9CDE9005A0295B8F80400A46F82B2C7
:104D70003846F0EE481AB0EE681AF1EE080AB0EEC6
:104D8000080A5B460121A047761CF6B2022EDDD34D
:104D900003B0BDEC028BBDE8F08F00003051002065
:104DA000C4010020000000000AD7233C9A99993ED4
:104DB000CDCCCC3E70B50020124A0124034600BF82
:104DC00000EB8001C1EB801502EB85014E7E322E97
:104DD00001D30C7602E0097E012901D122F82530A9
:104DE000401C0228ECDB0748E83890F8E51032292F
:104DF00002D380F8E44003E090F8E410012900D1E8
:104E0000038070BD10520020064C074D0548E16834
:104E10008847696904488847FFF72CFA012004F0A5
:104E2000C9F8F3E740010020A0010020FFF76CFA69
:104E3000012004F0BFF8F9E710B5502080F3118885
:104E4000BFF34F8FBFF36F8F06F0B2FF18B1044965
:104E50004FF080500860002080F3118810BD0000E2
:104E600004ED00E030B593B030216846FBF752FA0C
:104E700014210CA8FBF74EFA1E480025016841F0EA
:104E800080510160006800F0805011901A4801685C
:104E900041F4804101600068022400F480401190D8
:104EA00001200090000401908001CDE90640192006
:104EB00008904FF4A870CDE9090404200B906846CF
:104EC000FDF70CFE08B172B6FEE70CA90F2081E8D1
:104ED00031004FF4A0500F904FF4805010900521F6
:104EE0000CA8FDF7EFFC002801D072B6FEE713B066
:104EF00030BD0000403802400070004002480168A8
:104F000041F470010160704788ED00E00148FEF750
:104F10000EB90000B80C0020F0B50268254C264DF3
:104F2000264E274F274B4FF0804CA04209D06045BA
:104F300007D0A84205D0B04203D0B84201D0984271
:104F400004D122F0700E4A6842EA0E02A0421BD041
:104F5000604519D0A84217D0B04215D0B84213D03E
:104F6000984211D0184DA8420ED0184DA8420BD02F
:104F7000174DA84208D0174DA84205D0164DA8429B
:104F800002D0164DA84203D122F44075CA682A43C4
:104F90004D6922F080022A4302608A68C2620A6870
:104FA0008262A04201D0984201D1096901630121C6
:104FB0004161F0BD000001400004004000080040D5
:104FC000000C00400004014000400140004401404A
:104FD0000048014000180040001C00400020004034
:104FE00010B5846842EA032224F47F440A43224332
:104FF000826010BD826822F070020A4342F007010D
:1050000081607047F0B5026A22F001020262036A11
:1050100042688469124E24F073050C682C4323F017
:1050200002058B682B430D4DA84201D0B04205D13B
:1050300023F00807CB683B4323F00403A84201D0C8
:10504000B04205D14D6922F4407215438A692A4362
:1050500042608461496841630362F0BD0000014021
:1050600000040140F0B5026A22F010020262026AF6
:10507000436884690D6824F4E64444EA05248D6895
:1050800022F0200242EA05120F4D104EA84201D034
:10509000B04206D1CF6822F0800242EA071222F025
:1050A0004002A84201D0B04207D14D6923F44063C9
:1050B00043EA85038D6943EA850343608461496857
:1050C00081630262F0BD0000000001400004014065
:1050D000F0B5026A22F480720262026A4368C4690F
:1050E00022F4007224F073050C68124E2C438D6874
:1050F00042EA05220E4DA84201D0B04206D1CF6847
:1051000022F4006242EA072222F48062A84201D01F
:10511000B04207D14D6923F4405343EA05138D692A
:1051200043EA05134360C4614968C1630262F0BD8C
:10513000000001400004014030B5026A22F48052B0
:105140000262046A4268C3690D6823F4E64343EAD5
:1051500005238D6824F4005444EA0534084DA84220
:1051600002D0084DA84204D14D6922F4804242EA9F
:1051700085124260C36149680164046230BD000069
:10518000000001400004014010B5036A046A24F0E5
:1051900001040462846924F0F00444EA021423F058
:1051A0000A020A438461026210BD10B5036A23F04B
:1051B000100303628369046A23F4704343EA0232F2
:1051C00024F0A00343EA01118261016210BD10B511
:1051D000806B0021C185C184FEF73DF910BD0168D7
:1051E0000C3151E8002F22F4907241E80023002B8B
:1051F000F5D10168143151E8002F22F0010241E895
:105200000023002BF5D1016B012909D101680C3174
:1052100051E8002F22F0100241E80023002BF5D1C5
:10522000202180F83E1000210163704708B590F8F6
:105230003E10222901D0022008BD82684FF480531D
:105240009A4201D1016921B1816A9A421BD04AB1C7
:105250000AE00268816A5268C2F308020A80816A21
:10526000891C08E0026972B10268526802F07F028C
:105270000A70816A491C8162C18D491E0904090CAA
:10528000C18503D019E002685268F1E70168CA6875
:1052900022F02002CA600168CA6822F48072CA60E3
:1052A00001684A6922F001024A61202180F83E101B
:1052B000016B012903D0FEF7BFFB002008BD0021D0
:1052C000016301680C3151E8002F22F0100241E81F
:1052D0000023002BF5D101680A68D20602D50A68BE
:1052E00049680091818DFEF7B5F8E6E770B5044690
:1052F00000680169E26821F44051114301612169AC
:10530000A068E26908436169114308432168CA68DB
:1053100049F20C639A430243CA6020684169A2695A
:1053200021F440711143416131492068884202D023
:105330003049884202D1FDF78FFB01E0FDF77CFB8D
:10534000E2690023192164253226B2F5004F626814
:1053500028D0A0FB0101930F9200FAF791FF0146BC
:10536000B0FBF5F06FF01802504301EB800006EB44
:105370000010B0FBF5F000F0F002B1FBF5F002EB2D
:105380000012B1FBF5F06FF01803584301EB8000F9
:1053900006EB0010B0FBF5F000F00F0021681044A0
:1053A000886070BDA0FB010192185B41FAF768FFAD
:1053B0000146B0FBF5F00201B1FBF5F06FF0180308
:1053C000584301EB800006EBC000B0FBF5F000F0A5
:1053D000F80002EB4002B1FBF5F0584301EB80000E
:1053E00006EBC000B0FBF5F000F00700D6E70000C8
:1053F000001001400014014010B50448FCF75AF9B0
:10540000BDE810400148FEF727B80000500A002010
:105410000B4882B001680A684A680092CA6842F084
:105420001002CA6001684A6942F040024A6101689C
:10543000806B4FF4AF73034A091D02B0FCF7FAB852
:10544000500A0020180300207047000010B50448DF
:10545000FCF730F9BDE810400148FDF7FDBF000042
:10546000940A00200C4808B501680A684A6800924E
:10547000CA6842F01002CA6001684A6942F04002FC
:105480004A61122100910168044B806BA3F118025C
:10549000091DFBF76FFF08BD940A00208E04002051
:1054A00010B5054C01462046E26890472046216928
:1054B000BDE8104008470000A00100200B4882B062
:1054C00001680A684A680092CA6842F01002CA601D
:1054D00001684A6942F040024A610168806BC82352
:1054E000034A091D02B0FCF7A5B80000C809002056
:1054F000A6040020704700000B4882B001680A68CB
:105500004A680092CA6842F01002CA6001684A699B
:1055100042F040024A610168806BC823034A091DBA
:1055200002B0FCF787B800000C0A00206E050020CE
:105530007047FEE703B401984100009850EAC1208B
:1055400018BF04204A0D18BF40F0010040F2FF725E
:10555000B2EB515F08BF40F00200012808BF0520F0
:1055600002B070470907090E002804DB00F1E020B3
:1055700080F80014704700F00F0000F1E02080F880
:10558000141D70470000000070B5C1482DED020BDE
:105590002DED0E8B82B0119D25F000449FEDBEDBFA
:1055A0009FEDBFEB84423EDBA4F140511098A1F186
:1055B0007F6108430FD0BC48844202DC28D1109898
:1055C00030B39DED100B02B0BDEC0E8B02B0BDE808
:1055D000704001F09DB89DED100B53EC1D2B51EC6C
:1055E000100BFAF749FF9DED100B41EC180B53EC33
:1055F0001E2B51EC100BFAF73FFF53EC182BFAF768
:1056000094FE41EC100B02B0BDEC0E8B02B070BDED
:10561000012001F0C1F802B0BDEC0E8B02B0BDE874
:10562000704001F089B8A1489FEDA18B844256DA01
:105630009DED100BB4F1795F0ADA51EC100BFFF716
:1056400079FF042808BF01F087F89DED100BDAE719
:1056500053EC102B51EC100BFAF70EFF41EC190B29
:1056600095480621B0EE490AF0EE690A784400F048
:105670003BFF53EC192B51EC100BFAF7FDFE41ECFC
:105680001A0B8E48B0EE490AF0EE690A04217844FC
:1056900000F02AFF53EC192B51EC100BFAF7ECFE3B
:1056A00053EC182BFAF741FE41EC100B51EC1A0B9E
:1056B00053EC102BFBF746F8CDE900019DED000BF4
:1056C00053EC102B9DED100B51EC100BFAF7D4FEA0
:1056D0009DED101B53EC112BFAF727FED2E09DED48
:1056E000100B51EC100B02F0A4F953EC182BFAF745
:1056F000C0FE9FED730BCDE9000153EC102B9DED27
:10570000000B51EC100BFAF7B7FE41EC190B6E4889
:105710000621B0EE490AF0EE690A784400F0E4FE92
:1057200053EC192B51EC100BFAF7A6FE41EC1B0BB6
:105730006648B0EE490AF0EE690A0421784400F0A8
:10574000D3FE53EC192B51EC100BFAF795FE53ECEA
:10575000182BFAF7EAFD41EC1C0B51EC190B05F084
:1057600091FF41EC180B5A489FED5BABA04222DC45
:1057700053EC1C2B51EC1B0BFAF7E4FFCDE90001B5
:105780009DED000B51EC180B53EC102BFAF774FE47
:1057900053EC182BFAF7C9FD53EC1A2BFAF76CFEF1
:1057A00053EC1D2BFAF762FE53EC1E2BFAF761FE49
:1057B00041EC100B5FE08DED008B002000909DED23
:1057C000000B51EC180B53EC102BFAF7AEFD9DEDCE
:1057D000000B41EC1E0B53EC102B51EC100BFAF7A5
:1057E0004BFE53EC192BFAF744FE53EC1E2BFAF741
:1057F000A9FF41EC190B53EC1C2B51EC1B0BFAF7D6
:10580000A1FF41EC1B0B53EC1A2B51EC190BFAF7CF
:1058100033FE53EC1D2BFAF72CFE41EC190B53EC25
:105820001A2B51EC180BFAF727FE53EC1B2BFAF747
:1058300023FE53EC192BFAF719FE9DED000B41ECFA
:10584000180B53EC1A2B51EC100BFAF715FE9FEDC9
:10585000249B53EC192BFAF70CFE41EC100B51EC86
:10586000180B53EC102BFAF701FE53EC192BFAF737
:1058700000FE41EC100B002D3FF7C5AE51EC100BB4
:1058800081F0004141EC100BBDE60000000000007B
:105890000000F03F00000000075C143326A6913C96
:1058A000182D4454FB21F93F0000F07F0000E03F39
:1058B000000000000000F03F7889000086890000A9
:1058C000000000000000E03FCA880000D888000007
:1058D0003333EF3F000000000000000000000040F4
:1058E000182D4454FB21E93F70B59B482DED020B68
:1058F0002DED068B079D25F00044A04218DC97484B
:10590000844202DC0AD1069840B19DED060BBDEC45
:10591000068B02B0BDE8704000F0FABE002DCCBF8F
:105920009FED8F0B9FED900BBDEC068B02B070BD11
:105930008F48A04215DD8F48A042D8BF4FF0FF34FA
:1059400058DD9DED060B51EC100BFFF7F3FD04281D
:1059500008BF00F001FF9DED060BBDEC068B02B009
:1059600070BD9DED060B51EC100B02F062F8CDE915
:10597000060181489FED828BA0423CDD8248A04217
:105980001FDD00249FED82AB9DED060B53EC1A2B1F
:1059900051EC100BFAF7C9FC9DED060B41EC190B0D
:1059A00053EC1A2B51EC100BFAF766FD53EC182B45
:1059B000FAF75CFD53EC192BFAF7C4FECDE90601AA
:1059C00049E09DED060B012453EC182B51EC100B14
:1059D000FAF7ABFC9DED060B41EC190B53EC182BC1
:1059E00051EC100BFAF742FD53EC192BFAF7AAFE13
:1059F000CDE906012FE06848A0421FDD02249FED9B
:105A0000689B9DED060B53EC192B51EC100BFAF72C
:105A100033FD53EC182BFAF788FC9DED060B41EC97
:105A2000180B53EC192B51EC100BFAF71FFD53EC2C
:105A3000182BFAF787FECDE906010CE09DED060B69
:105A4000032453EC102B9FED580B51EC100BFAF77D
:105A500079FECDE906019DED060B53EC102B51ECC0
:105A6000100BFAF709FD41EC180B53EC182BFAF761
:105A700003FD41EC190B4E480621B0EE490AF0EE49
:105A8000690A784400F030FD53EC182B51EC100BF0
:105A9000FAF7F2FC41EC180B4648B0EE490AF0EE7A
:105AA000690A0521784400F01FFD53EC192B51ECD5
:105AB000100BFAF7E1FC41EC100B51EC180B53EC16
:105AC000102B002C0EDAFAF730FC9DED061B53EC80
:105AD000112BFAF7D1FC9DED061B53EC112BFAF7B5
