:020000040800F2
:10000000885700205D020008DD450008113900080E
:1000100045410008D90F0008EF4E0008000000001D
:100020000000000000000000000000009D0100082A
:10003000C515000800000000F9010008014800088B
:1000400077020008770200087702000877020008AC
:10005000770200087702000877020008770200089C
:1000600077020008770200087702000835120008BE
:1000700077020008411200087702000877020008A2
:100080004D12000877020008770200087702000886
:1000900005100008770200087702000877020008C0
:1000A000770200087702000877020008770200084C
:1000B000D548000877020008770200087702000898
:1000C000770200087702000877020008770200082C
:1000D00077020008C14D0008094E000877020008A9
:1000E000770200087702000877020008770200080C
:1000F000770200087702000877020008591200080A
:1001000077020008770200087702000877020008EB
:1001100077020008770200087702000877020008DB
:1001200077020008770200086512000877020008CD
:1001300077020008770200087702000877020008BB
:10014000B51000087702000877020008770200085F
:10015000770200087702000877020008770200089B
:10016000770200087702000877020008770200088B
:1001700077020008770200087702000800000000FC
:100180007702000877020008DFF80CD000F038FB97
:1001900000480047A97E0008885700202C4B1968AA
:1001A0000868B0E8F04F80F30988BFF36F8F4FF015
:1001B000000080F3118870470000000008480068C4
:1001C000006880F308884FF0000080F3148862B65E
:1001D00061B6BFF34F8FBFF36F8F00DF00BF00BF6B
:1001E00008ED00E0DFF80C00016841F470010160E7
:1001F000704700BF88ED00E0EFF30980BFF36F8F19
:10020000134B1A681EF0100F08BF20ED108A20E96A
:10021000F04F106009B44FF0500080F31188BFF325
:100220004F8FBFF36F8F0AF04DFC4FF0000080F34B
:10023000118809BC19680868B0E8F04F1EF0100F6B
:1002400008BFB0EC108A80F30988BFF36F8F704746
:1002500090000020EFF305807047000006488047BB
:1002600006480047FEE7FEE7FEE7FEE7FEE7FEE79B
:10027000FEE7FEE7FEE7FEE7C54800088901000843
:100280002DE9F05F0546002092469B4688460646CB
:10029000814640241BE0284641464746224600F05E
:1002A000F4F853465A46C01A914110D311461846E5
:1002B000224600F0DBF82D1A67EB01084F46224674
:1002C0000120002100F0D2F817EB00094E41201E5A
:1002D000A4F10104DFDC484631462A464346BDE826
:1002E000F09F40EA01039B0703D009E008C9121FF1
:1002F00008C0042AFAD203E011F8013B00F8013BE0
:10030000521EF9D27047D2B201E000F8012B491E0B
:10031000FBD270470022F6E710B513460A460446A2
:100320001946FFF7F0FF204610BD2DE9FE4F81EA88
:10033000030404F0004421F0004100944FF0000B4E
:1003400023F0004350EA01045ED052EA03045BD07C
:10035000C3F30A54C1F30A552C44A4F2F3340194B4
:10036000A0FB0254C1F3130141F48011C3F3130342
:1003700043F4801301FB024400FB034E840A970AF6
:1003800044EA815447EA8357A4FB076802958D0A23
:1003900005FB07854FEA932C04FB0C542705029DAF
:1003A0004FEA065847EA1637B5EB08056EEB070C1F
:1003B000870E920E47EA811742EA8312A7FB0201D9
:1003C000B6EB0B0164EB00042B0D43EA0C335E1813
:1003D00044EB1C50DA465146E7FB0201C5F3130417
:1003E0004FEA0B3343EA14534FEA0432019C43EAC9
:1003F0000603A4F10C040294009CCDE900B400F0C3
:100400009AF803B0BDE8F08F00200146F9E700F04C
:10041000004230F000400AD0C10D01F56071C0F318
:10042000160042EA0151C2084007114370470020FC
:100430000146704701F0004330B421F0004150EA1A
:10044000010206D00A0DA2F56072C1F31301002A61
:1004500002DC30BC00207047440F44EAC104C100F4
:10046000E01830BC00EBC25000F01FB8202A04DBBB
:10047000203A00FA02F1002070479140C2F12003B7
:1004800020FA03F3194390407047202A04DB203AF6
:1004900021FA02F00021704721FA02F3D040C2F1A4
:1004A000200291400843194670470029A8BF7047B1
:1004B000401C490008BF20F00100704710B4B0FA9A
:1004C00080FC00FA0CF050EA010404BF10BC704735
:1004D00049B1CCF1200421FA04F411FA0CF118BF4F
:1004E000012121430843A3EB0C01CB1D4FEA00611E
:1004F0004FEA102042BF002010BC704700EBC350F1
:1005000010440029A4BF10BC7047401C490008BF1C
:1005100020F0010010BC704710B5141E73F10004E8
:1005200008DA401C41F1000192185B411A4301D1E5
:1005300020F0010010BD2DE9F04D92469B4611B10F
:10054000B1FA81F202E0B0FA80F220329046FFF771
:100550008DFF04460F4640EA0A0041EA0B0153466C
:100560005A46084313D0114653EA010019D0C8F186
:1005700040025046FFF789FF05460E465046594651
:100580004246FFF773FF084305D0012004E02046F0
:100590003946BDE8F08D0020054346EAE0762C435D
:1005A00037430A986305E40AA0EB08000022FD0A1D
:1005B00044EA47540A3002D500200146E9E7010524
:1005C00010196941DDE9084500196941BDE8F04DA0
:1005D000A2E72DE9FE4F804681EA0300C00F0C46DA
:1005E000009021F0004123F00045B8EB0200A94142
:1005F00005D24046214690461C460B46024623F053
:100600000040104347D0270DC7F30A00C3F30A5137
:100610000290401A019040286BDAC3F3130040F4B3
:10062000801B0098924620B10023D2EB030A63EBB3
:100630000B0B01985946C0F140025046FFF716FFD8
:1006400006460D4650465946019A00F0EBF810EB6D
:1006500008006141002487EA115284EAE7731A43D3
:1006600040D0009A62B3019A012A4FEA075215DC82
:10067000001B61EB02014FF0004202EA0752CDE994
:100680000042001C41F5801132462B46FFF753FF14
:1006900003B0BDE8F08F40462146F9E7001B61EB4F
:1006A0000201001C41F5801300185B412018A2F5DF
:1006B000001747EB030140EAD570B6196D4111E010
:1006C0006D084FEA360645EAC0754FEA0752001B2F
:1006D00061EB0201001C41F5801149084FEA30002E
:1006E0000019514132462B4603B0BDE8F04FFFF7E9
:1006F00013BF0098012240000023D0EB020263EBFD
:10070000E073009821464FEAE074B8EB000061EB1B
:100710000401E9E783F000435BE781F0004158E71B
:100720002DE9F04D81EA030404F0004B21F000456F
:1007300014464FF0000A23F0004150EA050220D091
:1007400054EA01021DD0C5F30A570246C5F313034C
:10075000C1F31300C1F30A5640F4801543F480132B
:10076000A7EB0608101BD64608F2FD3873EB050010
:1007700002D308F1010801E092185B41B8F1000FC3
:1007800003DA00200146BDE8F08D00204FF480110F
:10079000064684460EE0171B73EB050705D3121BB4
:1007A00063EB050306434CEA010C49084FEA3000AD
:1007B00092185B4150EA0107EDD152EA030012D0D2
:1007C00082EA040083EA0501084305D0101BAB410F
:1007D00006D20122002306E000224FF0004302E08F
:1007E0006FF0010253101AEB06004CEB085110EBAE
:1007F0000A0041EB0B01BDE8F04DFFF78DBE000094
:10080000064C074D06E0E06840F0010394E807005D
:1008100098471034AC42F6D3FFF7BAFCE8D0000892
:1008200008D10008202A06DBCB17203A41FA02F053
:1008300043EAE07306E041FA02F3D040C2F120023D
:1008400091400843194670472DE9F04D00231A46A0
:100850001B1A8A4103DB00200146BDE8F08DC1F37D
:100860000A52C1F3130141F480154FF0000BD10778
:1008700002D100186D41521E0027044640F2FF11BC
:10088000384601EB620A3E468046024600204FF49D
:100890008011FFF7FAFDC2197141BB1846EB010048
:1008A000B4EB030C75EB000C04D3E41A65EB000504
:1008B00017460E46241908F101006D418046342880
:1008C000E3DDF91946EB0600091BA84103D24FF0FE
:1008D000FF32134601E0002213461BEB070046EBF4
:1008E0000A51BDE8F04DFFF717BE70B58C1810F82F
:1008F000015B15F0070301D110F8013B2A1106D165
:1009000010F8012B03E010F8016B01F8016B5B1E7E
:10091000F9D12B0705D40023521E0DD401F8013B59
:10092000FAE710F8013BCB1A921C03E013F8015BC5
:1009300001F8015B521EF9D5A142D8D3002070BD49
:10094000464910B54A6822F440324A604A68436812
:100950001A434A6001684A6822F480724A6001685A
:100960004A68036942EA03224A6001684A6822F041
:1009700040724A6001684A6883681A434A600168A5
:100980008A6822F400628A6001688A68C3681A4330
:100990008A60816A6FF07062D14201688A6822F0D1
:1009A00070628A6001688A680CD0836A1A438A6020
:1009B00001688A6822F040528A6001688A68C36AC6
:1009C0001A4301E022F040528A6001688A6822F0EE
:1009D00002028A6001688A68037E42EA43028A60F2
:1009E00090F82010002901684A680FD042F4006294
:1009F0004A6001684A6822F460424A6001684A68B5
:100A0000174C436A04EB43331A4301E022F40062BB
:100A10004A600168CA6A22F47002CA620168CA6A3E
:100A2000838B104C04EB03531A43CA6201688A6833
:100A300022F400728A6001688A6890F8303042EAD5
:100A400043228A6001688A6822F480628A600168B1
:100A50008A68406942EA8020886010BD0023014016
:100A600000E0FFFF0000F0FF00B500F0C1FB5DF803
:100A700004EB00F0C9BD00002DE9F04116462DED54
:100A80000A8B0F468046B3F90030DDE9131000EE03
:100A9000103ADDE91152F8EEC00AFE4CDDF840C014
:100AA000C4ED0E0ABCF9003000EE103AB8EEC00AF0
:100AB00084ED0F0AB5F90030032593FBF5F31BB263
:100AC00003EB430300EE103AB8EEC00A84ED100ABF
:100AD000B2F9002000EE102AB8EEC01A84ED111A07
:100AE000B1F9001000EE101AB8EEC00A84ED120A37
:100AF000B0F9000021EE000A01EE900AF8EEE11ACA
:100B0000C4ED131A20EE210AB5EEC00AF1EE10FA78
:100B10007DD0E14D297B9FEDE18AFDEEE00AB0EE4C
:100B2000480A10EE900A00B207F090F984ED0E0A20
:100B3000D4ED0F0A297BB0EE480AFDEEE00A10EE74
:100B4000900A00B207F082F984ED0F0AD4ED100A82
:100B5000297BB0EE480AFDEEE00A10EE900A00B2E2
:100B600007F074F994ED0E1ADFEDCD0A21EE201A8C
:100B700020EE200A84ED0E1A94ED0F1A21EE201AB1
:100B800084ED0F1A84ED100AD4ED110A297BB0EE22
:100B9000000AFDEEE00A10EE900A00B207F06AF9D2
:100BA00084ED110AD4ED120A297BB0EE000AFDEEA5
:100BB000E00A10EE900A00B207F05CF984ED120A28
:100BC000D4ED130A297BB0EE000AFDEEE00A10EE28
:100BD000900A00B207F04EF9F0EE400AC4ED130A95
:100BE00094ED110A94ED121A20EE000A01EE010AAA
:100BF00000EEA00A07F014F984ED070AD4ED110AFB
:100C000060EE802AC4ED112AD4ED120A00E05CE106
:100C100060EE804AB0EE008AC4ED124AD4ED130AA9
:100C200020EE803A84ED133A94ED040AD4ED060ADE
:100C3000D4ED031A94ED051A20EE202A01EEC12A04
:100C400022EE084A21EE802A84ED084A01EE202A8D
:100C500022EE085A21EEA12A84ED095A00EE402A1C
:100C600001EE412A00EEA02A84ED0A2A64EE823ABF
:100C700043EE453A23EE043A02EEC23A62EE852A8A
:100C8000C4ED0B3A44EEC42A84ED0C3AC4ED0D2AAF
:100C900094ED142A94ED015A03EE852A84ED142A6A
:100CA00094ED154A03EE054A84ED154AD4ED164A33
:100CB00042EE854AC4ED164AD4ED0E5A94ED005A20
:100CC00045EE235A35EE822A84ED0E2AD4ED0F3AF2
:100CD00045EE033A33EE843A20EE424A84ED0F3A71
:100CE000D4ED103A01EE434A61EE835A45EE223AC2
:100CF000B0EE615A73EEA42A61EE824AC4ED102A66
:100D0000C4ED171A41EE224A84ED180A00EEE24AB9
:100D100084ED191AC4ED1A0AD4ED023A40EEC34A22
:100D200040EE625A04EE235AB0EE404A04EEA34A63
:100D300040EE825A84ED035A84ED044A61EEA21A11
:100D4000F0EE414A45EEA34A40EE031A25EE050AAD
:100D5000C4ED054A04EE040A41EE421A04EEA40A68
:100D600041EEA30AC4ED060A00EEA00A07F058F807
:100D700084ED070AD4ED030A20EE80BA84ED03BAAD
:100D8000D4ED040A60EE808AC4ED048AD4ED050A2D
:100D900020EE809A84ED059AD4ED060A60EE809AE2
:100DA0002BEE0B0AC4ED069A08EEE80A09EE490A92
:100DB00009EEA90A10EE100AFFF729FB29EE080A2E
:100DC0006BEE080A41EC1A0B20EE290A00EEA80A85
:100DD00010EE100AFFF71BFB41EC100BB0EE4A1AA5
:100DE000F0EE6A1A04F0C8FB9FED2EBB51EC100B1D
:100DF00053EC1B2BFFF799FAFFF71CFB386094EDBF
:100E0000040AD4ED060A94ED051A20EE080A20EE35
:100E1000200AD4ED030A60EE880A00EEC10A10EE43
:100E2000100AFFF7F4FA41EC100B04F089F89FED7B
:100E30001F1B51EC100B53EC112BFFF776FAFFF749
:100E4000F9FAC8F8000094ED03CAD4ED048AD4ED91
:100E500005AA2CEE0C0A94ED06AA08EEA80A0AEEE2
:100E6000EA0A0AEE4A0A10EE100AFFF7D0FA28EE54
:100E7000AA0A41EC190B0CEE0A0A20EE080A10EE41
:100E8000100AFFF7C4FA41EC100BB0EE491AF0EE6D
:100E9000691A0FE000000020000200200000FA4460
:100EA000728A8E3C0000006066A64C400000006024
:100EB00066A64CC004F060FB53EC1B2B51EC100BEE
:100EC000FFF733FAFFF7B6FA30600020BDEC0A8B6B
:100ED000BDE8F0812DE9F047804691460F4612208B
:100EE00002F028FE0446132002F024FE44EA002605
:100EF000142002F01FFE0446152002F01BFE44EAF7
:100F00000025162002F016FE0446172002F012FEFD
:100F1000A8F8006044EA00203D80A9F80000BDE880
:100F2000F0872DE9FE4F1546DDE90C9A0E4607467F
:100F30000C221C466946104602F022FEBDF80080D5
:100F4000BDF802C0BDF80430BDF80620BDF8081099
:100F5000BDF80A00A4F80080A9F800C0AAF8003083
:100F60003A8031802880BDE8FE8F000038B51948EE
:100F700005F090F804F002FD164804F0C3FC0446A6
:100F800004F0FCFC24BB01208DF800000146114A4E
:100F9000684605F00DF904F0F1FC0E4803F0ECFB97
:100FA00000208DF800000B4A0121684605F000F989
:100FB00004F0E4FC074803F0B5FB02208DF80000C4
:100FC000044A0121684605F0F3F8044604F0D6FC13
:100FD000204638BD00020020FEE7000000B58BB0BF
:100FE000684600F077F86946054800F0D1FC022118
:100FF000034800F057FC024800F0E2FF0BB000BDD0
:1010000064080020014800F0BEBD00006408002014
:1010100070B50E46034640F20624211F481C851C6D
:10102000A3F50072013A06D08B4208D1314614482C
:1010300000F0D0F80BE012483146EC3812E0834261
:1010400005D10F483146EC3000F0C4F80EE0B3F59E
:10105000017F04D0AB4209D131460A480AE0094871
:101060003146EC38BDE8704000F0B4B8A34205D179
:1010700005483146BDE8704000F0B8BA70BD0000C8
:10108000B44A0020784D0020344F002000B58BB0CA
:10109000684600F01FF86946054800F079FC022117
:1010A000034800F0FFFB024800F08AFF0BB000BDD0
:1010B0008C080020014800F066BD00008C0800206C
:1010C000A0F58072233A02D1014803F0AFBA70470D
:1010D000F05000200021016041608160C160016129
:1010E00001224161C0E90612C0E9082170470000F1
:1010F00010B5124A016891420DD1114B00211C46D6
:10110000A3F11C0200F0CBFC0D4821461C380068FE
:10111000FFF77EFF10BD0B4A9142FBD1084B002127
:1011200024331C46A3F11C0200F0B9FC04482146FC
:1011300008300068FFF7C4FF10BD000000640040E5
:10114000840200200068004038B50B46164C016848
:10115000A14201D1154904E0154CA14222D1134905
:1011600020310B6000238B60CB6008230B61138858
:101170001B0A0B7613784B7653881B0A8B76937871
:10118000CB7693881B0A0B7713794B77D3881B0A8E
:101190008B779279CA776B4601F1180200F094FBC5
:1011A000002800D0012038BD00640040B0020020BB
:1011B0000068004000200649024600BF00EB8003A3
:1011C000C3EB8013401C21F823200428F6DB704772
:1011D000C84900200A8852BA42804A8852BA82809E
:1011E000898849BAC18000214176017670470000A4
:1011F0009FED080A0849002000EB8002C2EB801234
:1012000001EB8202401C82ED100A82ED0E0A0428D6
:10121000F2DB704700000000C849002010B5044C04
:1012200020688168884760688168BDE81040084789
:10123000B0010020014800F0B9BF0000100B0020F1
:10124000014800F0B3BF0000B00A0020014800F0E0
:10125000ADBF0000300C0020014800F0A7BF000027
:10126000700B0020014800F0A1BF0000D00B00204F
:101270002DE9F04F85680024099E802D18D0894DF6
:10128000C563894D456490F83450012D15D0012572
:1012900080F8345090F83550012D10D0002180F89E
:1012A00034100224002180F834102046BDE8F08F6D
:1012B0004FF4807141650120F8E70220F6E702252E
:1012C00080F835500025456505682F6847F480276C
:1012D0002F6005682B6103685E608368402B03689C
:1012E0002AD099600168CA60714D704E704FDFF866
:1012F000BC81DFF8B891DFF8B8A1DFF8B4B1EA1427
:10130000DFF8A8E10168183630379302A9F14809DF
:101310000AF1600A0BF1180BAEF1300E4FF0006CC1
:1013200041452DD9A94205D0494503D0514501D0A9
:10133000B14205D1202220E09A600268D160D3E753
:1013400059451AD0714518D0594D7835A94214D055
:10135000564D3035A94210D0B9420BD0534A183AF5
:10136000914207D0524A9032914203D04F4A4832BC
:10137000914201D11A4600E062464C494C392EE0B8
:10138000DFF82C8108F1A80841452AD9A94205D0E7
:10139000494503D0514501D0B14201D120221CE082
:1013A00059451AD0714518D0414D7835A94214D00D
:1013B0003E4D3035A94210D0B9420BD03B4A183AC5
:1013C000914207D03A4A9032914203D0374A48328C
:1013D000914201D11A4600E06246344950390A6010
:1013E0005AE0DFF8CC8008F1480841452AD9A942E3
:1013F00005D0494503D0514501D0B14201D1202249
:101400001CE059451AD0714518D0294D7835A942AC
:1014100014D0264D3035A94210D0B9420BD0234A02
:10142000183A914207D0224A9032914203D01F4A83
:101430004832914201D11A4600E062461C491039F7
:10144000CA6029E0A94205D0494503D0514501D0E1
:10145000B14201D120221CE059451AD0714518D063
:10146000134D7835A94214D0104D3035A94210D013
:10147000B9420BD00D4A183A914207D00C4A90322B
:10148000914203D0094A4832914201D11A4600E004
:101490006246074910398A6001680A6842F0010211
:1014A0000A60FFE6C5690008DD690008586402406B
:1014B0001060024001681823CAB2103AB2FBF3F27E
:1014C000054B6FF30901032A9B5CC36500D9091D15
:1014D0008165084670470000BCCF000810B5014682
:1014E00000208B698A6A4FF0C07453B1B3F5005F76
:1014F00015D072B1012A0CD0022A0AD0032A09D1D0
:1015000004E01AB1012A06D0022A03D1C96AC9012E
:1015100000D5012010BDC96AA142FAD010BD002A31
:10152000F7D0012AF2D0022AF3D0032AF3D010BD5B
:1015300070B590F834500024012D0CD0012580F8AE
:10154000345090F835600025012E06D080F83450D4
:101550000224204670BD022070BD022680F835604E
:10156000456505682E6826F480262E6005686B6048
:101570008368402B036808D099600168CA600068DE
:10158000016841F001010160E3E79A600268D160FF
:10159000F5E710B503F01AFC03F042FC03F06CFC15
:1015A00003F088FCFFF71AFDBDE81040FFF76EBDA1
:1015B00001680A68D20604D5C968C90601D509F0D0
:1015C00095B87047704772B6FEE7000000200649E4
:1015D000024600BF00EB0013C3EBC013401C21F810
:1015E00023200228F6DB7047784D00200A8852BA83
:1015F00042804A8852BA8280898849BAC1800021D3
:1016000041760176704700009FED0E0A0E4A0021D8
:1016100001EB0110C0EBC11002EB8000491C80ED12
:10162000100A80ED0E0A80ED2A0A80ED280A80ED6E
:10163000440A80ED420A80ED5E0A80ED5C0A0229D0
:10164000E6DB704700000000784D0020B5EEC00AD0
:10165000F1EE10FA01DD01207047B5EEC00AF1EE9F
:1016600010FA02D24FF0FF307047B5EEC00AF1EE2B
:1016700010FAF9D10020704708489FED070A084981
:1016800080ED040A80ED050A096891ED000A80EDFD
:101690000A0AFFF7B9BF000000000000C0010020E7
:1016A0004001002078B50024009490F83C20012AE5
:1016B00019D0012280F83C200A6807230568092A0E
:1016C00013D9EE680A3A02EB420293409E43EE6061
:1016D0000B788A680A3B03EB43039A400368DD6892
:1016E0002A43DA6010E0022078BD2E6902EB420244
:1016F00093409E432E610B788A6803EB43039A4024
:1017000003681D692A431A614A681F23072A13D2F6
:1017100005686E6B521E02EB820293409E436E631D
:101720000B790A885B1E92B203EB83039A4003682D
:101730005D6B2A435A6327E005680D2A12D22E6B8F
:10174000D21F02EB820293409E432E630B790A88DC
:10175000DB1F92B203EB83039A4003681D6B2A439D
:101760001A6311E0EE6A0D3A02EB820293409E4347
:10177000EE620B790A880D3B92B203EB83039A4029
:101780000368DD6A2A43DA62164B0568144A9D42F3
:1017900006D10D68122D03D1556845F480055560BA
:1017A00005689D4218D10B68102B01D0112B13D165
:1017B000536843F400035360096810290CD10A49A7
:1017C0000A4A0968B1FBF2F101EB8101490000E02E
:1017D000491E00910029FBD180F83C40002078BDD3
:1017E00000230140002001408C00002040420F00F7
:1017F00070B504004FF0000503D0206C002610B136
:1018000007E0012070BD204600F01CF8666484F8F3
:101810003C60206CC00610D4206C20F4885040F04E
:10182000020020642046FFF78BF86664206C20F0ED
:10183000020040F00100206400E0012584F83C60D3
:10184000284670BD10B586B0044614216846FEF7E0
:1018500061FD1149206888421CD1104800210268AE
:1018600042F480720260006800F4807005900B48BA
:101870001438026842F004020260006800F00400BC
:101880000590012000900320CDE90101694604483C
:1018900000F0C6FD06B010BD0020014044380240F3
:1018A0000008024090F82020012A07D0022A05D023
:1018B000416A41F480214162012070470068426919
:1018C0000A43426100207047F0B590F82050046848
:1018D000A468012D05D0022D03D0416A41F4802176
:1018E00053E014F0406F01D1E5004BD5C4F301641F
:1018F000022C03D9416A41F4000146E00125A540CC
:101900001D608D684FF4C0739DB1CE6835434E683D
:1019100045EAC605066803EB0417F5514FF4C27596
:10192000076805EB04150E697E51097D012905D074
:1019300009E00E88CD6845EA4655EBE701684E5947
:1019400046F480764E511179D2F805504FF4C676A0
:1019500041EA0525016806EB04168D511178D2F88D
:1019600001204FF4C47541EA0221026805EB041519
:101970005151006803EB0411425842F001024250F9
:101980000020F0BD416A41F4001141620120F0BD28
:1019900010B590F82020012A07D0022A05D0416A0C
:1019A00041F480214162012010BD3B48D0F8002263
:1019B00042F00102C0F80022D0F8002222F47C524A
:1019C000C0F80022D0F800224B6A42EA0322C0F895
:1019D00000220A7D02F01F0301229A40D0F81C3237
:1019E0009343C0F81C32CB69B3B9D0F80C3293439F
:1019F000C0F80C328C894B6864F31F434C6900EBD0
:101A0000C404C4F840320C890B6864F31F434C696A
:101A100000EBC404C4F84432CB69012B16D1D0F8D2
:101A20000C321343C0F80C320C884B6864F31F432C
:101A30004C6900EBC404C4F840320C89CB6864F3F1
:101A40001F434C6900EBC404C4F844328B69002B7B
:101A5000D0F804320ED01343C0F804320B69002BC7
:101A6000D0F8143208D01343C0F81432096A01299F
:101A700004D008E09343EFE79343F5E7D0F81C1256
:101A80001143C0F81C12D0F8001221F00101C0F877
:101A90000012002010BD000000640040704730B507
:101AA00090F82040012C05D0022C03D0416A41F46B
:101AB00080215DE00468002955D02469A40754D032
:101AC0004FF4D874056804EB01142D5915F0040582
:101AD000956005682D594ED0ED08556005682C5964
:101AE00004F00204D4604FF4DA74056804EB0114C6
:101AF0002D5905F00F05156105682D59C5F307250A
:101B0000956105682C59240C54614FF4DC7204680B
:101B100002EB0112A4581C700468A458240A5C70DB
:101B20000468A458240C9C700468A258120EDA7041
:101B30004FF4DE72046802EB0112A4581C710468B1
:101B4000A458240A5C710468A458240C9C7104688D
:101B5000A258120EDA71006881B1016941F02001CA
:101B60000161002030BDE468A8E7416A41F400113A
:101B70004162012030BD6D0D1560AFE7C16841F0D5
:101B80002001C160EDE72DE9F05F05460068002403
:101B90004669D0F804908768D0F80CB0D0F810A04F
:101BA000D0F81880F10748D0F90714D001218160DE
:101BB000B80703D5284600F030FA0CE0780702D5C4
:101BC0004FF4006407E0380702D54FF4805402E078
:101BD000284600F021FAF80516D529684FF48070E0
:101BE0008860B80503D5284600F019FA0CE078059E
:101BF00002D544F4005407E0380502D544F480448B
:101C000002E0284600F00AFAF80316D529684FF4D6
:101C100080308860B80303D5284600F002FA0CE053
:101C2000780302D544F4004407E0380302D544F4B5
:101C3000803402E0284600F0F3F9300707D55FEA68
:101C4000CB6004D52968102044F40074C860700784
:101C50004FF0080707D55FEA0B7004D52868C76006
:101C6000284600F099F9B00706D52868C0688007B3
:101C700002D0284600F092F9700607D55FEACA60E4
:101C800004D52968102044F480640861B00607D5A3
:101C90005FEA0A7004D528680761284600F08CF9CD
:101CA000F00606D528680069800702D0284600F0B3
:101CB00084F9B00308D55FEAC96005D5296810200A
:101CC0004860284600F07AF9F00307D55FEA09700A
:101CD00004D528684760284600F0A4F9300446D5AA
:101CE0005FEA497040D5F00504D55FEAC87001D0BD
:101CF00044F00104B00504D55FEA887001D544F0D2
:101D00000204700504D55FEA487001D544F004046C
:101D1000300529D518F0700F26D008F07000402843
:101D200015D006DC102809D020280AD0302816D17A
:101D30000AE050280ED0602811D10EE044F00804CB
:101D40000DE044F010040AE044F0200407E044F001
:101D5000400404E044F0800401E044F48074286806
:101D6000816921F070018161296804204860002C9C
:101D700005D0686A204368622846FFF78FFEBDE8F9
:101D8000F09F70B5040003D094F8200010B104E077
:101D9000012070BD204600F081F82068016841F004
:101DA0000101016000F03AFC0546052604E000F060
:101DB00035FC401B0A2811D820684068C007F6D0BF
:101DC0002068016821F00201016000F027FC05464F
:101DD0000BE000F023FC401B0A2806D9606A40F49F
:101DE0000030606284F82060D2E720684068800795
:101DF000EFD4207E0128206801683DD021F08001C9
:101E00000160607E01282068016838D021F040011F
:101E10000160A07E01282068016833D021F02001F4
:101E20000160E07E0128206801682ED041F0100199
:101E30000160207F01282068016829D021F0080175
:101E40000160607F01282068016824D021F004012E
:101E50000160D4E902010843D4E9041211430843A4
:101E60006168491E08432168C86100206062012042
:101E700084F82000002070BD41F08001C0E741F0EF
:101E80004001C5E741F02001CAE721F01001CFE78A
:101E900041F00801D4E741F00401D9E7F0B587B07B
:101EA000044614216846FEF735FA364B3648DFF80B
:101EB000D0E01968D4F800C0334A03250226092768
:101EC00010300024491CF44522D11960012907D1A2
:101ED000016841F000710160006800F00070059039
:101EE000106840F0080010601068CDE9005600F05E
:101EF0000800CDE9047069462448CDE9024500F0A8
:101F00008FFA00220521142000F014FC142032E086
:101F1000DFF87CE0F44530D1D0F800C04CF0806CA4
:101F2000C0F800C0D0F800C001290CF0806CCDF8DA
:101F300014C0196007D1016841F0007101600068A8
:101F400000F000700590106840F00200106010680A
:101F500002AB00F0020005906020CDE9000683E8A6
:101F6000B00069460B4800F05BFA002205214020D2
:101F700000F0E0FB402000F0CFFB07B0F0BD000018
:101F8000006400407C00002030380240000C024019
:101F9000006800400004024070470000044A0168E5
:101FA000914202D0034A914201D1FFF7A1B8704794
:101FB00000640040006800407047704770470000B0
:101FC00070B5044690F82000012804D0606A40F4FF
:101FD0000020606218E0022084F820002068016878
:101FE00021F00101016000F019FB05460EE000BF81
:101FF00000F014FB401B0A2808D9606A40F4003046
:102000006062052084F82000012070BD20684068CF
:10201000C007EDD1606270BD704770477047704770
:1020200070477047704770B54379012B1CD001266B
:1020300046710223037105682B6802F0100440F614
:10204000FE72A2409343D1E900210A43A2401A4301
:102050002A6001680A68C023A3409A430A60067197
:1020600000214171084670BD022070BD70B50400AA
:1020700003D02079002510B105E0012070BD657105
:10208000204600F007F80220207125610120207110
:10209000002070BD10B586B0044614216846FEF7D6
:1020A00039F91149206888421CD110480021026882
:1020B00042F000520260006800F0005005900B48AA
:1020C0001038026842F001020260006800F001006E
:1020D0000590102000900320CDE9010169460448D5
:1020E00000F09EF906B010BD007400404038024078
:1020F000000002402DE9F0410446876D00F08EFAA1
:10210000064694F835000025022806D08020606538
:1021100084F834500120BDE8F0812068016821F086
:10212000160101602068416921F080014161206C45
:1021300008B9A06C20B12068016821F00801016095
:102140002068016821F0010101600CE000F066FAEE
:10215000801B052807D920206065032084F83500FE
:1021600084F83450D7E720680068C007EED194F8AF
:102170005C103F208840B860012084F8350084F866
:1021800034500020C7E790F83510022903D0802191
:10219000416501207047052180F83510006801680D
:1021A00021F0010101600020704700002DE9F84393
:1021B00004464FF00009CDF8009063484FF41651E3
:1021C000A56D0068B0FBF1F72E6894F85C1008204C
:1021D00000FA01F131420FD021680A6852070BD58D
:1021E0000A6822F004020A6094F85C108840A86033
:1021F000606D40F00100606594F85C104FF00108DC
:1022000008FA01F0304208D021684969090604D56E
:10221000A860606D40F00200606594F85C100420D6
:102220008840304208D021680968890704D5A86031
:10223000606D40F00400606594F85C1010208840E8
:10224000304218D021680968090714D5A8602068B1
:102250000168490304D50068000308D5A16C07E0B4
:102260000168C90503D4016821F008010160216CEF
:1022700009B12046884794F85C10202088403042FD
:1022800031D021680968C9062DD5A86094F83500B9
:1022900005282068016806D0490347D50068000377
:1022A0001DD4616C1CE021F01601016020684169B9
:1022B00021F080014161206C08B9A06C20B1206838
:1022C000016821F00801016094F85C103F2088400B
:1022D000A86084F8358084F83490216D1FE0E16BAC
:1022E00009B120468847606D00282BD0606DC0077B
:1022F00014D0052084F835002068016821F0010120
:1023000001600098401C0090B84203D82068006823
:10231000C007F6D184F8358084F83490E16C002948
:1023200010D001B02046BDE8F04308470168C90558
:10233000D5D4016821F01001016084F8358084F85B
:102340003490CCE7BDE8F8838C0000202DE9F04103
:10235000044600F063F906465CB1022084F83500BB
:10236000002584F834502068016821F001010160E3
:102370000DE00120BDE8F08100F050F9801B052838
:1023800005D920206065032084F83500F2E7206835
:102390000068C007F0D12268116820480140D4E9E4
:1023A00001031843D4E903363343184363691843E0
:1023B000A3691843E3691843236A18430843616A11
:1023C000042903D1D4E90B13194308431060206892
:1023D0004069666A20F0070130460E430127042851
:1023E0000CD1A06A0643E06A40B12046FFF776F8B8
:1023F00020B14020606584F83570BAE720684661F6
:102400002046FFF757F894F85C203F219140816007
:10241000656584F835700020ACE700003F8010F05F
:102420002DE9F84FDFF8BCA1002201250AF1040BC9
:1024300003264FF00F090BF1040E00BF0B6805FADD
:1024400002F42340A34270D10F7907F00307012F54
:1024500001D0022F16D187684FEA420806FA08FC1D
:1024600027EA0C07D1F80CC00CFA08FC4CEA070C60
:10247000C0F808C04768A7430C79C4F3001494401F
:102480003C4344600C79E443A4070AD0C4684FEA93
:10249000420C06FA0CF7BC438F6807FA0CF7274387
:1024A000C7600C7904F00304022C12D1D40800EBAD
:1024B000840CDCF820405707FF0E09FA07F824EADD
:1024C0000804D1F8108008FA07F848EA0408CCF8A4
:1024D000208004684FEA420C06FA0CF7BC430F79DF
:1024E00007F0030707FA0CF7274307604C6814F45A
:1024F000403F70D03C4C276847F4804727602468F1
:1025000022F0030704F480440094384C07EB040CD9
:10251000DCF8084897074FEA177809FA08F7BC4330
:10252000334FB84202D1002724E054E0314FB84283
:1025300001D101271EE0304FB84201D1022719E036
:102540002E4FB84201D1032714E02D4FB84201D1DC
:1025500004270FE02B4FB84201D105270AE02A4F8C
:10256000B84201D1062705E0284FB84201D107271C
:1025700000E0082707FA08F72743CCF80878DAF8CC
:1025800000405746D1F804C09C435FEACC3C00D5DC
:102590001C433C60DBF800405F46D1F804C09C431C
:1025A0005FEA8C3C00D51C433C60DEF80040774677
:1025B000D1F804C09C435FEACC2C00D51C433C609E
:1025C000084F0C373C68D1F804C09C435FEA8C2C60
:1025D00000D51C433C60521C102AFFF42FAFBDE80D
:1025E000F88F0000003C01404438024000300140B8
:1025F000000002400004024000080240000C0240BB
:10260000001002400014024000180240001C02406A
:102610000AB1816170470904FBE700000148806846
:102620007047000080000020024881680278114451
:1026300081607047800000200B4810B5016841F4AC
:1026400000710160016841F480610160016841F43A
:1026500080710160032000F08DF80F2000F006F873
:1026600000F03EF8002010BD003C024010B50146CD
:1026700088B000221C2000F05DF81C2000F04CF80F
:1026800014480024016841F001010160006805A9B7
:1026900000F001000690684600F018F900F036F9E5
:1026A0000D494000B0FBF1F10C484FF08042491E4B
:1026B000026040F2E732C0E90324C0E9011400F0EF
:1026C000A1FB10B1012008B010BD044800F0EAFBE6
:1026D000F9E700004038024040420F00900C002013
:1026E0000C4882B0016841F480410160006800F448
:1026F000804000900748001F016841F08051016050
:102700000068002200F0805000900F21901E02B05F
:1027100000F010B844380240002809DB00F01F0226
:10272000012191404009800000F1E020C0F8001133
:1027300070470000F0B40E4B1B680C46C3F3022335
:10274000C3F10705042D00D90425191D072901D25D
:10275000002300E0DB1E012606FA05F1491E214098
:1027600099409E40761E16403143F0BC02F0D8BB23
:102770000CED00E0064900F0070208684FF6FF0381
:10278000184040EA0220034A1043086070470000E6
:102790000CED00E00000FA052DE9F0470E460500BB
:1027A00065D0DFF81481D8F80000F7B200F0070018
:1027B000B04207D288F80070D8F8000000F0070097
:1027C000B04254D128683D4C810712D5400703D54B
:1027D000206840F4E05020602878000703D5206886
:1027E00040F4604020602068A96820F0F0000843B1
:1027F00020602878C0072DD0304968680839012842
:1028000012D0022813D0032811D0096889070029A3
:102810002DDA216821F0030101432160FFF7FEFE5C
:10282000814641F2883A0EE009688903EFE70968BA
:102830008901ECE7FFF7F2FEA0EB0901514502D94F
:102840000320BDE8F0872068696800F00C00B0EB59
:10285000810FEFD1D8F80010404601F00701B142D6
:1028600007D90770006800F00700B04201D00120CE
:10287000E7E72878400705D52068E96820F4E050AC
:10288000084320602878000706D52068296920F4CD
:10289000604040EAC100206000F058F82168084A12
:1028A000C1F30311515CC84006490860064800683E
:1028B000FFF7DCFE0020C4E7003C0240083802407D
:1028C000C4CF00088C000020840000200F2202608A
:1028D0000C4A136803F003034360136803F0F0032A
:1028E0008360136803F4E053C36012684FF4E0534D
:1028F00003EAD20202610448006800F007000860A1
:102900007047000008380240003C02400448054976
:1029100000680968044AC1F38221515CC8407047CD
:102920008C00002008380240D4CF00080448054934
:1029300000680968044AC1F34231515CC8407047DD
:102940008C00002008380240D4CF0008154810B58C
:10295000006810F00C02144813D01449042A0FD058
:10296000082A0ED10F4C241F2268236802F03F0270
:102970005B0207D52068C0F38810A0FB010106E0C8
:10298000084610BD2168C1F38811A1FB0001002396
:10299000FDF776FC2168C1F30141491C4900B0FBF9
:1029A000F1F010BD083802400024F40040787D01A9
:1029B0002DE9F84F04006ED02078DFF84C93C00763
:1029C000A9F104054AD009F104000168C1F38101AD
:1029D000012908D00068C0F3810002280AD1D9F883
:1029E0000000400206D52868800337D560680028BB
:1029F000E1D033E06068B0F5803F10D0B0F5A02F93
:102A0000286810D020F480302860286820F48020C6
:102A100028606068A8B1FFF701FE06460DE028684F
:102A200040F48030F4E740F480202860F7E700BFEE
:102A3000FFF7F4FD801B642873D828688003F7D55E
:102A40000CE0FFF7EBFD064605E000BFFFF7E6FDF3
:102A5000801B6428F0D828688003F7D42078DFF83A
:102A6000AC8280074FF0000A3ED5A748001D0168E0
:102A700011F00C0F08D00068C0F3810002280BD1C0
:102A8000D9F80000400207D42868800716D5E0680E
:102A9000012800D112E033E1E068B8B10120C8F8A4
:102AA0000000FFF7BBFD064605E000BFFFF7B6FDDF
:102AB000801B0228C0D828688007F7D528682169BC
:102AC00020F0F80040EAC10028600DE0C8F800A03E
:102AD000FFF7A4FD064604E0FFF7A0FD801B0228D7
:102AE0001FD828688007F7D42078000722D5864FA2
:102AF00087486169703771B101210160FFF78EFD70
:102B0000064604E0FFF78AFD801B022809D83868D2
:102B10008007F7D50EE0C0F800A0FFF77FFD06465E
:102B200005E082E0FFF77AFD801B02287DD8386837
:102B30008007F7D42078400768D5DFF8CCB10027AC
:102B40000BF13C0BDBF80000C0000BD4DBF80010ED
:102B500041F08051CBF80010DBF80000012700F0B5
:102B6000805000906B4E3068C00510D4306840F43F
:102B700080703060FFF752FD009005E0FFF74EFDDA
:102B80000099401A022850D83068C005F6D55E4E2C
:102B9000A0686C3601280FD00528306810D020F0CE
:102BA00001003060306820F004003060A068B8B1E7
:102BB000FFF734FD00900FE0306840F00100F4E7CB
:102BC00040F004003060F7E7FFF728FD0099411A54
:102BD00041F28830814266D830688007F4D50EE033
:102BE000FFF71CFD009007E0FFF718FD0099411A60
:102BF00041F28830814256D830688007F4D42FB132
:102C0000DBF8001021F08051CBF80010A069C8B3A8
:102C10003D49091D0968C1F3810102294AD00228F2
:102C2000504607D0C8F8600000E03CE0FFF7F6FC33
:102C300004463BE04746C8F86000FFF7EFFC064655
:102C400005E000BFFFF7EAFC801B02282BD82868AC
:102C50008001F7D4D4E907010843A16A2E4A490844
:102C600002EB0141626A41EA8211084394F82C1098
:102C700040EA0161C9F8001001203866FFF7CEFC78
:102C8000044606E03EE000BFFFF7C8FC001B022838
:102C900009D828688001F7D534E000BFFFF7BEFCF3
:102CA000001B022802D90320BDE8F88F28688001A4
:102CB000F4D427E00128F7D0D9F80000E26900F445
:102CC000800191421CD1226A00F03F01914217D14C
:102CD00047F6C071626A0140B1EB821F10D1A26A4F
:102CE0004FF0FF3300F4403103EB5202B1EB024FDF
:102CF00006D194F82C1000F07060B0EB016F01D099
:102D00000120D1E70020CFE704380240000047420D
:102D1000800E4742007000400000FFFF7047704780
:102D200010B590F83C20012A22D0012280F83C20E6
:102D3000CA688C6822F4407222434C6822F4806294
:102D400022430C6822F4006222430C6922F4805270
:102D500022434C6922F400522243C969002322F421
:102D600080420A4301684A6480F83C30002010BD6C
:102D7000022010BD70B590F83C20012A32D0012409
:102D800080F83C40022280F83D2003685A689D6824
:102D900022F070060A6832435A60134B02689A4266
:102DA00014D0B2F1804F11D0104B9A420ED0104B7C
:102DB0009A420BD00F4B9A4208D00F4B9A4205D043
:102DC0000E4B9A4202D00E4B9A4204D1496825F02C
:102DD00080031943916080F83D40002180F83C1049
:102DE000084670BD022070BD000001400004004094
:102DF00000080040000C0040000401400040014079
:102E00000018004010B5040003D094F83D0010B144
:102E100007E0012010BD002084F83C00204600F0AF
:102E20001FF8022084F83D00211D206801F058FDA4
:102E3000012084F8460084F83E0084F83F0084F8BE
:102E4000400084F8410084F8420084F8430084F88C
:102E5000440084F8450084F83D00002010BD0000C7
:102E600008B500680C49884208D10C48016841F057
:102E700001010160006800F001000BE00849884290
:102E800009D10648001F016841F002010160006895
:102E900000F00200009008BD0000014044380240EC
:102EA0000004004090F83D10012901D00120704736
:102EB000022180F83D100168CA6842F00102CA6030
:102EC00000681149884214D0B0F1804F11D00F49E9
:102ED00088420ED00E4988420BD00E49884208D055
:102EE0000D49884205D00D49884202D00C498842DC
:102EF00004D1816801F00701062903D0016841F07F
:102F00000101016000207047000001400004004002
:102F100000080040000C0040000401400040014057
:102F20000018004070B5044690F83C0000250128C8
:102F300017D0012684F83C60022084F83D00206808
:102F4000826822F0770222F47F428260086850286B
:102F500038D00DDC20284FD005DC90B3102811D1DB
:102F60004AE0022070BD302846D040280AD13BE01C
:102F700060282FD070280DD0B0F5805F03D0B0F559
:102F8000005F12D0012584F83D60002084F83C00E9
:102F9000284670BDCB68D1E90121206801F004FD0D
:102FA0002068816841F0770109E0CB68D1E901210F
:102FB000206801F0F9FC2068816841F4804181605B
:102FC000E1E719E0CA684968206801F0C1FD5021B5
:102FD000206806E0CA684968206801F0CAFD6021DF
:102FE000206801F0EBFCCEE7CA684968206801F070
:102FF000AFFD40212068F4E7226801461046F0E763
:10300000704770B50446006801694FF00005C94378
:10301000890715D4C168C943890711D4E91E016124
:1030200001202077206880698007204602D0FFF7C2
:10303000E7FF04E000F0DAF8204600F06CF92577AD
:1030400020680169C943490717D4C168C9434907C2
:1030500013D46FF004010161022020772068806999
:1030600010F4407F204602D0FFF7CAFF04E000F0D2
:10307000BDF8204600F04FF9257720680169C94363
:10308000090716D4C168C943090712D46FF00801B3
:103090000161042020772068C0698007204602D0A3
:1030A000FFF7AEFF04E000F0A1F8204600F033F98E
:1030B000257720680169C943C90617D4C168C94387
:1030C000C90613D46FF01001016108202077206831
:1030D000C06910F4407F204602D0FFF791FF04E062
:1030E00000F084F8204600F016F925772068016981
:1030F000C943C90708D1C168C943C90704D1891E9A
:103100000161204600F008F920680169C9430906F9
:1031100009D4C168C943090605D46FF08001016173
:103120002046FFF7FBFD20680169C943490609D421
:10313000C168C943490605D46FF0400101612046CA
:1031400000F0F1F820680169C94389060BD4C16811
:10315000C943890607D46FF0200101612046BDE80C
:103160007040FFF7DCBD70BD10B586B00446142179
:103170006846FDF7CFF82368174C00211748022254
:10318000A34211D1036843F010030360006800F00C
:103190001000059090020090CDE901210120CDE9B9
:1031A000031069460E4812E00E4CA34211D1036889
:1031B00043F001030360006800F001000590C020A7
:1031C0000090CDE90121CDE9031269460648FFF7D9
:1031D00027F906B010BD0000000001403038024061
:1031E000001002400004004000000240704770B52B
:1031F000044690F83C0000260D4601280FD001201F
:1032000084F83C006AB1042A1DD0082A2FD00C2A69
:103210003FD00126002084F83C00304670BD0220DB
:1032200070BD206801F0D2FB2068816941F008017F
:1032300081612068816921F00401816120688169D0
:103240002A69114311E0206801F0F0FB20688169D0
:1032500041F4006181612068816921F480618161AC
:10326000206881692A6941EA02218161D2E72068E8
:1032700001F012FC2068C16941F00801C1612068B9
:10328000C16921F00401C1612068C1692A69114343
:1032900011E0206801F034FC2068C16941F400614C
:1032A000C1612068C16921F48061C1612068C16980
:1032B0002A6941EA0221C161ACE710B5040003D0DC
:1032C00094F83D0010B107E0012010BD002084F803
:1032D0003C00204600F01EF8022084F83D00211D2D
:1032E000206801F0FDFA012084F8460084F83E00D1
:1032F00084F83F0084F8400084F8410084F84200DC
:1033000084F8430084F8440084F8450084F83D00C4
:10331000002010BD704770470068B0F1804F01D1A8
:10332000FFF782B97047704770477047F8B501687A
:1033300004460868CA684B6910F00F0F4FF000058B
:1033400059D003F0010602F49077374365D0C107E6
:1033500005D0D10503D5216C41F00101216441075D
:1033600005D5D90703D0216C41F002012164810702
:1033700005D5D90703D0216C41F004012164010770
:1033800007D502F02001314303D0216C41F0080140
:103390002164216C00293AD0800604D5900602D51C
:1033A000204601F027FC20684069216CC0F38010A2
:1033B000090700D460B3204601F0F5FB206840699E
:1033C000400621D52068143050E8001F21F040014C
:1033D00040E80012002AF5D1A06BA8B16C49016544
:1033E000A06BFEF7D0FE002811D0A06B016D01B0DC
:1033F000BDE8F040084783060FD593060DD520465B
:10340000BDE8F84001F0F6BB2046FFF78EFFF8BD9F
:103410002046FFF78AFF2564F8BD266B2023012E86
:1034200079D1C60677D5D60675D508684868009064
:103430004869400640D5A16B086840680004000C4C
:10344000EAD0A28D8242E7D9E085C869B0F5807FD5
:103450002DD020680C3050E8001F21F4807140E826
:103460000012002AF5D12068143050E8001F21F026
:10347000010140E80012002AF5D12068143050E81C
:10348000001F21F0400140E80012002AF5D184F825
:103490003E30256320680C3050E8001F21F01001F9
:1034A00040E80012002AF5D1A06BFEF723FEA08DA4
:1034B000E18D401A81B229E0A08DE18D401A81B2E0
:1034C000E08D0028A8D00029A6D020680C3050E854
:1034D000002F22F4907240E80026002EF5D12068DB
:1034E000143050E8002F22F0010240E80026002EA0
:1034F000F5D184F83E30256320680C3050E8002F69
:1035000022F0100240E80023002BF5D12046FFF7FF
:103510000BFFF8BDFFE705062BD5150629D594F856
:103520003D002128F5D1A068B0F5805F01D1206968
:10353000B0B1206A411C2162216800784860E08CAB
:10354000401E0004000CE084E3D12068C16821F033
:103550008001C1602068C16841F04001C160D8E7C6
:10356000206A0088C0F308004860206A801C20623E
:10357000E5E74006CDD55006CBD5CA68204622F0F7
:103580004002CA6084F83D3000F0C1F9C1E7000094
:10359000974B000870B5040004D094F83D00002556
:1035A00010B106E0012070BD84F83C50204600F0C8
:1035B00023F8242084F83D002068C16821F40051DC
:1035C000C160204601F076FB2068016921F490413A
:1035D00001612068416921F02A0141612068C168C8
:1035E00041F40051C1602564202084F83D0084F836
:1035F0003E00002070BD00002DE9F04F87B0054669
:1036000014216846FCF786FEB548DFF8D0821038F2
:103610000222D5F800C0B24B0321DFF8C8A2002473
:10362000960607154FF0010E4FF00809C44539D131
:10363000D3F800C04CF4002CC3F800C01B6803F49E
:1036400000230593036843F001030360006800F062
:10365000010005908DE80640CDE903196946504602
:10366000FEF7DEFEDFF884829F494046C8F800106E
:10367000C0E90164C0E90347C8F81440C8F818401D
:10368000C8F81C40C8F82040C8F82440FEF75EFE89
:1036900008B1FDF798FFC5F83880C8F8385007B072
:1036A000BDE8F08FDFF84882C4456FD1D3F800C081
:1036B0004CF4801CC3F800C01B6803F4801305930E
:1036C000036843F004030360036803F004030593F5
:1036D000036843F00803036000688A4600F00800AE
:1036E00005904FF48050CDE90002CDE902EA9346FF
:1036F000F0466946CDF810907E48FEF791FE042012
:10370000CDE9000BCDE9028A6946CDF810907A48E0
:10371000FEF786FEDFF8D4A173490AF1600A30395A
:103720005046CAF80010C0E90164C0E90347B0463A
:10373000CAF814404FF44036CAF81840CAE90746A0
:10374000B946CAF82440FEF701FE08B1FDF73BFF79
:10375000664F6548C5F838A0C0377830CAF8385089
:10376000E7E802084020A7E81102604847F814493A
:10377000C030BC61C7E907467C62FEF7E7FD08B1CF
:10378000FDF721FF6F63BD6389E7FFE7DFF86C8119
:103790004FF0070BC44543D1514B1B1DD3F800C05C
:1037A0004CF0100CC3F800C01B6803F01003059325
:1037B000036843F0010303600068CDE9024100F0B3
:1037C000010005904FF4C060CDE90002CDF810B0C3
:1037D00069465046FEF724FEDFF8288148494046F6
:1037E000C8F80010C0E90164C0E90347C8F81440F4
:1037F0004FF40031C8F81840C8E90741C8F8244020
:10380000FEF7A4FD08B1FDF7DEFEC5F83880002202
:1038100005212520C8F83850FEF78CFF25205AE0F6
:10382000DFF8E480C445AFD1D3F800C04CF4003CCD
:10383000C3F800C01B6803F400330593036843F02A
:1038400001030360036803F001030593036843F079
:10385000080303600068CDF8009000F00800884677
:10386000CDE904B0CDE9024891466946019250463F
:10387000FEF7D6FD2020CDE900090DF1080C6946C0
:103880008CE810091C48FEF7CBFDDFF8788016495C
:1038900008F1600848314046C8F80010C0E90164EA
:1038A000C0E90347C8F814404FF44031C8F8184045
:1038B000C8E90741C8F82440FEF748FD08B1FDF704
:1038C00082FEC5F83880002205212620C8F838502D
:1038D000FEF730FF2620FEF71FFFE0E6004C004019
:1038E000403802400000024040600240B00A002020
:1038F0000050004000080240000C0240001001404F
:1039000040640240D00B00200044004070477047E4
:10391000FEE7000070B50D4C0025C4F8B4520C4809
:10392000016821F040410160016841F0804101607F
:10393000C4F8BC52022004F52D7403F037F80120BE
:103940002060022003F032F8256070BD0080404204
:103950000004024070B50D4C0025C4F8B4520C4868
:10396000016821F040410160016841F0804101603F
:103970000126C4F8BC62022004F52D7403F016F889
:103980002660022003F012F8256070BD00804042DE
:10399000000402402DE9F0478146164800240168E2
:1039A00021F04041016001680160134E2546274621
:1039B0004FF00108C6F8B472022002F0F7FFC6F813
:1039C000B4826006040ED6F83C0208B1641CE4B26E
:1039D000012002F0EBFF6D1CEDB2082DEAD3B9F126
:1039E000000F04D0FFF796FF2046BDE8F087FFF7F1
:1039F000B1FFF9E700040240008040422DE9F041A8
:103A000006461448016821F040410160016841F018
:103A100080410160104C0027C4F8B4723D464FF05D
:103A20000108F009C4F8BC027006060E022002F07C
:103A3000BDFFC4F8B482022002F0B8FFC4F8B4722B
:103A4000022002F0B3FF6D1CEDB2082DE9D3BDE8F2
:103A5000F0810000000402400080404270B50D4833
:103A6000016821F040410160016841F0804101603E
:103A7000094C0120C4F8BC02C4F8B402042004F5C7
:103A80002D7402F093FF0025A560042002F08EFF44
:103A9000256070BD00040240008040420E4810B511
:103AA000016821F040410160016841F080410160FE
:103AB0000A4C0020C4F8B402C4F8BC02042004F587
:103AC0002D7402F073FF01202060A060BDE810405B
:103AD000042002F06BBF000000040240008040425E
:103AE00070B512480024016821F04041016001686E
:103AF00001600F4D0126C5F8BC62304602F056FF4A
:103B0000C5F8B462012002F051FF07E0641CE4B282
:103B1000FA2C03D9FFF7C2FF012070BDD5F83C0293
:103B20000028F3D1C5F8B40270BD000000040240C3
:103B30000080404270B50546FFF790FF0F4C20789B
:103B40004006000EFFF75AFFFFF7CAFF2846FFF7AF
:103B500055FFFFF7C5FFFFF781FF2078012101EB3B
:103B60004000C0B2FFF74AFFFFF7BAFF0020FFF79F
:103B700011FF0446FFF792FF204670BD6C00002045
:103B80002DE9F04116460D460746FFF767FF134C37
:103B900020784006000EFFF731FFFFF7A1FF3846FF
:103BA000FFF72CFFFFF79CFFFFF758FF207801215C
:103BB00001EB4000C0B2FFF721FFFFF791FF0024A7
:103BC00006E00120FFF7E6FE641C05F8010BE4B2F5
:103BD000B442F6D3BDE8F041FFF760BF6C000020AF
:103BE0007FB500241548009401940294124903946F
:103BF00001604FF48031C0E901140461047680F85B
:103C000020400F49C0E90A140125C561C46080F84D
:103C100030404561FDF7ECFD08B1FDF7D4FC0A200A
:103C2000CDE90005694602940448FDF73BFD0028F4
:103C300001D0FDF7C8FC7FBD00200140B408002082
:103C40000100000F104810B50E49016003214160CA
:103C500000214FF400228160C0E903124FF44012AA
:103C60004261017641768176C17601770121417703
:103C7000FEF787F8002803D0BDE81040FDF7A3BC8D
:103C800010BD00000064004064080020104810B51A
:103C90000E4901600321416000214FF40022816040
:103CA000C0E903124FF440124261017641768176F9
:103CB000C176017701214177FEF763F8002803D030
:103CC000BDE81040FDF77FBC10BD0000006800405B
:103CD0008C0800201CB500240C4900940A4801946B
:103CE00008600846FEF7C2F908B1FDF76CFC022037
:103CF000CDE90040002269460448FEF794F9002807
:103D000001D0FDF760FC1CBD00740040FC080020E1
:103D10001D4808B5016841F400110160016801F413
:103D200000110091016841F48001016000680022E7
:103D300000F48000009005210B20FEF7FBFC0B2017
:103D4000FEF7EAFC002205210D20FEF7F3FC0D2012
:103D5000FEF7E2FC002205211020FEF7EBFC10200C
:103D6000FEF7DAFC002205212F20FEF7E3FC2F20CE
:103D7000FEF7D2FC002205213A20FEF7DBFCBDE86D
:103D800008403A20FEF7C8BC3038024010B58EB06B
:103D90001C220B496846FCF7A4FA0021684604F08F
:103DA00011F9084C06491C2220601C3107A8FCF7B9
:103DB00098FA002107A804F005F960600EB010BD64
:103DC00084CF0008740000202DE9F04F87B0142143
:103DD0006846FCF79FFA40480024016841F004015E
:103DE0000160016801F004010591016841F0800162
:103DF0000160016801F080010591016841F0010155
:103E00000160016801F001010591016841F01001B4
:103E10000160016801F010010591016841F00201A3
:103E20000160016801F002010591016841F008019B
:103E300001600068DFF8A48000F00800059001220E
:103E40004FF4C0414046FEF7E3FBDFF894900022B8
:103E500024214846FEF7DCFBDFF888A04FF420461B
:103E6000012231465046FEF7D3FBDFF87CB04FF419
:103E70000077002239465846FEF7CAFB00224FF46D
:103E800040614046FEF7C4FB4FF4D8400090012546
:103E9000CDE90154694640460394FEF7C1FA242057
:103EA0000090CDE90154694648460394FEF7B8FAFC
:103EB0000320CDE90240CDE9006569465046FEF792
:103EC000AFFA0097CDE90154694658460394FEF7CE
:103ED000A7FA07B0BDE8F08F303802400008024072
:103EE0000000024000040240000C024010B596B0F1
:103EF00000240F9410941194129413941C2108A878
:103F00001494FCF707FA20216846FCF703FA2948C5
:103F10002749016040F61F51C0E9011440F2E73122
:103F2000C0E9031444618461FEF76CFF08B1FDF73A
:103F30004AFB4FF480500F900FA91E48FEF7F2FF86
:103F400008B1FDF740FB1B48FFF7B7F908B1FDF7D3
:103F50003AFB139413A917481494FEF70BFF08B10A
:103F6000FDF731FB6020CDE908040A940B940C9412
:103F70000D94042208A90F480E94FFF738F908B1F0
:103F8000FDF721FB00944FF40050CDE9044002946A
:103F900001940394694607480794FEF7C1FE08B1EF
:103FA000FDF711FB0348FFF7DFF816B010BD000066
:103FB000000001401009002010B58EB000240794C5
:103FC000089409940A940B941C2168460C94FCF7FD
:103FD000A1F92248204901605321C0E9011440F6AB
:103FE000C311C0E903148461FEF70CFF08B1FDF7AB
:103FF000EAFA4FF48050079007A91848FEF792FF9D
:1040000008B1FDF7E0FA1548FFF757F908B1FDF7D9
:10401000DAFA0B940BA911480C94FEF7ABFE08B129
:10402000FDF7D1FA6020CDE9000402940022694630
:104030000A480494FFF7DBF808B1FDF7C4FA04223C
:1040400069460648FFF7D3F808B1FDF7BCFA034804
:10405000FFF78AF80EB010BD000400405809002098
:104060000C4810B50A4901604FF4E131416000216C
:1040700081600C22C160C0E904128161C161FFF757
:1040800089FA002803D0BDE81040FDF79CBA10BDA6
:10409000004C0040A00900200C4810B50A490160FE
:1040A0004FF4E1314160002181600C22C160C0E920
:1040B00004128161C161FFF76DFA002803D0BDE8E9
:1040C0001040FDF780BA10BD00500040E409002008
:1040D0000C4810B50A4901604FF4E13141600021FC
:1040E00081600C22C160C0E904128161C161FFF7E7
:1040F00051FA002803D0BDE81040FDF764BA10BDA6
:1041000000100140280A00200C4810B50A4901603F
:104110000B494160002181600C22C160C0E904129A
:104120008161C161FFF736FA002803D0BDE8104075
:10413000FDF749BA10BD0000004400406C0A0020A1
:10414000A0860100FEE7000070B50C480C4C00682A
:10415000017A032901D100216170007A012800D180
:104160006070084D6078A978884203D0FDF74CFA5A
:10417000FDF782FA6078A87070BD000094010020FD
:1041800078510020EC01002010B5FCF727FFFCF768
:104190007DFF02F017FA00F0FBF8024901200870D9
:1041A00010BD0000EE01002010B500F0B7F8274C5C
:1041B000002000BF00EB8001C1EB801104EB810205
:1041C000401C92ED140A0428BDEEC00A10EE102A1D
:1041D00024F82120EEDB00F08FFA00F06BF81C4B86
:1041E000002000BF00EB8001C1EB801134F82120DA
:1041F00004EB810123F810204A7E401C521C4A76B1
:104200000428EFDB124C00201249083400EB0012A6
:10421000C2EBC01231F8223024F8103001EB8203D7
:10422000401C5A7E521C5A760228EFDB084A4FF493
:1042300000710948FCF788FF054ABDE810400832C4
:1042400040F2FF110448FCF77FBF0000C84900207E
:1042500068010020784D00206408002070B5438874
:10426000848A01691A1BB2F5805F01DD491E03E0F3
:1042700012F5805F01DA491C0161C58A03EB413107
:104280004D1BC560A34202D202F5005101E0A2F528
:104290000051002901DD0C4600E04C42002A01DDFE
:1042A000164600E05642B44200DB11462944C16084
:1042B000838270BD70B50020164901234FEA0002C9
:1042C00000EB8004C4EB801501EB8504667E322E82
:1042D00001D3237602E0247E012C01D121F8252090
:1042E000401C0428ECDB0C49002000BF00EB00144C
:1042F000C4EBC01501EB8504667E322E01D3237614
:1043000002E0247E012C01D121F82520401C022846
:10431000ECDB70BDC8490020784D002070B5194D08
:10432000002400BF04EB0410C0EBC41005EB8000B8
:10433000FFF794FF641C022CF4DB03F02FFB02F068
:1043400061F9114E114D002456F8240000EE100AB8
:1043500004EB8400C0EB8410B8EEC00A05EB8001CA
:1043600081ED080AB1F9040000EE100A01F11C0009
:10437000D1F88010B8EEC00A8847641C042CE3DB37
:1043800070BD0000784D002068510020C849002011
:104390002DE9F04F00262DED048B83B03446DFF875
:1043A00010B24FF4FA5A9FED838A9FED839ADFEDA6
:1043B000838A00BF06EB8600C0EB8611804800EBC5
:1043C000810505F11C00804603F0A8FE05F184007C
:1043D000814603F0A3FECDE9004A0294BBF8000039
:1043E000D5F878C082B257464046F0EE481AB0EE93
:1043F000491AF1EE080AB0EE080A40F6B833012176
:10440000E047CDE900470294D5F8E05064234846E0
:10441000F2EE041AB0EE481AF0EE680AB2EE040AA0
:104420003A460021A847761C042EC3DB654D0026C2
:1044300006EB0610C0EBC61005EB800707F11C0069
:1044400003F06CFE07F1840003F068FE07F1EC0056
:1044500003F064FE07F5AA7003F060FE761C022EDE
:10446000E6DBCDE9004A0294BBF8040056465F46FD
:1044700082B2F0EE481A9FED549A524840F6B8388E
:104480000121D5F878C0B0EE491AF3EE040AB0EE77
:10449000080A43461C30E047CDE9004602944948EB
:1044A00064230021D5F8E0C0F3EE0E1AB0EE481AEE
:1044B000F2EE0E0AB0EE480A32468430E047CDE90B
:1044C00000460294B888D5F834C282B2F0EE481A99
:1044D000B0EE491AF3EE040AB0EE080A4346012191
:1044E0003A48E047CDE90046029438486423002169
:1044F000D5F89CC2F0EE481AB0EE481AF2EE0E0A59
:10450000B0EE480A32466830E047CDE900460294F2
:10451000B888012182B22B48D5F848C1F0EE481A7C
:10452000B0EE491AF3EE040AB0EE080A4346EC3046
:10453000E047CDE900460294244864230021D5F8E1
:10454000B0C1F0EE481AB0EE481ADFED210AB0EE25
:10455000480A32468438E047CDE900460294B888DC
:10456000012182B21948D5F80473F0EE481AB0EE72
:10457000681AF3EE040AB0EE080A4346D030B84792
:10458000CDE9004602946423D5F86C43F0EE481A56
:10459000B0EE481ADFED0F0AB0EE480A32460021AD
:1045A0000D48A04703B0BDEC048BBDE8F08F0000C0
:1045B00060010020000000000AD7233C9A99993E30
:1045C000C8490020784D0020CDCC4C3E504F0020F3
:1045D00000007A430000824388500020FEE700007C
:1045E0000F4841F28832B0F8BE110E48914208D20D
:1045F000B5EEC00AF1EE10FA03D2DFED0B0AC0ED02
:10460000050A41F65832914208D9B5EEC00AF1EEDA
:1046100010FA03DDB3EE040A80ED050A70470000CE
:10462000784D0020C0010020000004C20A7802700A
:10463000D1F80120097912BA22F0FF020A4300EEF4
:10464000102AF2EE040AB8EEC00A80EE201A80EDBD
:10465000011A7047084800210268118002685180E1
:10466000026891800268D180036803221A7203688D
:104670005A720068818270479401002010B5FFF7DC
:10468000E9FF1A4B1A491A786AB99FED1A0A0020F5
:1046900000EB8004C4EB801401EB8404401C84ED27
:1046A000080A0428F4DBB1F904001D303A2811D8B7
:1046B000B1F9F0001D303A280CD8B1F9DC011D30F9
:1046C0003A2807D8B1F9C8021D303A2802D801208B
:1046D000187000E01AB1FCF76DFDFCF7C5F9FCF7A6
:1046E00075FFBDE81040FCF771BF0000EC01002031
:1046F000C84900200000000010B5084C207E0128A9
:1047000001D1FFF7BBFF06484178012903D1217E83
:1047100009B900210170217E417010BD9401002073
:10472000EC01002070B58EB00646002502468DF8DB
:1047300000500121684601F00DFA01F01FF93246E0
:104740000121042001F0C6FC044601F017F984B9E8
:104750000C208DF8020002208DF8030001208DF856
:1047600005508DF8040001463246684601F0BCFD54
:1047700004460EB0204670BD70B58EB001240646CA
:1047800002468DF800402146684601F0E3F901F049
:10479000F5F832460221042001F09CFC054601F0A8
:1047A000EDF895B90C208DF8020000208DF8060078
:1047B00002208DF803008DF807408DF80440324642
:1047C0000121684601F090FD05460EB0284670BDF7
:1047D000064C074D0548E1688847696904488847E1
:1047E000FFF7B2FC012003F0E1FBF3E740010020FA
:1047F00094010020FFF7D8FC012003F0D7FBF9E774
:1048000010B5502080F31188BFF34F8FBFF36F8F27
:1048100006F0CAFA18B104494FF080500860002031
:1048200080F3118810BD000004ED00E030B593B0B6
:1048300030216846FBF76EFD14210CA8FBF76AFDDA
:104840001E480025016841F080510160006800F0B9
:10485000805011901A48016841F48041016000685D
:10486000022400F480401190012000900004019087
:104870008001CDE90640192008904FF4A870CDE9D9
:10488000090404200B906846FEF792F808B172B64E
:10489000FEE70CA90F2081E831004FF4A0500F90E3
:1048A0004FF48050109005210CA8FDF775FF0028EB
:1048B00001D072B6FEE713B030BD000040380240B0
:1048C000007000400248016841F4700101607047C7
:1048D00088ED00E00148FEF794BB0000900C00203A
:1048E000F0B50268254C264D264E274F274B4FF03A
:1048F000804CA04209D0604507D0A84205D0B04204
:1049000003D0B84201D0984204D122F0700E4A6818
:1049100042EA0E02A0421BD0604519D0A84217D02F
:10492000B04215D0B84213D0984211D0184DA842C9
:104930000ED0184DA8420BD0174DA84208D0174DE5
:10494000A84205D0164DA84202D0164DA84203D168
:1049500022F44075CA682A434D6922F080022A4336
:1049600002608A68C2620A688262A04201D09842EC
:1049700001D10969016301214161F0BD00000140DD
:104980000004004000080040000C0040000401400A
:104990000040014000440140004801400018004030
:1049A000001C00400020004010B5846842EA032249
:1049B00024F47F440A432243826010BD826822F0BF
:1049C00070020A4342F0070181607047F0B5026A45
:1049D00022F001020262036A42688469124E24F0E6
:1049E00073050C682C4323F002058B682B430D4D97
:1049F000A84201D0B04205D123F00807CB683B4361
:104A000023F00403A84201D0B04205D14D6922F43D
:104A1000407215438A692A43426084614968416350
:104A20000362F0BD0000014000040140F0B5026ADD
:104A300022F010020262026A436884690D6824F45D
:104A4000E64444EA05248D6822F0200242EA051279
:104A50000F4D104EA84201D0B04206D1CF6822F0CF
:104A6000800242EA071222F04002A84201D0B0427E
:104A700007D14D6923F4406343EA85038D6943EA16
:104A8000850343608461496881630262F0BD000070
:104A90000000014000040140F0B5026A22F4807277
:104AA0000262026A4368C46922F4007224F073054A
:104AB0000C68124E2C438D6842EA05220E4DA84226
:104AC00001D0B04206D1CF6822F4006242EA072248
:104AD00022F48062A84201D0B04207D14D6923F48C
:104AE000405343EA05138D6943EA05134360C461EB
:104AF0004968C1630262F0BD00000140000401404A
:104B000030B5026A22F480520262046A4268C369C4
:104B10000D6823F4E64343EA05238D6824F400542A
:104B200044EA0534084DA84202D0084DA84204D1F9
:104B30004D6922F4804242EA85124260C3614968AD
:104B40000164046230BD0000000001400004014027
:104B500010B5036A046A24F001040462846924F035
:104B6000F00444EA021423F00A020A438461026258
:104B700010BD10B5036A23F0100303628369046A51
:104B800023F4704343EA023224F0A00343EA011104
:104B90008261016210BD10B5806B0021C185C184A6
:104BA000FEF7C3FB10BD01680C3151E8002F22F461
:104BB000907241E80023002BF5D10168143151E8CF
:104BC000002F22F0010241E80023002BF5D1016BF8
:104BD000012909D101680C3151E8002F22F010029F
:104BE00041E80023002BF5D1202180F83E10002160
:104BF0000163704708B590F83E10222901D00220C9
:104C000008BD82684FF480539A4201D1016921B1F5
:104C1000816A9A421BD04AB10AE00268816A5268EE
:104C2000C2F308020A80816A891C08E0026972B135
:104C30000268526802F07F020A70816A491C816230
:104C4000C18D491E0904090CC18503D019E0026811
:104C50005268F1E70168CA6822F02002CA60016860
:104C6000CA6822F48072CA6001684A6922F00102AF
:104C70004A61202180F83E10016B012903D0FEF724
:104C800045FE002008BD0021016301680C3151E898
:104C9000002F22F0100241E80023002BF5D101681B
:104CA0000A68D20602D50A6849680091818DFEF72C
:104CB0003BFBE6E770B5044600680169E26821F451
:104CC0004051114301612169A068E26908436169AB
:104CD000114308432168CA6849F20C639A430243AE
:104CE000CA6020684169A26921F4407111434161A1
:104CF00031492068884202D03049884202D1FDF70C
:104D000015FE01E0FDF702FEE2690023192164258A
:104D10003226B2F5004F626828D0A0FB0101930F44
:104D20009200FBF7ADFA0146B0FBF5F06FF0180208
:104D3000504301EB800006EB0010B0FBF5F000F0F3
:104D4000F002B1FBF5F002EB0012B1FBF5F06FF0F1
:104D50001803584301EB800006EB0010B0FBF5F0A0
:104D600000F00F0021681044886070BDA0FB0101B5
:104D700092185B41FBF784FA0146B0FBF5F00201A3
:104D8000B1FBF5F06FF01803584301EB800006EB20
:104D9000C000B0FBF5F000F0F80002EB4002B1FB00
:104DA000F5F0584301EB800006EBC000B0FBF5F0D6
:104DB00000F00700D6E70000001001400014014099
:104DC0000148FEF7B3BA0000280A00200B4882B061
:104DD00001680A684A680092CA6842F01002CA6014
:104DE00001684A6942F040024A610168806B4FF4F1
:104DF000AF73034A091D02B0FCF79ABB280A0020D2
:104E0000F00200207047000010B50448FCF7D0FB0A
:104E1000BDE810400148FEF789BA00006C0A002086
:104E20000C4808B501680A684A680092CA6842F0EE
:104E30001002CA6001684A6942F040024A611221C8
:104E400000910168044B806BA3F11802091DFCF767
:104E50000FFA08BD6C0A00206604002010B5054C4E
:104E600001462046E268904720462169BDE810408F
:104E700008470000940100200B4882B001680A68CE
:104E80004A680092CA6842F01002CA6001684A6922
:104E900042F040024A610168806BC823034A091D41
:104EA00002B0FCF745BB0000A00900207E040020F2
:104EB000704700000B4882B001680A684A68009297
:104EC000CA6842F01002CA6001684A6942F04002B2
:104ED0004A610168806BC823034A091D02B0FCF7D0
:104EE00027BB0000E4090020460500207047FEE7CC
:104EF00003B401984100009850EAC12018BF042073
:104F00004A0D18BF40F0010040F2FF72B2EB515F52
:104F100008BF40F00200012808BF052002B070471A
:104F20000907090E002804DB00F1E02080F80014D6
:104F3000704700F00F0000F1E02080F8141D70476A
:104F400070B5C1482DED020B2DED0E8B82B0119D79
:104F500025F000449FEDBEDB9FEDBFEB84423EDBBE
:104F6000A4F140511098A1F17F6108430FD0BC48D3
:104F7000844202DC28D1109830B39DED100B02B0B2
:104F8000BDEC0E8B02B0BDE8704000F069BC9DED39
:104F9000100B53EC1D2B51EC100BFBF7C6F99DEDDC
:104FA000100B41EC180B53EC1E2B51EC100BFBF7C4
:104FB000BCF953EC182BFBF70CFB41EC100B02B0C7
:104FC000BDEC0E8B02B070BD012000F08DFC02B074
:104FD000BDEC0E8B02B0BDE8704000F055BCA1489E
:104FE0009FEDA18B844256DA9DED100BB4F1795FF1
:104FF0000ADA51EC100BFFF77BFF042808BF00F022
:1050000053FC9DED100BDAE753EC102B51EC100B19
:10501000FBF78BF941EC190B95480621B0EE490AD4
:10502000F0EE690A784400F09FFB53EC192B51EC29
:10503000100BFBF77AF941EC1A0B8E48B0EE490AD7
:10504000F0EE690A0421784400F08EFB53EC192B32
:1050500051EC100BFBF769F953EC182BFBF7B9FA7D
:1050600041EC100B51EC1A0B53EC102BFBF758FBD7
:10507000CDE900019DED000B53EC102B9DED100BC5
:1050800051EC100BFBF751F99DED101B53EC112B5C
:10509000FBF79FFAD2E09DED100B51EC100B01F0E5
:1050A000C4FC53EC182BFBF738FB9FED730BCDE9D9
:1050B000000153EC102B9DED000B51EC100BFBF796
:1050C00034F941EC190B6E480621B0EE490AF0EEB6
:1050D000690A784400F048FB53EC192B51EC100B93
:1050E000FBF723F941EC1B0B6648B0EE490AF0EEE2
:1050F000690A0421784400F037FB53EC192B51EC7A
:10510000100BFBF712F953EC182BFBF762FA41EC8A
:105110001C0B51EC190B05F0B1FA41EC180B5A4875
:105120009FED5BABA04222DC53EC1C2B51EC1B0B24
:10513000FBF7F6FACDE900019DED000B51EC180BE1
:1051400053EC102BFBF7F1F853EC182BFBF741FA5B
:1051500053EC1A2BFBF7E9F853EC1D2BFBF7DAFAAB
:1051600053EC1E2BFBF7D9FA41EC100B5FE08DEDF1
:10517000008B002000909DED000B51EC180B53ECC0
:10518000102BFBF726FA9DED000B41EC1E0B53ECA8
:10519000102B51EC100BFBF7C8F853EC192BFBF755
:1051A000BCFA53EC1E2BFBF7BBFA41EC190B53EC8A
:1051B0001C2B51EC1B0BFBF7B3FA41EC1B0B53EC14
:1051C0001A2B51EC190BFBF7B0F853EC1D2BFBF726
:1051D000A4FA41EC190B53EC1A2B51EC180BFBF70A
:1051E000A4F853EC1B2BFBF7A0F853EC192BFBF79F
:1051F00091FA9DED000B41EC180B53EC1A2B51EC7E
:10520000100BFBF792F89FED249B53EC192BFBF747
:1052100084FA41EC100B51EC180B53EC102BFBF7FC
:1052200079FA53EC192BFBF778FA41EC100B002DAF
:105230003FF7C5AE51EC100B81F0004141EC100B73
:10524000BDE60000000000000000F03F000000008C
:10525000075C143326A6913C182D4454FB21F93FDA
:105260000000F07F0000E03F000000000000F03F81
:10527000B87F0000C67F0000000000000000E03F93
:105280000A7F0000187F00003333EF3F000000006A
:105290000000000000000040182D4454FB21E93FAD
:1052A00070B59B482DED020B2DED068B079D25F06B
:1052B0000044A04218DC9748844202DC0AD10698D8
:1052C00040B19DED060BBDEC068B02B0BDE8704011
:1052D00000F0C6BA002DCCBF9FED8F0B9FED900B59
:1052E000BDEC068B02B070BD8F48A04215DD8F4823
:1052F000A042D8BF4FF0FF3458DD9DED060B51ECB6
:10530000100BFFF7F5FD042808BF00F0CDFA9DED66
:10531000060BBDEC068B02B070BD9DED060B51EC8B
:10532000100B01F082FBCDE9060181489FED828BD5
:10533000A0423CDD8248A0421FDD00249FED82ABED
:105340009DED060B53EC1A2B51EC100BFBF741F9BA
:105350009DED060B41EC190B53EC1A2B51EC100B85
:10536000FAF7E3FF53EC182BFBF7D4F953EC192BA6
:10537000FBF7D6F9CDE9060149E09DED060B0124C6
:1053800053EC182B51EC100BFBF723F99DED060B9A
:1053900041EC190B53EC182B51EC100BFBF7BAF93D
:1053A00053EC192BFBF7BCF9CDE906012FE0684857
:1053B000A0421FDD02249FED689B9DED060B53EC80
:1053C000192B51EC100BFAF7B0FF53EC182BFBF72D
:1053D00000F99DED060B41EC180B53EC192B51EC29
:1053E000100BFBF797F953EC182BFBF799F9CDE964
:1053F00006010CE09DED060B032453EC102B9FEDF2
:10540000580B51EC100BFBF78BF9CDE906019DED24
:10541000060B53EC102B51EC100BFAF786FF41EC06
:10542000180B53EC182BFAF780FF41EC190B4E4880
:105430000621B0EE490AF0EE690A784400F094F9CA
:1054400053EC182B51EC100BFAF76FFF41EC180BD3
:105450004648B0EE490AF0EE690A0521784400F0AA
:1054600083F953EC192B51EC100BFAF75EFF41EC6A
:10547000100B51EC180B53EC102B002C0EDAFBF731
:10548000A8F89DED061B53EC112BFAF74EFF9DED8E
:10549000061B53EC112BFBF740F935E0FBF799F8AD
:1054A0009DED061B53EC112BFAF73FFF41EC100B5F
:1054B0002F48784400EBC40090ED001B51EC100B1A
:1054C00053EC112BFBF726F99DED061B53EC112B2A
:1054D000FBF720F941EC100B2648784400EBC400A0
:1054E00090ED001B51EC100B53EC112BFBF715F951
:1054F00041EC100B002DA2BFBDEC068B02B070BDBD
:1055000051EC100B81F0004141EC100B01E7000061
:10551000000010440000F07F182D4454FB21F93F97
:10552000182D4454FB21F9BF0000DC3F0000203E51
:105530000000F33F00000000000000000000F03F0A
:105540000000E63F000000000000000000000040F6
:105550000080034000000000000000000000F83F51
:10556000000000000000F0BF5A7C0000107C00002A
:105570009A7B0000527B000070B56B4E2DED040B42
:105580002DED028B82B0DDF81CC0DDE905235C4205
:105590002CF000411C4341EAD474049D22F00040E9
:1055A000B44205D86C422C4340EAD474B4420BD9BF
:1055B0009DED061B9DED040B02B0BDEC028B04B00B
:1055C000BDE8704000F056B9ACF14054A4F17F64DE
:1055D0001C430BD0022404EAAC7444EAD2740543A1
:1055E0009FED538B9FED542B07D015E09DED040BE1
:1055F00051EC100B00F07EF942E0002C11BF012CA1
:105600009DED040B02B0BDEC028B04BF04B070BD75
:10561000022C38D0032C3BD00B439FED491B9FED50
:105620004A0B0AD0B14218D1B04209D121F08041D1
:1056300020F08040079105900FE0002A15DA10E075
:10564000434B7B44002C08BF93ED000B0DD0012C85
:1056500010D0022C17D0032C1AD0B0421DD1002A32
:1056600003DAB0EE410AF0EE610A02B0BDEC028B43
:1056700004B070BD93ED000B51EC100B81F00041B4
:1056800041EC100BF1E7B0EE480AF0EE680AECE7E7
:10569000B0EE420AF0EE620AE7E7401A00153C2835
:1056A000C8BF8DED000B19DCBCF1000FBEBF10F1BF
:1056B0003C0F9FED290B8DED000B0FDB9DED060BD5
:1056C00053EC102B9DED040B51EC100BFBF728F85D
:1056D00001F0ABF900F00EF9CDE90001002C08BF94
:1056E0009DED000BC1D0012C10D0022C9FED1C0BA6
:1056F00053EC102B9DED000B51EC100B0DD0FBF774
:1057000009F853EC182BFBF705F8B9E7019880F07E
:10571000004001909DED000BA7E7FAF7FBFF53EC6B
:10572000182BFAF7FAFFABE70000F07F000000004B
:10573000182D4454FB210940182D4454FB2109C065
:10574000182D4454FB21F9BF182D4454FB21F93F77
:10575000827A00000000000000000000000000004D
:10576000075C143326A6A13C70B504462DED028BD0
:105770004D1E00EBC500B0EE408AF0EE608A90ED61
:10578000000B35F0060017D053EC182B51EC100B22
:10579000FAF7CBFD41EC100B6D1E04EBC50090ED4C
:1057A000001B51EC100B53EC112BFAF712FF41ECDC
:1057B000100B35F00600E7D1022D36D0042D1CD099
:1057C000062D1CBFBDEC028B70BD53EC182B51ECA9
:1057D000100BFAF7AAFD94ED0A1B53EC112BFAF704
:1057E000F8FE53EC182BFAF7A0FD94ED081B53ECD0
:1057F000112BFAF7EEFE41EC100B53EC182B51EC89
:10580000100BFAF792FD94ED061B53EC112BFAF7EF
:10581000E0FE53EC182BFAF788FD94ED040B53ECE3
:10582000102BFAF7D6FE41EC100B53EC182B51EC71
:10583000100BFAF77AFD94ED021B53EC112BFAF7DB
:10584000C8FE53EC182BFAF770FD94ED001B53ECD7
:10585000112BFAF7BEFEBDEC028B41EC100B70BDB4
:1058600010B553EC102B51EC100BFAF7B2FE41ECD3
:10587000100B10BD10B553EC112B51EC100BFAF7B7
:10588000A8FE41EC100B10BD9FED050B10B553ECBD
:10589000102B51EC100BFAF743FF41EC100B10BD2D
:1058A00000000000000000009FED050B10B553EC58
:1058B000102B51EC100BFAF738FD41EC100B10BD1A
:1058C000000000000000001002E008C8121F08C11C
:1058D000002AFAD170477047002001E001C1121F71
:1058E000002AFBD1704700000149086070470000A2
:1058F000F801002010B541EC100BFFF7D1FC51EC82
:10590000100B10BD10B504004FF0FF3030D0A16C6B
:1059100000292DD0E16C00292AD0216D002927D043
:10592000242020704FF40050A4F85A000320A4F85B
:105930005800607A20B10020E072206910B103E0C5
:105940000120F9E70B482061204600F0FFFB00280A
:105950000ED10948E0613030206208202075102007
:1059600060750720A0752046BDE8104000F072B8B1
:1059700010BD00003EAF00083ECF00087047F0B5F4
:10598000044600231846557D11E0D66903EB430712
:10599000F65D8E4209D1D06903EB430108440188CA
:1059A00021808078A0700120F0BD5B1CDBB29D429D
:1059B000EBD8F0BD2DE9F7434FF0000514465FEA40
:1059C00001094FF010064FF030082F4626D02CB3B7
:1059D000207D9DF80010884239D91346012269467E
:1059E0002F2000F033FC00281AD1E089102827D29C
:1059F000C10701D0401EE081E28909EB0701B242F4
:105A000023460FD8404600F05BF8A17BCA19D7B2F5
:105A100001EB080202F0FF08294408E04FF0FF30D4
:105A2000BDE8FE833246404600F04AF8A919CDB2DF
:105A3000C5F11001CEB20028F2D1002EDCD1EFE783
:105A4000234610224946302000F03AF8E8E76FF08C
:105A50000900E5E71FB50446002094F858108907AF
:105A600005D5204602F096FA18B14FF0FF3004B089
:105A700010BD28208DF8000022460121684600F064
:105A800086F90028F3D1BDF80410A4F85410EEE70D
:105A900070B505460C46084602F07CFA68B965B157
:105AA000226D44F620606168904723462946BDE890
:105AB00070400122212000F003B84FF0FF3070BD8C
:105AC0002DE9F05F824617468B461C460025184696
:105AD00002F060FA060037D1BBF1000F34D0E07A53
